:020000040800F2
:10000000D80F00209D010008A5310008DD2600085A
:10001000753100083B0E0008F938000800000000A8
:10002000000000000000000000000000A9310008EE
:100030003D0E000800000000A7310008AB310008A9
:10004000B7010008B7010008B7010008B7010008B0
:10005000B7010008B7010008B7010008B7010008A0
:10006000B7010008B7010008B7010008B701000890
:10007000B7010008B7010008B7010008B701000880
:10008000B7010008B7010008B7010008B701000870
:10009000B7010008B7010008B7010008B701000860
:1000A000B7010008B7010008B7010008B701000850
:1000B000B7010008B7010008B7010008B701000840
:1000C000B7010008B7010008B7010008B701000830
:1000D000B7010008D5370008B7010008B7010008CC
:1000E000B7010008B7010008B7010008B701000810
:1000F000B7010008B7010008B7010008B701000800
:10010000B7010008B7010008B7010008B7010008EF
:10011000B7010008B7010008B7010008B7010008DF
:10012000B7010008B7010008B7010008B7010008CF
:10013000B7010008B7010008B7010008B7010008BF
:10014000B7010008B7010008B7010008B7010008AF
:10015000B7010008B7010008B7010008B70100089F
:10016000B7010008B7010008B7010008B70100088F
:10017000B7010008B7010008B7010008000000003F
:10018000B7010008B7010008DFF80CD000F022FC2E
:1001900000480047AD4D0008D80F002006488047B2
:1001A00006480047FEE7FEE7FEE7FEE7FEE7FEE75C
:1001B000FEE7FEE7FEE7FEE73532000889010008AA
:1001C0002DE9F05F0546002092469B46884606468C
:1001D000814640241BE0284641464746224600F01F
:1001E00069FA53465A46C01A914110D3114618462F
:1001F000224600F050FA2D1A67EB01084F462246BE
:100200000120002100F047FA17EB00094E41201EA3
:10021000A4F10104DFDC484631462A464346BDE8E6
:10022000F09F40EA01039B0703D009E008C9121FB1
:1002300008C0042AFAD203E011F8013B00F8013BA0
:10024000521EF9D27047D2B201E000F8012B491ECC
:10025000FBD270470022F6E710B513460A46044663
:100260001946FFF7F0FF204610BD2DE9FE4F8046EE
:1002700081EA0300C00F0C46009021F0004123F0FA
:100280000045B8EB0200A94105D240462146904600
:100290001C460B46024623F00040104347D0270D72
:1002A000C7F30A00C3F30A510290401A0190402894
:1002B0006BDAC3F3130040F4801B0098924620B120
:1002C0000023D2EB030A63EB0B0B01985946C0F1F4
:1002D0004002504600F0DFF906460D4650465946AA
:1002E000019A00F0F7F910EB08006141002487EA59
:1002F000115284EAE7731A4340D0009A62B3019A1C
:10030000012A4FEA075215DC001B61EB02014FF096
:10031000004202EA0752CDE90042001C41F580117B
:1003200032462B4600F07CFA03B0BDE8F08F404621
:100330002146F9E7001B61EB0201001C41F5801327
:1003400000185B412018A2F5001747EB030140EAB3
:10035000D570B6196D4111E06D084FEA360645EAD1
:10036000C0754FEA0752001B61EB0201001C41F50A
:10037000801149084FEA30000019514132462B469E
:1003800003B0BDE8F04F00F03CBA009801224000F5
:100390000023D0EB020263EBE073009821464FEAA2
:1003A000E074B8EB000061EB0401E9E783F000437F
:1003B0005BE781F0004158E72DE9FE4F81EA030435
:1003C00004F0004421F0004100944FF0000B23F0B2
:1003D000004350EA01045ED052EA03045BD0C3F349
:1003E0000A54C1F30A552C44A4F2F3340194A0FB3F
:1003F0000254C1F3130141F48011C3F3130343F416
:10040000801301FB024400FB034E840A970A44EA6E
:10041000815447EA8357A4FB076802958D0A05FBC0
:1004200007854FEA932C04FB0C542705029D4FEAE5
:10043000065847EA1637B5EB08056EEB070C870E32
:10044000920E47EA811742EA8312A7FB0201B6EB3C
:100450000B0164EB00042B0D43EA0C335E1844EBF4
:100460001C50DA465146E7FB0201C5F313044FEA7C
:100470000B3343EA14534FEA0432019C43EA060368
:10048000A4F10C040294009CCDE900B400F0C8F97A
:1004900003B0BDE8F08F00200146F9E72DE9F04DEB
:1004A00081EA030404F0004B21F0004514464FF0AC
:1004B000000A23F0004150EA050220D054EA01026C
:1004C0001DD0C5F30A570246C5F31303C1F3130049
:1004D000C1F30A5640F4801543F48013A7EB0608D5
:1004E000101BD64608F2FD3873EB050002D308F165
:1004F000010801E092185B41B8F1000F03DA002017
:100500000146BDE8F08D00204FF480110646844678
:100510000EE0171B73EB050705D3121B63EB0503F6
:1005200006434CEA010C49084FEA300092185B413F
:1005300050EA0107EDD152EA030012D082EA04002A
:1005400083EA0501084305D0101BAB4106D2012206
:10055000002306E000224FF0004302E06FF00102AA
:1005600053101AEB06004CEB085110EB0A0041EB5C
:100570000B01BDE8F04D00F044B90EB5C10F80EAA3
:10058000E0700844CA07002140F233438DE80E00B2
:100590000A460B4600F044F903B000BD70B5C1F344
:1005A0000A5201F000450024C1F3130140F2FF3369
:1005B00041F480119A4201DA002070BD40F23343C9
:1005C0009A42A2F2334203DC524200F073F800E098
:1005D00090402C43F1D0404270BDC1F30A5210B597
:1005E000C1F3130140F2FF3341F480119A4201DA62
:1005F000002010BD40F233439A42A2F2334203DCA2
:10060000524200F057F810BD904010BD00F000427B
:1006100030F000400AD0C10D01F56071C0F3160042
:1006200042EA0151C20840071143704700200146C9
:10063000704701F0004330B421F0004150EA01025C
:1006400006D00A0DA2F56072C1F31301002A02DC84
:1006500030BC00207047440F44EAC104C100E018D8
:1006600030BC00EBC25000F095B830B50B460146E7
:1006700000202022012409E021FA02F59D4205D341
:1006800003FA02F5491B04FA02F52844151EA2F1EB
:100690000102F1DC30BD202A04DB203A00FA02F12D
:1006A000002070479140C2F1200320FA03F3194360
:1006B00090407047202A04DB203A21FA02F0002102
:1006C000704721FA02F3D040C2F120029140084362
:1006D00019467047202A06DBCB17203A41FA02F070
:1006E00043EAE07306E041FA02F3D040C2F120028F
:1006F00091400843194670470FB4002300B589B0F4
:100700000CA900910B996FF00042CB601E4B069331
:100710001E4B07930423CDE901321D4A089202467D
:100720006B46002000F002FA09B05DF814FB70B5CA
:1007300086B006464FF0FF300091CDE90101002060
:1007400015460C4604903246694604A8FFF7D4FFCC
:1007500002460498211825B108B1084600E0204659
:100760002860049800280DD0002A02DD00988842F5
:1007700008D0081B0094CDE901043246694604A85C
:10078000FFF7BAFF06B070BD650D0008830D0008C5
:10079000F90900080029A8BF7047401C490008BF9C
:1007A00020F00100704710B4B0FA80FC00FA0CF0A1
:1007B00050EA010404BF10BC704749B1CCF12004D9
:1007C00021FA04F411FA0CF118BF01212143084366
:1007D000A3EB0C01CB1D4FEA00614FEA102042BF92
:1007E000002010BC704700EBC35010440029A4BF88
:1007F00010BC7047401C490008BF20F0010010BC2D
:10080000704710B5141E73F1000408DA401C41F162
:10081000000192185B411A4301D120F0010010BD84
:100820002DE9F04D92469B4611B1B1FA81F202E0FA
:10083000B0FA80F220329046FFF72DFF04460F46B3
:1008400040EA0A0041EA0B0153465A46084313D0D6
:10085000114653EA010019D0C8F140025046FFF793
:1008600029FF05460E46504659464246FFF713FFFC
:10087000084305D0012004E020463946BDE8F08D4C
:100880000020054346EAE0762C4337430A98630587
:10089000E40AA0EB08000022FD0A44EA47540A30AB
:1008A00002D500200146E9E7010510196941DDE99B
:1008B000084500196941BDE8F04DA2E72DE9F04176
:1008C000054621F000400C46284309D0C4F30A50E5
:1008D00040F23341884205DD28462146BDE8F081DB
:1008E0002846FBE740F2FE31884210DC0CDB4FEA81
:1008F000043040EA155050EA053105D0104804F0A4
:10090000004101430020E9E700200146E6E7A0F2AC
:1009100033404642C6F1400228462146FFF7BBFE5F
:1009200007468846284621463246FFF7C3FE43461F
:100930003A46FFF766FF3246BDE8F041FFF7ABBE2F
:100940000000F03FC1F30A52C1F3130140F2FF333C
:1009500041F480119A4202DA00200146704740F2C9
:1009600033439A42A2F2334202DC5242FFF7A2BE64
:10097000FFF791BE30B5041E71F1000404DB4FF0A7
:100980000044404264EB0101141E73F1000405DBD6
:100990001C464FF00043524263EB04038B4208BFF6
:1009A000824230BD30B5041E71F1000404DB4FF00B
:1009B0000044404264EB0101141E73F1000405DBA6
:1009C0001C464FF00043524263EB0403994208BFB8
:1009D000904230BD064C074D06E0E06840F0010350
:1009E00094E8070098471034AC42F6D3FFF7D0FBE9
:1009F0000056000820560008C0B24FF4F05100F035
:100A0000D1B900002DE9FF4F087883B09946FF283F
:100A100005D0491C2D2804D00024002008E0002027
:100A20000BE00124F9E700EB800003EB4000491CD8
:100A30000B78FF2BF7D104B14042002302931478C6
:100A400019461D462D2C01D02B2C04D1521C2D2CC7
:100A500013D000240294AA461478FF2C0FD00A2544
:100A6000A3FB057801FB05814FF0000C03FB0C1183
:100A7000521CE3194AEB0101EEE70124EAE7814445
:100A800053EA010002D019F5C87F06DA0398002165
:100A9000C0E9001107B0BDE8F08F0025AE4E2F462B
:100AA000DFF8B882184600F091F9CDE90001B9F1FC
:100AB000000002DAC9F1000400E004460023A74A5E
:100AC0001AEB030B42EB045A12E0E00707D02A4668
:100AD000334638464146FFF76FFC074688462A46AC
:100AE000334610461946FFF767FC05460E4664106C
:100AF000002CEAD1DDE90001B9F1000F5A46534656
:100B000006DAFFF7CBFC3A464346FFF7C7FC05E0A1
:100B1000FFF752FC3A464346FFF74EFC029A0AB1F1
:100B200081F00041039AC2E90001B3E72DE9FF4FCC
:100B30001F468DB0D7E901464FF0FF382E204546BD
:100B40004FF000090B90B9696D1C0E988847396AFF
:100B5000824688470028F6D1BAF1FF3F0AD024F434
:100B6000D064002E11DDBAF12B0F08D0BAF12D0F91
:100B70000BD102E0404611B08DE744F48064B969BE
:100B80006D1C0E9888478246761E6946600501D521
:100B90002D2000E02B208DF8000001F1010B0DF15C
:100BA000200809E0B9696D1C0E98884782460F98A5
:100BB00044F40074761E0560002E02DDBAF1300F99
:100BC000F0D00B998A453ED144F0800406E00F999D
:100BD000681CA9F1010944F400740860B9696D1C2E
:100BE000761E0E98884782463028F0D02BE00B996D
:100BF0008A4505D1200603D444F08004761E18E00F
:100C0000504603F017FD08B30DF11301761E44F4AE
:100C100000748B4508D2AAF130000BF8010B2006B6
:100C200007D5A9F1010003E0200602D409F1010073
:100C30008146A00502D50F99681C0860B9696D1C32
:100C40000E9888478246002ED1DC53E0002E51DDFD
:100C5000BAF1650F02D0BAF1450F4BD1A00549D5C5
:100C6000B9696D1C24F44074761E0E98884782463C
:100C7000002E0CDD2B2804D0BAF12D0F07D144F43F
:100C80008074B9696D1C0E9888478246761EE0050F
:100C900001D52D2100E02B2108F8011BCDF82C8077
:100CA00021E00DF12901761E44F4007488450CD230
:100CB000AAF1300010F0FF0088F8000002D10B9973
:100CC000884509D908F1010806E0E00501D5244866
:100CD00001E042F20F708146B9696D1C0E98884799
:100CE00082460F980560002E04DD504603F0A2FCFA
:100CF0000028D6D1F9690E988847FF208BF80000AC
:100D000088F800000020069007904B466A4608A924
:100D100006A8FFF777FEA00502D46FF001002AE7CE
:100D200014F0240F0AD0E00714D1DDE90612386868
:100D3000031D3B600068C0E900120BE0DDE906011D
:100D4000FFF777FC0146E00704D13868021D3A60DE
:100D50000068016028460EE7000014400000F03FE4
:100D6000F1D8FFFF426842B1016811F8013B23B19D
:100D7000521EC0E90012184670470121C160881E4A
:100D8000704742685AB1C368016843B983688B42AF
:100D900005D0491E521CC0E90012002070474FF0D8
:100DA000FF3070477F2801D9002208E0064A02EB95
:100DB0005002C007127800D1120902F00F02012080
:100DC0009040084070470000C05500080EB540F242
:100DD000334202920022CDE900221346FFF720FDA4
:100DE00003B000BD70B58C1810F8015B15F0070357
:100DF00001D110F8013B2A1106D110F8012B03E0B4
:100E000010F8016B01F8016B5B1EF9D12B0705D4BB
:100E10000023521E0DD401F8013BFAE710F8013B04
:100E2000CB1A921C03E013F8015B01F8015B521E20
:100E3000F9D5A142D8D3002070BDFEE770477047B6
:100E400090F83510022903D08021416501207047B8
:100E5000052180F835100068016821F0010101606A
:100E60000020704770B5044600F0F4F80546601C99
:100E700002D004480078044400F0ECF8401BA04283
:100E8000FAD370BD280000202DE9F84F00224FF062
:100E9000010803254FF00F0E0B6808FA02F42340F7
:100EA000A3426ED14E68012E05D0022E03D0112E22
:100EB00001D0122E12D186684FEA420C05FA0CF7C7
:100EC000BE43CF6807FA0CF7374387604668A643EE
:100ED0000C79C4F30014944034434460C66857004E
:100EE00005FA07FC8C6826EA0C06BC403443C46053
:100EF0004C68022C01D0122C13D1D40800EB8404CE
:100F0000A346D4F8209054074FEAD46A0EFA0AF6A2
:100F100029EA06090E6906FA0AF646EA0906CBF836
:100F2000206006680C7926EA0C0604F00304BC4035
:100F3000344304604C68E40065D5364C266846F4BA
:100F400080462660246822F0030604F4804400945E
:100F5000314C3444A446D4F808489607370F0EFAAB
:100F600007F6B4432D4EB04201D1002624E02C4EAA
:100F7000B04201D101261FE02A4EB04202D1022622
:100F80001AE040E0284EB04201D1032614E0274E7B
:100F9000B04201D104260FE0254EB04201D1052612
:100FA0000AE0244EB04201D1062605E0224EB042AE
:100FB00001D1072600E00826BE402643CCF8086889
:100FC0001E4E34684F689C43FF0300D51C433460B9
:100FD0001A4C241D26684F689E43BF0300D51E434C
:100FE0002660164E083634684F689C43FF0200D5D1
:100FF0001C433460114E0C3634684F689C43BF026A
:1010000000D51C433460521C102AFFF445AFBDE8E4
:10101000F88F0000443802400030014000000240D8
:101020000004024000080240000C02400010024090
:101030000014024000180240001C0240003C014025
:101040000069084000D0012070470AB181617047F3
:101050000904FBE701488068704700002800002071
:1010600070B5040025D094F83D00002520B984F81F
:101070003C50204600F0D2FB242084F83D0020683C
:10108000016821F0010101602068016841F400411C
:1010900001602068016821F40041016000F042FD18
:1010A0004D4A6168914201D84C4900E04C49884260
:1010B00001D2012070BD4B492368B0FBF1F15E689D
:1010C00026F03F060E435E606368934206D94FF4F4
:1010D000967359434FF47A73B1FBF3F12368491CBB
:1010E0001E6A26F03F06314319626168914210D8AA
:1010F0004900401EB0FBF1F2521CC2F30B02042A5D
:1011000001D2042022E0B0FBF1F0401CC0F30B0040
:101110001CE0A268F2B301EBC10303EB0116431E0E
:10112000B3FBF6F35B1C43F480431B0549D092B339
:1011300001EBC10202EB0111401EB0FBF1F0401CBB
:10114000C0F30B0040F4804040F400402168CA69BD
:101150004CF6FF739A431043C861D4E9071001436A
:101160002068026822F0C00211430160D4E9030143
:1011700001432068826848F2FF339A43114381603B
:10118000D4E9050108432168CA6822F0FF02104330
:10119000C86001E00EE016E02068016841F001013E
:1011A00001602564202084F83D00256384F83E50CA
:1011B000002070BD01EB4106431EB3FBF6F35B1C40
:1011C000B3E70120C2E701EB4101401EB0FBF1F0A3
:1011D000401CC0F30B00B7E7A086010080841E000E
:1011E00000093D0040420F002DE9F84F1F46904690
:1011F0008A460446DDF82890FFF72CFF054694F850
:101200003D00202875D1192301226C492046009504
:1012100001F038FC0028F5D194F83C00012868D092
:10122000012084F83C0020680168C90703D10168E7
:1012300041F0010101602068016821F40061016052
:10124000222084F83D00102084F83E000026266409
:10125000C4F824806785608D20855948E0622B465C
:101260004A465146204601F051FA002878D1208D97
:10127000544F68B1012814D002282068016816D0A4
:1012800041F480610160206841698069009087E0D5
:101290002068416981690091016841F40071016031
:1012A0007EE02068016821F480610160F0E721F4AC
:1012B000806101602068016841F40061E2E7032871
:1012C00048D801280AD0022814D04B4600223946BB
:1012D0002046009501F0D6FBD8BB27E02A464946B8
:1012E000204601F04EFCA0BB20680069616A0870CE
:1012F0004DE061E04B46002239462046009501F062
:10130000C1FB30BB2068016841F4007101602068B6
:101310000069616A0870606A401C6062218D491E24
:101320002185618D491E618521682EE02068016854
:1013300021F48061016020680069616A0870606A58
:10134000401C6062208D401E2085608D401E60859F
:10135000D0E705E02A464946204601F012FC10B1CC
:101360000120BDE8F88F20680069616A0870606A32
:10137000401C6062218D491E2185618D491E618559
:1013800021684A69D24352070AD409690170606A28
:10139000401C6062208D401E2085608D401E60854F
:1013A000208D00288BD1202084F83D0084F83E60F9
:1013B00084F83C600020D4E70220D2E7020010004D
:1013C0000000FFFF040001002DE9F84F1F46904682
:1013D0008A460446DDF82890FFF73CFE054694F85F
:1013E0003D0020287FD11923012240492046009545
:1013F00001F048FB002876D194F83C00012872D017
:10140000012084F83C0020680168C90703D1016805
:1014100041F0010101602068016821F40061016070
:10142000212084F83D00102084F83E000026266428
:10143000C4F824806785608D20852D48E0622B46A6
:101440004A465146204601F0D7F990B920684169D3
:101450008069009036E02A464946204601F0C4FBE8
:1014600050B1206C042804D12068016841F4007157
:1014700001600120BDE8F88F606A2168007808618A
:10148000606A401C6062618D491E6185218D491E24
:1014900089B2218522685369DB435B070BD451B1C4
:1014A00000781061606A401C6062608D401E60853B
:1014B000208D401E20852A464946204601F0BCFA70
:1014C0000028CED1208D0028C5D154F83D0B0168ED
:1014D00041F400710160202004F81E09E677667768
:1014E0000020C7E7FFE70220C4E700000200100069
:1014F0000000FFFF2DE9FF4F83B09A46DDE9119709
:1015000093460446DDF84080FFF7A4FD054694F8B5
:101510003D00202870D119230122714920460095F1
:1015200001F0B0FA0028F5D194F83C00012863D00E
:10153000012084F83C0020680168C90703D10168D4
:1015400041F0010101602068016821F4006101603F
:10155000222084F83D00402084F83E0000262664C6
:10156000C4F82480A4F82A90608D20855D48E0624C
:10157000CDE9007553465A462046049901F08AF990
:1015800000287CD1208DD0B1012821D002282068EC
:1015900024D0416980690090208D032869D80128F2
:1015A0002BD0514902283B464FF00002009559D0FC
:1015B0008846204601F066FA002860D13CE02068A9
:1015C000416981690091016841F40071016077E02F
:1015D0002068016821F480610160F0E7016821F46E
:1015E000806101602068016841F400610160206849
:1015F00041698069009063E06FE02A4639462046E1
:1016000001F0BFFA98BB20680069616A08704EE07B
:101610002068016841F40071016020680069616A16
:101620000870606A401C6062218D491E2185618DB1
:10163000491E6185216838E02068016821F48061D5
:10164000016020680069616A0870606A401C60621D
:10165000208D401E2085608D401E60853B46002207
:1016600041460095204601F00DFA00B9D0E706E0AA
:10167000FFE72A463946204601F083FA18B10120D7
:1016800007B0BDE8F08F20680069616A0870606A81
:10169000401C6062218D491E2185618D491E618536
:1016A00021684A69D24352070AD409690170606A05
:1016B000401C6062208D401E2085608D401E60852C
:1016C000208D00287FF468AF202084F83D0084F846
:1016D0003E6084F83C600020D2E70220D0E70000A2
:1016E000020010000000FFFF040001002DE9FF4F81
:1016F00083B09A46DDE9119793460446DDF84080B1
:10170000FFF7A8FC054694F83D0020287FD1192357
:10171000012240492046009501F0B4F9002876D115
:1017200094F83C00012872D0012084F83C00206825
:101730000168C90703D1016841F001010160206817
:10174000016821F400610160212084F83D004020FF
:1017500084F83E0000262664C4F82480A4F82A9069
:10176000608D20852C48E062CDE9007553465A46CD
:101770002046049901F00CF970B930E02A46394648
:10178000204601F031FA58B1206C042804D12068B9
:10179000016841F400710160012007B0BDE8F08FDD
:1017A000606A216800780861606A401C6062218D6F
:1017B000491E89B22185628D521E62852268536955
:1017C000DB435B070BD469B100781061606A401C91
:1017D0006062208D401E2085608D401E6085208DBA
:1017E0000028CBD12A463946204601F025F90028A9
:1017F000CAD154F83D0B016841F40071016020200A
:1018000004F81E09E67766770020C6E7FFE70220A6
:10181000C3E70000020010000000FFFFF0B587B032
:10182000044614216846FEF715FD2768204CDFF8B2
:101830007CC01F4912220123032504261D481034B1
:10184000674515D10F6847F002070F60096801F07E
:101850000201059129028DE86E006946FFF714FB2D
:10186000206840F400102060206800F4001019E0A7
:10187000DFF844C0674516D10F6847F002070F60D4
:10188000096801F0020105914FF440618DE86E0096
:101890006946FFF7F9FA206840F48000206020686C
:1018A00000F48000059007B0F0BD00000054004037
:1018B000303802400004024000580040024881686D
:1018C0000278114481607047280000200B4810B551
:1018D000016841F400710160016841F480610160B8
:1018E000016841F480710160032000F06FF800206E
:1018F00000F006F800F024F8002010BD003C024083
:1019000070B50D4D04464FF47A712878B1FBF0F0B4
:101910000A490968B1FBF0F000F002FB48B9102C4D
:1019200007D200222146501E00F030F800206C60E3
:1019300070BD012070BD0000280000203400002090
:101940000A4808B5016841F480410160006800F46C
:10195000804000900548001F016841F080510160FF
:10196000006800F08050009008BD0000443802403C
:10197000002809DB00F01F0201219140400980008E
:1019800000F1E020C0F8001170470000F0B40E4BE9
:101990001B680C46C3F30223C3F10705042D00D9CD
:1019A0000425191D072901D2002300E0DB1E0126B2
:1019B00006FA05F1491E214099409E40761E1640C8
:1019C0003143F0BC02F068BA0CED00E0064900F0CB
:1019D000070208684FF6FF03184040EA0220034A56
:1019E00010430860704700000CED00E00000FA05AD
:1019F0002DE9F0470E46050065D0DFF81481D8F8D0
:101A00000000F7B200F00F00B04207D288F8007073
:101A1000D8F8000000F00F00B04254D128683D4CC7
:101A2000810712D5400703D5206840F4E0502060BC
:101A30002878000703D5206840F4604020602068C3
:101A4000A96820F0F000084320602878C0072DD056
:101A5000304968680839012812D0022813D00328B9
:101A600011D00968890700292DDA216821F00301C6
:101A700001432160FFF7EEFA814641F2883A0EE019
:101A800009688903EFE709688901ECE7FFF7E2FAE3
:101A9000A0EB0901514502D90320BDE8F087206879
:101AA000696800F00C00B0EB810FEFD1D8F800109E
:101AB000404601F00F01B14207D90770006800F0FD
:101AC0000F00B04201D00120E7E72878400705D594
:101AD0002068E96820F4E050084320602878000777
:101AE00006D52068296920F4604040EAC1002060E2
:101AF00000F038F82168084AC1F30311515CC8406E
:101B00000649086006480068FFF7FAFE0020C4E7AF
:101B1000003C024008380240F05400083400002025
:101B20002C0000200448054900680968044AC1F3F4
:101B30008221515CC84070473400002008380240C0
:101B4000005500080448054900680968044AC1F3C3
:101B50004231515CC84070473400002008380240D0
:101B600000550008154810B5006810F00C02144824
:101B700013D04110042A0FD0082A0ED10F4C241F75
:101B80002268236802F03F025B0207D52068C0F399
:101B90008810A0FB010106E0084610BD2168C1F3D2
:101BA0008811A1FB00010023FEF70AFB2168C1F3A5
:101BB0000141491C4900B0FBF1F010BD083802405A
:101BC0000024F4002DE9F84F04006ED02078DFF8EF
:101BD0003C93C007A9F104054AD009F1040001684B
:101BE000C1F38101012908D00068C0F381000228F7
:101BF0000AD1D9F80000400206D52868800337D5FD
:101C000060680028E1D033E06068B0F5803F10D014
:101C1000B0F5A02F286810D020F480302860286804
:101C200020F4802028606068A8B1FFF713FA064608
:101C30000DE0286840F48030F4E740F4802028600C
:101C4000F7E700BFFFF706FA801B642873D82868FF
:101C50008003F7D50CE0FFF7FDF9064605E000BF6D
:101C6000FFF7F8F9801B6428F0D828688003F7D4C0
:101C70002078DFF89C8280074FF0000A3ED5A34809
:101C8000001D016811F00C0F08D00068C0F381003E
:101C900002280BD1D9F80000400207D42868800739
:101CA00016D5E068012800D112E02BE1E068B8B158
:101CB0000120C8F80000FFF7CDF9064605E000BF97
:101CC000FFF7C8F9801B0228C0D828688007F7D51D
:101CD0002868216920F0F80040EAC10028600DE082
:101CE000C8F800A0FFF7B6F9064604E0FFF7B2F91E
:101CF000801B02281FD828688007F7D420780007A7
:101D000022D5824E83486169703671B1012101602C
:101D1000FFF7A0F9074604E0FFF79CF9C01B022873
:101D200009D830688007F7D50EE0C0F800A0FFF7AB
:101D300091F9074605E082E0FFF78CF9C01B022805
:101D40007DD830688007F7D42078400768D5DFF861
:101D5000BCB100270BF13C0BDBF80000C0000BD43A
:101D6000DBF8001041F08051CBF80010DBF80000E8
:101D7000012700F080500090674E3068C00510D4F5
:101D8000306840F480703060FFF764F9009005E03F
:101D9000FFF760F90099401A022850D83068C00552
:101DA000F6D55A4EA0686C3601280FD00528306849
:101DB00010D020F001003060306820F00400306066
:101DC000A068B8B1FFF746F900900FE0306840F026
:101DD0000100F4E740F004003060F7E7FFF73AF95C
:101DE0000099411A41F28830814266D830688007F4
:101DF000F4D50EE0FFF72EF9009007E0FFF72AF97F
:101E00000099411A41F28830814256D830688007E3
:101E1000F4D42FB1DBF8001021F08051CBF8001082
:101E2000A069C8B33949091D0968C1F381010229B4
:101E30004AD00228504607D0C8F8600000E03CE0D5
:101E4000FFF708F904463BE04746C8F86000FFF793
:101E500001F9064605E000BFFFF7FCF8801B0228E9
:101E60002BD828688001F7D4D4E907010843A16A78
:101E70002A4A490802EB0141626A41EA8211084399
:101E800094F82C1040EA0161C9F80010012038666E
:101E9000FFF7E0F8044606E036E000BFFFF7DAF8A7
:101EA000001B022809D828688001F7D52CE000BF64
:101EB000FFF7D0F8001B022802D90320BDE8F88FF5
:101EC00028688001F4D41FE00128F7D0D9F8000079
:101ED000E26900F48001914214D1226A00F03F01CE
:101EE00091420FD147F6C071626A0140914209D117
:101EF000A26A00F44031914204D1E16A00F07060BE
:101F0000884201D00120D9E70020D7E704380240F9
:101F100000004742800E4742007000400000FFFF73
:101F200010B5401EB0F1807F01D3012010BD4FF0ED
:101F3000E02460610F21601701F0AEFF0020A06176
:101F400007202061002010BD10B590F83C20012A28
:101F500022D0012280F83C20CA688C6822F44072AA
:101F600022434C6822F4806222430C6822F400620F
:101F700022430C6922F4805222434C6922F400521D
:101F80002243C969002322F480420A4301684A645B
:101F900080F83C30002010BD022010BD70B590F8D4
:101FA0003C20012A32D0012480F83C40022280F8F3
:101FB0003D2003685A689D6822F070060A68324323
:101FC0005A60134B02689A4214D0B2F1804F11D07C
:101FD000104B9A420ED0104B9A420BD00F4B9A42A4
:101FE00008D00F4B9A4205D00E4B9A4202D00E4BAE
:101FF0009A4204D1496825F080031943916080F822
:102000003D40002180F83C10084670BD022070BDA4
:10201000000001400004004000080040000C0040A7
:1020200000040140004001400018004010B50400C9
:1020300003D094F83D0010B107E0012010BD00204E
:1020400084F83C00204600F00DF8022084F83D00A2
:10205000211D206801F0FCF8012084F83D000020DB
:1020600010BD000008B501680E48814201D10E483C
:1020700010E00D48001FB1F1804F0BD00B4A914288
:1020800007D1016841F002010160006800F0020020
:10209000009008BD016841F001010160006800F096
:1020A0000100F5E700000140443802400004004010
:1020B00070B5044690F83C00012817D0012584F83B
:1020C0003C50022084F83D002068826822F07702AC
:1020D00022F47F4282600868502830D00DDC20282E
:1020E0004DD005DC98B310283BD148E0022070BDEC
:1020F000302844D0402834D139E0602828D07028D6
:1021000006D0B0F5805F2CD0B0F5005F29D10AE091
:10211000CB68D1E90121206801F00BF920688168C2
:1021200041F0770109E0CB68D1E90121206801F095
:1021300000F92068816841F48041816011E0CA683B
:102140004968206801F0CAF95021206807E016E0CC
:10215000CA684968206801F0D2F96021206801F05E
:10216000F2F884F83D50002084F83C0070BDCA6845
:102170004968206801F0B2F940212068EFE7226841
:1021800001461046EBE7000070B586B00446142106
:102190006846FEF75FF82B4A216800242A4802258A
:1021A000012691420FD1016841F0100101600068E1
:1021B000694600F0100005904FF4D4400090CDE93E
:1021C0000154224837E0B1F1804F13D0204A9142A8
:1021D00035D1016841F0040101600068694600F0F2
:1021E00004000590C0200090CDE901541948CDE9C4
:1021F000034522E0016841F001010160016801F03E
:1022000001010591016841F0020101600068694621
:1022100000F0020005904FF400400090CDE9015419
:10222000CDE903460C48FEF72FFE08200090CDE9CB
:1022300001540A486946CDE90346FEF725FE06B07B
:1022400070BD000000000140303802400010024024
:102250000004004000080240000002400004024068
:1022600070B5044690F83C000D4601280DD00126BB
:1022700084F83C60022084F83D0042B1042A18D062
:10228000082A2AD00C2A4DD139E0022070BD2068DE
:1022900001F062F82068816941F0080181612068DD
:1022A000816921F004018161206881692A691143F3
:1022B00011E0206801F080F82068816941F4006134
:1022C00081612068816921F4806181612068816970
:1022D0002A6941EA0221816124E0206801F0A2F824
:1022E0002068C16941F00801C1612068C16921F01D
:1022F0000401C1612068C1692A69114311E02068A5
:1023000001F0C4F82068C16941F40061C16120682E
:10231000C16921F48061C1612068C1692A6941EA0B
:102320000221C16184F83D60002084F83C0070BD4A
:1023300010B5040003D094F83D0010B107E001206F
:1023400010BD002084F83C00204600F00CF802206C
:1023500084F83D00211D206800F07AFF012084F8F8
:102360003D00002010BD704710B5044600680122F2
:1023700000F0D2FF0B492068884202D00A49884207
:1023800003D1416C41F4004141642068816801F04F
:102390000701062903D0016841F001010160002016
:1023A00010BD000000000140000401407047000023
:1023B00070B5026804461068D168536910F00F0FB9
:1023C00052D003F0010501F490762E435FD0C2078E
:1023D00005D0CA0503D5E26B42F00102E263420771
:1023E00005D5DA0703D0E26B42F00202E26382070E
:1023F00005D5DA0703D0E26B42F00402E26302077C
:1024000007D501F020022A4303D0E26B42F0080214
:10241000E263E26B002A33D0800604D5880602D539
:10242000204601F094F820684069E16BC0F3801009
:10243000090700D428B3204601F07BF820684169E1
:1024400049061AD5416921F040014161606BA0B194
:102450001B490165606BFEF7F3FC002810D0606B30
:10246000016DBDE870400847830610D58B060ED578
:102470002046BDE8704001F06AB82046FFF796FF9D
:1024800070BD2046FFF792FF0020E06370BD030699
:1024900006D50B0604D52046BDE8704001F036B9DC
:1024A0004006F3D54806F1D5D168204621F0400119
:1024B000D160202184F8391000F00FF970BD0000C0
:1024C0002335000870B5040004D094F839000025C5
:1024D00010B106E0012070BD84F83850204600F0AD
:1024E00023F8242084F839002068C16821F40051C1
:1024F000C160204601F076F82068016921F490411E
:1025000001612068416921F02A0141612068C168A8
:1025100041F40051C160E563202084F8390084F85B
:102520003A00002070BD000010B586B004461421AA
:102530006846FDF78FFE18492068884229D1174860
:102540000021026842F010020260006800F01000F2
:10255000059012481438026842F0010202600068D7
:1025600000F0010005904FF4C06000900220CDE91A
:102570000101032003900720049069460848FEF7F4
:1025800083FC002211462520FFF700FA2520FFF7E3
:10259000EFF906B010BD00000010014044380240C1
:1025A0000000024090F83A30202B22D1F9B1F2B16C
:1025B00090F83830012B1CD081628285C2850021C1
:1025C000C163222280F83A2080F838100168CA6876
:1025D00042F48072CA6001684A6942F001024A61AD
:1025E0000068C16841F02001C160002070470120EF
:1025F000704702207047000010B500680549884206
:1026000001D101F009F9BDE8104001220249034857
:10261000FFF7C8BF00100140100000202404002074
:102620002DE9F843044690F839001F4616460D463A
:10263000202850D1B5B1AEB194F8380001284AD065
:10264000012084F838004FF00008C4F83C802120B5
:1026500084F83900FEF7FEFCA6848146E68484F8FF
:10266000388026E00120BDE8F883E08C401EE0843D
:10267000A0684B46B0F5805F4FF000024FF080013C
:102680002046009703D001F072F8E8B90DE001F0A0
:102690006EF8C8B928882168C0F30800486020692E
:1026A00008B16D1C05E0AD1C03E0216815F8010BB5
:1026B0004860E08C0028D8D14B46002240212046BB
:1026C000009701F054F808B10320CCE7202084F8EB
:1026D00039000020C7E70220C5E77047FEE7016820
:1026E0004A69D24352050FD46FF480624A610021D7
:1026F00040F8301F202242738173026942F00402C5
:102700000261017301207047002070472DE9F84FE6
:102710000446C06A1E4693460D4621680A6842F484
:1027200080620A60082807D0012805D010F5803F94
:1027300002D0206B112804D12068016841F4807117
:1027400001604FF001195B46002249462046009681
:1027500000F098F94FF4007840B120680068C00597
:1027600001D5C4F840800320BDE8F88F2069DFF868
:1027700084A0B0F5804F0FD00620216800EAD5175D
:1027800047F0F000086133465A460AF10601204638
:1027900000F0ACF958BB03E0E8B240F001001CE0E7
:1027A0002168E8B2086133465A465146204600F097
:1027B0009DF9E0B92068416981690091016841F49F
:1027C000807101605B46002249462046009600F079
:1027D00059F90028C1D147F0F1002168086133465A
:1027E0005A465146204600F081F90028BCD001200D
:1027F000BAE7000002000100F8B50446C06A1E46B0
:102800000D461746082807D0012805D010F5803F4F
:1028100002D0206B122804D12068016841F4807135
:102820000160134600224FF001112046009600F08F
:1028300029F940B120680068C00502D54FF4007046
:1028400020640320F8BD2069B0F5804F0ED006202B
:10285000216800EAD51040F0F000086133463A469E
:102860000B49204600F042F978B902E005F0FE007D
:1028700000E0E8B221680861054933463A46891FFD
:10288000204600F033F90028DCD00120F8BD00001C
:10289000080001002DE9F84F0446006889460B9DA9
:1028A00001689846174641F480610160206801681C
:1028B00041F48071016000954FF0011B00225946E0
:1028C00020460A9B00F0DEF84FF4007A40B1206801
:1028D0000068C00501D5C4F840A00320BDE8F88F0A
:1028E000216809F0FE0008612B46284920460A9A13
:1028F00000F0FCF8F0BB20684169806900902A462E
:1029000020460A9900F070F940B1206C04283AD1B1
:102910002068016841F40071016034E0FEB2B8F152
:10292000010F09D02168380A08612A4620460A9911
:1029300000F05AF90028E8D1206806612A462046AE
:102940000A9900F051F90028DFD12068016841F4AC
:102950008071016000950022594620460A9B00F0D4
:1029600091F80028B3D1216809F0FF0040F0010080
:10297000086100E007E02B46044920460A9A00F06F
:10298000B5F80028AAD00120A8E700000200010045
:102990002DE9F843044600680D46DDE90897016813
:1029A0009846164641F4807101604B4600224FF074
:1029B00001112046009700F065F848B120680068D2
:1029C000C00502D54FF4007020640320BDE8F883F1
:1029D000216805F0FE0008613B464A46154920463D
:1029E00000F084F888B920684169806900903A460F
:1029F0004946204600F0F8F848B1206C042804D17C
:102A00002068016841F4007101600120DEE7F5B241
:102A1000B8F1010F09D02168300A08613A464946E9
:102A2000204600F0E1F80028E7D120680561002089
:102A3000CCE700000200010070B516460D460446C2
:102A40000DE02046FFF74BFE08B1012070BD681C69
:102A500005D0FEF7FFFA801BA84207D835B12068E1
:102A60004069C0434007ECD4002070BD002044F80A
:102A7000300F20216173A073216941F02001216191
:102A80002073E2E72DE9F0471E4690460D460446C6
:102A9000C1F30747DDF8209008E0701C06D0FEF770
:102AA000D9FAA0EB0900B0420FD876B12068012F07
:102AB00018D0806925EA00000004000C14D0002121
:102AC0004145EAD00020BDE8F087002044F8300FEF
:102AD00020216173A073216941F0200121612073DD
:102AE0000120F0E74069E5E70121E9E72DE9F0473A
:102AF0009A4691460E46044600254FF02008C1F341
:102B0000074725E020684069C043400514D4206889
:102B1000016841F40071016021686FF480604861D0
:102B2000256384F83D8084F83E50206C40F004001A
:102B3000206484F83C501FE0B9F1FF3F08D0FEF755
:102B400089FAA0EB0A0149450CD8B9F1000F09D068
:102B50002068012F13D0806926EA00000004000CD1
:102B60000BD0CFE744F8305F84F80D80A57320695F
:102B700040F02000206125730120BDE8F087406906
:102B8000EAE72DE9F041002590460E46044620274D
:102B900017E04069C043C0060CD454F8301B6FF0F6
:102BA0001000486144F810596777A577206A2062C1
:102BB000257717E0FEF74EFAA0EB0800B04208D8E0
:102BC0003EB120684169C9434906E2D40020BDE80E
:102BD000F08144F8305F6773A573206940F02000EE
:102BE000206125730120F2E770B516460D460446B4
:102BF0000DE02046FFF773FD08B1012070BD681C91
:102C000005D0FEF727FA801BA84207D835B1206807
:102C10004069C0430006ECD4002070BD002044F899
:102C2000300F20216173A073216941F020012161DF
:102C30002073E2E701490860002070473800002057
:102C40001FB500F01F000C4640F020020A230221AD
:102C500003A88DE80B0007480123B4210068FEF7A4
:102C600049FC10B1012004B010BDBDF80C0020805B
:102C70000020F8E73800002010B529492DED028B1F
:102C8000B0EE408A18EE100A82B008442549884206
:102C900044D269460420FFF7D3FF01A90F20FFF7B4
:102CA000CFFF18EE100AFDF7B1FC9FED1F1B53EC90
:102CB000112BFDF781FB41EC100B01F0C5FA51EC33
:102CC000100BFDF78AFC81B2BDF80000814204D1EF
:102CD000002002B0BDEC028B10BD00EE100ABDF862
:102CE0000400F8EE400A00EE101AB8EE400A80EE3A
:102CF000801A00EE100AB8EE400A21EE000ABCEE7F
:102D0000C00A10EE100A84B2042000F03FF828B97F
:102D100021460F2000F03AF80028DAD00120D8E749
:102D2000333333C23433B30100000000E0FFEF401F
:102D30007FB500F01F000B4640F02004B4210020B6
:102D400002F017F8214602F014F8D9B202F011F897
:102D50001D0A294602F00DF88DF80C308DF80D5043
:102D60008DF80E000A22032103A88DE8070006480B
:102D700001232246B4210068FEF7B8FC002800D0E9
:102D8000012004B070BD00003800002038B50C46AA
:102D900005460021FFF7CCFF90B90A20FEF762F844
:102DA00021462846FFF7C4FF50B90A20FEF75AF81B
:102DB00069462846FFF744FFBDF80000A04201D055
:102DC000012038BD002038BD30B587B014216846D9
:102DD000FDF740FA21480024016841F0100101602C
:102DE000016801F010010591016841F08001016066
:102DF000016801F080010591016841F00101016065
:102E0000016801F001010591016841F002010160D2
:102E1000016801F002010591016841F004010160BF
:102E200000680F4D00F00400059000223021284674
:102E3000FEF70BF9F020CDE9000469460948029439
:102E4000FEF722F8302000900120CDE90104694608
:102E500028460394FEF718F807B030BD303802401A
:102E600000000240001002400D4810B50B490160FF
:102E70000C49416000214FF480428160C0E9031297
:102E800041618161C1610162FEF7EAF8002803D067
:102E9000BDE81040FDF7D3BF10BD00000054004056
:102EA000BC020020A08601000D4810B50B4901604E
:102EB0000C49416000214FF480428160C0E9031257
:102EC00041618161C1610162FEF7CAF8002803D047
:102ED000BDE81040FDF7B3BF10BD00000058004032
:102EE00010030020A086010010B596B000240F94B6
:102EF00010941194129413941C2168461494FDF7B5
:102F0000A9F9202107A8FDF7A5F935483349016043
:102F100040F24731C0E901146321C0E90314802164
:102F2000C0E90541FFF782F808B1FDF788FF4FF4CB
:102F300080500F900FA92A48FFF7BAF808B1FDF7A3
:102F40007EFF2748FFF7F4F908B1FDF778FF1394E7
:102F500013A923481494FFF721F808B1FDF76FFF78
:102F60006020CDE9000402940394049405940022A7
:102F700069461B480694FFF773F908B1FDF75FFF38
:102F8000042269461648FFF76BF908B1FDF757FFB1
:102F9000082269461248FFF763F908B1FDF74FFFB1
:102FA0000C2269460E48FFF75BF908B1FDF747FFB1
:102FB0000794089409944FF400500A94CDE90B400B
:102FC00007A907480E94FEF7BFFF08B1FDF737FFCA
:102FD0000348FFF7D9F816B010BD0000000001400B
:102FE0006403002010B58EB000240794089409945F
:102FF0000A940B941C2168460C94FDF72BF9234886
:103000004FF08041016040F24731C0E901144FF4B4
:10301000FA61C0E9031480218161FFF707F808B164
:10302000FDF70DFF4FF48050079007A91748FFF7F1
:103030003FF808B1FDF703FF1448FFF779F908B12D
:10304000FDF7FDFE0B940BA910480C94FEF7A6FFAC
:1030500008B1FDF7F4FE6020CDE9000402940022DF
:1030600069460A480494FFF7FBF808B1FDF7E7FE4C
:10307000042269460548FFF7F3F808B1FDF7DFFEC3
:103080000248FFF781F80EB010BD0000A403002035
:1030900010B58EB000240794089409940A940B94F8
:1030A0001C2168460C94FDF7D5F82348214901609E
:1030B00040F24731C0E9011440F2CF71C0E9031476
:1030C00080218161FEF7B2FF08B1FDF7B8FE4FF431
:1030D0008050079007A91848FEF7EAFF08B1FDF7EE
:1030E000AEFE1548FFF724F908B1FDF7A8FE0B94D2
:1030F0000BA911480C94FEF751FF08B1FDF79FFE94
:103100006020CDE900040294002269460A48049434
:10311000FFF7A6F808B1FDF792FE042269460648BB
:10312000FFF79EF808B1FDF78AFE0348FFF72CF879
:103130000EB010BD00040040E40300200C4810B5A0
:103140000A4901604FF4E1314160002181600C22A5
:10315000C160C0E904128161C161FFF7B3F90028C1
:1031600003D0BDE81040FDF76ABE10BD001001405D
:1031700024040020FEE7000010B500210848FFF7F6
:10318000F3F804210648FFF7EFF808210448FFF799
:10319000EBF8BDE810400C210148FFF7E5B800004E
:1031A00064030020704770477047FEF787BB00003C
:1031B00030B593B030216846FDF74CF814210CA8C7
:1031C000FDF748F819480025016841F08051016079
:1031D000006800F0805011901548016841F480416A
:1031E00001600068022400F48040119001200090EA
:1031F000000401908001CDE9064004200890A82039
:10320000CDE9090407200B906846FEF7DBFC0CA90A
:103210000F2081E831004FF4A0500F90E002109091
:1032200005210CA8FEF7E4FB13B030BD4038024086
:10323000007000400548016841F4700101600349D5
:103240004FF00060803908607047000088ED00E0B2
:10325000F0B50268254C264D264E274F274B4FF0E0
:10326000804CA04209D0604507D0A84205D0B042AA
:1032700003D0B84201D0984204D122F0700E4A68BF
:1032800042EA0E02A0421BD0604519D0A84217D0D6
:10329000B04215D0B84213D0984211D0184DA84270
:1032A0000ED0184DA8420BD0174DA84208D0174D8C
:1032B000A84205D0164DA84202D0164DA84203D10F
:1032C00022F44075CA682A434D6922F080022A43DD
:1032D00002608A68C2620A688262A04201D0984293
:1032E00001D10969016301214161F0BD0000014084
:1032F0000004004000080040000C004000040140B1
:1033000000400140004401400048014000180040D6
:10331000001C00400020004010B501F01F030121F7
:10332000046A99408C430462016A9A401143016225
:1033300010BD10B5846842EA032224F47F440A4396
:103340002243826010BD826822F070020A4342F07C
:103350000701816070470000F0B5026A22F00102A7
:103360000262036A42688469124E24F073050C6895
:103370002C4323F002058B682B430D4DA84201D04E
:10338000B04205D123F00807CB683B4323F0040388
:10339000A84201D0B04205D14D6922F440721543D4
:1033A0008A692A4342608461496841630362F0BDCF
:1033B0000000014000040140F0B5026A22F0100252
:1033C0000262026A436884690D6824F4E64444EAB0
:1033D00005248D6822F0200242EA05120F4D104E9E
:1033E000A84201D0B04206D1CF6822F0800242EA62
:1033F000071222F04002A84201D0B04207D14D6925
:1034000023F4406343EA85038D6943EA85034360FF
:103410008461496881630262F0BD000000000140E0
:1034200000040140F0B5026A22F480720262026A6E
:103430004368C46922F4007224F073050C68124ECC
:103440002C438D6842EA05220E4DA84201D0B042BD
:1034500006D1CF6822F4006242EA072222F4806299
:10346000A84201D0B04207D14D6923F4405343EA4A
:1034700005138D6943EA05134360C4614968C1635C
:103480000262F0BD000001400004014030B5026A54
:1034900022F480520262046A4268C3690D6823F410
:1034A000E64343EA05238D6824F4005444EA0534D6
:1034B000084DA84202D0084DA84204D14D6922F41B
:1034C000804242EA85124260C36149680164046235
:1034D00030BD0000000001400004014010B5036A47
:1034E000046A24F001040462846924F0F00444EACC
:1034F000021423F00A020A438461026210BD10B56F
:10350000036A23F0100303628369046A23F470439F
:1035100043EA023224F0A00343EA0111826101620E
:1035200010BD10B5806B0021C185C184FEF73EFF40
:1035300010BD0168CA6822F49072CA6001684A69C5
:1035400022F001024A61202180F83A10704710B53C
:1035500090F83A10222901D0022010BD8168B1F5FF
:10356000805F11D00169002901681FD0496801F00E
:103570007F03816A4A1C82620B70C18D491E090457
:10358000090CC18518D02BE00269816A002A026803
:10359000526805D0D2B20A80816A491C8162ECE788
:1035A000C2F308020A80816A891CF7E74A68816AC7
:1035B0004B1C83620A70E0E70168CA6822F02002AF
:1035C000CA600168CA6822F48072CA6001684A69E8
:1035D00022F001024A61202180F83A10FFF70CF82E
:1035E000002010BD2DE9F041044600680169E26841
:1035F00021F44051114301612169A068E269084347
:103600006169114308432168CA6849F20C639A430F
:103610000243CA6020684169A26921F440711143E4
:103620004161E069192764253226B0F5004F354A1B
:10363000354920684FF0000806D0884201D09042FA
:1036400036D1FEF77FFA35E0884201D0904202D1B0
:10365000FEF778FA01E0FEF765FA61684A18A0FB08
:10366000070148EB0803FCF7ABFD0146B0FBF5F0A2
:103670000201B1FBF5F06FF01803584301EB800035
:1036800006EBC000B0FBF5F000F0F80002EB4002E2
:10369000B1FBF5F0584301EB800006EBC000B0FB36
:1036A000F5F000F00700216810448860BDE8F08163
:1036B000FEF738FA61688B0F8A00A0FB0701FCF760
:1036C0007FFD0146B0FBF5F06FF01802504301EBAF
:1036D000800006EB0010B0FBF5F000F0F002B1FB4B
:1036E000F5F002EB0012B1FBF5F06FF01803584350
:1036F00001EB800006EB0010B0FBF5F000F00F00CE
:10370000D1E70000001401400010014090F839108A
:10371000212901D0022070478168B1F5805F016ADC
:103720000BD04A1C0262026809785160C18C491EA4
:103730000904090CC1840ED017E009880268C1F39E
:103740000801516001690029016A02D0491C016227
:10375000ECE7891CFBE70168CA6822F08002CA60B6
:103760000068C16841F04001C160002070472DE948
:10377000F041984617460E460446069D1DE0681C1B
:103780001BD02DB1FDF766FCA0EB0800A84214D9B0
:103790002068C16821F4D071C1602068416921F0BE
:1037A00001014161202084F8390084F83A000020AA
:1037B00084F838000320BDE8F0812068006836EA0C
:1037C000000004D00020B842D9D00020F3E7012047
:1037D000F9E700000148FEF7EBBD000024040020DB
:1037E00010B5094800F068FB51EC100BFCF721FF05
:1037F00006490860064800F05FFB51EC100BFCF72F
:1038000018FF0449086010BD0400002020000020BB
:1038100009000020240000202DE9F0413148334CFC
:1038200031490278207800250A54401CC0B220702B
:103830000A78572A53D10A1812F8012C582A4FD166
:103840002B4B01222B261A6091F801C00223294A32
:10385000BCF1410F0AD02D27BCF1420F14D0BCF1AE
:10386000430F1FD0BCF1440F37D129E016706370AD
:10387000401E05E0CE5CD7185B1C07F8016C637036
:10388000DBB28342F6DB28E017706370401E05E070
:10389000CE5CD7185B1C07F8016C6370DBB2834207
:1038A000F6DB1AE016706370401E05E0CE5CD71898
:1038B0005B1C07F8016C6370DBB28342F6DB0CE043
:1038C00017706370401E05E0CE5CD7185B1C07F8CC
:1038D000016C6370DBB28342F6DBFFF781FF25707A
:1038E000BDE8F08110000020A80200203C0000206C
:1038F0000000002004000020FEE71FB582B0002079
:103900008DF80000089C6A46E52102A800F090F8B6
:103910009DF80010217006B010BD1FB584B002A83C
:103920000A9C0DF1100C00909CE80F0000F01DF8AF
:1039300001AA312104A800F07BF800280BD19DF8E2
:1039400004109DF8082001F00101914201D10121EC
:1039500000E00021217008B010BD1FB501228621B2
:10396000684600F0A7F804B010BD1FB582B06A46E3
:10397000302102A8089C00F05BF89DF8001001F0CF
:1039800010018DF80010090903D00021217006B044
:1039900010BD0121FAE700007FB582B000251B4E63
:1039A0008DF804502D243019214610F82D2C02A832
:1039B00000F080F8641CE4B2872CF4D902AC94E8DF
:1039C0000F0000F025F806E001A802AC009094E892
:1039D0000F00FFF7A2FF9DF804000028F4D002AC0E
:1039E0008DF8045094E80F00FFF7B7FF94E80F003C
:1039F00000F016F80922082102A800F05BF8002266
:103A00000B2102A800F056F806B070BD085500085A
:103A10001FB540228721684600F04CF804B010BD65
:103A20001FB500228721684600F044F804B010BD9D
:103A30002DE9F04106460C4815460A0A027041700D
:103A4000014600240222304600F064F96FF00C07B2
:103A500028B901222946304600F04EF900B13C4613
:103A60002046BDE8F0810000640400202DE9F0410B
:103A70000F4C8046080A207016466170002502220D
:103A80002146404600F046F96FF00C0728B90222A3
:103A90002146404600F030F908B13D4604E0607828
:103AA000217800EB012030802846BDE8F08100003D
:103AB0006404002070B5034607480D0A0024057011
:103AC0004170827001460322184600F023F908B1C4
:103AD0006FF00C04204670BD6404002010B586B061
:103AE00000F024F919480024016841F00201016046
:103AF000006800F00200059014481030016841F49D
:103B0000001101600068694600F4001005904FF450
:103B1000407000901220CDE901040420CDE903405B
:103B20000B48FDF7B1F90C480A4901600B49C0E99F
:103B300001144FF48041C0E9034144618461C461D0
:103B40000462FDF78DFA06B010BD00003038024067
:103B5000000402400054004064050020801A060062
:103B600038B5FFF7BBFF02236A460021862000F02C
:103B700075F8002838D19DF80010002934D19DF83F
:103B80000110162930D102236A460021842000F05A
:103B900065F8002828D19DF80010002924D19DF84F
:103BA0000110162920D1114DFF24022328608DF821
:103BB00000408DF801406A461421862000F06CF820
:103BC000002811D18DF80040BF208DF8010002239C
:103BD0006A461421842000F05FF8002804D16FF0B9
:103BE000C020286000F072F838BD000040000020BE
:103BF000194A632853780DD005DCC0B1012809D0DB
:103C0000022804D11AE06C2811D0722816D04FF087
:103C1000FF307047D07820F08000D07011B140F0B4
:103C20008000D070012313218420D21C11E023F0E6
:103C30004000507049B140F0400005E023F08000A2
:103C4000507011B140F08000507001231321862084
:103C5000521C00F021B80000400000207CB5054651
:103C600064201C4616468DF804100090A9B201236A
:103C700001AA0848FDF7A8FB002809D1642104FB2C
:103C800001F00090A3B2A9B232460248FDF7ACFAA7
:103C90007CBD00006405002030B585B01C4613468D
:103CA00005468DF80410224619460DF10500FCF773
:103CB000B8FA6420641C0090A3B2A9B201AA024819
:103CC000FDF782FB05B030BD6405002010B502236E
:103CD000084A12218620FFF7DFFF002808D1054A95
:103CE0000223921C1221BDE810408420FFF7D4BFAC
:103CF00010BD00004000002038B502F10A03009317
:103D000093B28278C06842F001040A462146FDF76A
:103D10006BFA38BD38B502F10A03009393B2847888
:103D20000A46C0682146FDF74FFB38BD2DE9F04F2C
:103D3000DFF80881002687B0D8F80010B24641F0BD
:103D40000201C8F80010D8F80000012200F00200BB
:103D50003B4C1702069039462046FDF776F90122C2
:103D6000550229462046FDF770F94FF44070019046
:103D700011204FF00109CDE9020901A92046FDF704
:103D800083F8AB460025002239462046FDF75DF951
:103D90000120FDF767F8012239462046FDF755F965
:103DA0000120FDF75FF86D1C0A2DECDB594620461B
:103DB000FDF746F918B93046761C0728E2DB59466C
:103DC0002046FDF73DF9002835D1D8F8002042F013
:103DD0000102C8F80020D8F8000001A900F0010095
:103DE0000090202081E80106164C2046FDF74CF893
:103DF0004FF42575012220212046FDF726F92120C8
:103E0000FDF730F8002220212046FDF71EF9212081
:103E1000FDF728F8012220212046FDF716F9212080
:103E2000FDF720F8002220212046FDF70EF9284654
:103E3000FDF718F8DEE707B0BDE8F08F3038024034
:103E400000040240000002400FB4054B10B503A966
:103E5000044A029800F0F6FB10BC5DF814FB000069
:103E6000914D00089802002003B401984100009889
:103E700050EAC12018BF04204A0D18BF40F00100CD
:103E800040F2FF72B2EB515F08BF40F00200012820
:103E900008BF052002B070470907090E002804DB9F
:103EA00000F1E02080F80014704700F00F0000F1EE
:103EB000E02080F8141D704730B583B0044600F050
:103EC000DBFA9FED090B05468DED000B0022214624
:103ED0006846FCF72CFC284600F0E4FA9DED000B48
:103EE00003B030BD00000000000000000000000032
:103EF00070B52DED020B2DED0A8B82B00D98C40F1D
:103F000020F00045AE48854248D3AE48854219D3DB
:103F10000C99C5F31300084309D09DED0C0B02B0BA
:103F2000BDEC0A8B02B0BDE8704000F079BA002CFD
:103F300014BF9FEDA50B9DED0C0B02B0BDEC0A8BE1
:103F400002B070BD9FEDA20B53EC102B9DED0C0B3E
:103F500051EC100BFCF726FD0AD2022000F0A2FA69
:103F600002B0BDEC0A8B02B0BDE8704000F064BA4C
:103F70009FED990B53EC102B9DED0C0B51EC100B9E
:103F8000FCF7F8FC0AD2022000F08CFA02B0BDEC7B
:103F90000A8B02B0BDE8704000F05EBA90489FED19
:103FA00092BBA8425CD29248854219D2914878448B
:103FB00000EBC40090ED000B53EC102B9DED0C0BAF
:103FC00051EC100BFCF7F2F941EC1A0B8A487844DB
:103FD00000EBC40090ED009BC4F10100041B36E02F
:103FE0009FED870B53EC102B9DED0C0B51EC100B40
:103FF000FCF7E2F941EC100B8348784400EBC40075
:1040000090ED001B51EC100B53EC112BFCF72DF92C
:10401000FCF7C4FA0446FCF7B0FA41EC180B9FED2C
:104020007C0B53EC102BFCF7C7F99DED0C1B53ECEC
:10403000112BFCF7BEF941EC1A0B9FED770B51ECFD
:10404000180B53EC102BFCF7B7F941EC190B51ECA2
:104050001A0B53EC192BFCF7A9F9CDE90C011BE065
:104060006F48854217D29FED700B53EC102B9DEDDE
:104070000C0B51EC100BFCF7F8F853EC1B2BFCF776
:1040800091FC08D29DED0C0B53EC1B2B51EC100B4B
:10409000FCF7EBF86EE000249DED0C0B53EC102BBD
:1040A00051EC100BFCF788F941EC180B6048052126
:1040B000B0EE480AF0EE680A784400F035F953ECA7
:1040C000182B51EC100BFCF777F99DED0C1B53EC02
:1040D000112BFCF76EF941EC180B9FED570B5CB3FD
:1040E00053EC182B51EC100BFCF760F99DED0C0B09
:1040F00041EC1C0B53EC182B51EC100BFCF75CF94A
:1041000053EC1C2BFCF7CAF953EC192BFCF751F9B3
:1041100053EC1A2BFCF74AF953EC1B2BFCF749F92B
:10412000CDE900016FF47F70844226DB01EB04507F
:1041300001909DED000B00E753EC102B51EC180B98
:10414000FCF734F99DED0C0B41EC190B53EC182BDB
:1041500051EC100BFCF730F953EC192BFCF79EF9DE
:104160009DED0C1B53EC112BFCF720F953EC1B2B92
:10417000FCF71FF941EC100BDFE608464FF07A51CF
:1041800001EB04519FED2E0B084453EC102B0190D2
:104190009DED000B51EC100BFCF70EF90D4645ECB4
:1041A000100B044651EC100BFFF75EFE042808BF0D
:1041B00000F052F945EC104BBFE600000000000093
:1041C000422E86400000F07F00000000000000004A
:1041D000EF39FAFE422E864051302DD5104987C066
:1041E000422ED63F00000000000000000000F03F1B
:1041F000B2A2F03FC6150000B61500000000000096
:10420000FE822B654715F73F6A150000000000008D
:104210000000E0FE422EE63F763C7935EF39EA3D7C
:104220000000303E000000009C7500883CE4377EB2
:10423000DC1400000000000000000000000000404E
:10424000000000000000700110B52DED020B2DEDF7
:10425000088B84B09DED0C0B51EC100BFCF72EFB82
:1042600041EC180B9DED0C0B53EC182B51EC100B83
:10427000FCF79CF841EC190B0D989FED290B10F001
:10428000004F53EC102B51EC190B9FED21AB9FED20
:1042900022BB0ED0FCF76EFB0ED953EC1B2B51EC5E
:1042A000190BFCF77FFB1CD214E000BF41EC180B8C
:1042B00017E0FCF75FFB06D253EC1A2B51EC180BFE
:1042C000FCF774F8F2E753EC1B2B51EC190BFCF7DD
:1042D00069FB06D853EC1A2B51EC180BFBF7C5FF02
:1042E000E4E78DED028B9DED0C0B18EE901A10EEAD
:1042F000900A8DED000B61F31E0003909DED020B03
:1043000004B0BDEC088B02B010BD0000000000003E
:10431000000000000000F03F000000000000E03F4F
:10432000000000000000E0BF70B504462DED028BD8
:104330004D1E00EBC500B0EE408AF0EE608A90EDB5
:10434000000B35F0060017D053EC182B51EC100B76
:10435000FCF732F841EC100B6D1E04EBC50090ED3C
:10436000001B51EC100B53EC112BFBF77EFF41ECC3
:10437000100B35F00600E7D1022D36D0042D1CD0ED
:10438000062D1CBFBDEC028B70BD53EC182B51ECFD
:10439000100BFCF711F894ED0A1B53EC112BFBF7F3
:1043A00064FF53EC182BFCF707F894ED081B53EC53
:1043B000112BFBF75AFF41EC100B53EC182B51EC6F
:1043C000100BFBF7F9FF94ED061B53EC112BFBF7D9
:1043D0004CFF53EC182BFBF7EFFF94ED040B53EC61
:1043E000102BFBF742FF41EC100B53EC182B51EC58
:1043F000100BFBF7E1FF94ED021B53EC112BFBF7C5
:1044000034FF53EC182BFBF7D7FF94ED001B53EC54
:10441000112BFBF72AFFBDEC028B41EC100B70BD9A
:1044200010B553EC102B51EC100BFBF71EFF41ECB9
:10443000100B10BD000000009FED050B10B553ECF4
:10444000102B51EC100BFBF7B7FF41EC100B10BD1C
:1044500000000000000000709FED050B10B553EC4C
:10446000102B51EC100BFBF7A7FF41EC100B10BD0C
:1044700000000000000000100148006870470000C4
:10448000A402002002E008C8121F08C1002AFAD1C5
:1044900070477047002001E001C1121F002AFBD1C4
:1044A000704700000149086070470000A402002026
:1044B0002DE9FF5F82B00021DDE90430020DDDF857
:1044C00040B0034318D044F61050A2F2FF324243EA
:1044D0001514119801281FD0A5EB0B00401C5FEAB2
:1044E000000A4FF000064E4FDFF83891B0465046B4
:1044F00015D5CAF1000413E0119801244AA301283C
:1045000001D16FEA0B010298119AC0E90031C0E9AC
:10451000024206B0BDE8F09FCBF10000DFE70446A1
:104520000021404A491842EB0450CDE9001012E046
:10453000E00707D032463B4640464946FBF73CFF82
:104540008046894632463B4610461946FBF734FF03
:1045500006460F466410002CEAD1DDE90401DDE9CE
:104560000023BAF1000F06DAFBF726FF42464B465E
:10457000FBF722FF05E0FBF791FF42464B46FBF7B6
:104580008DFF04460E460022284BFCF70BFA03D899
:104590004FF0FF30014607E00022254B2046314610
:1045A000FBF763FEFCF7CEF9102409E0002C0ADBD0
:1045B0000A220023FBF704FE039B30321A55641EC7
:1045C00050EA0102F2D1641C039AC4F111031444AD
:1045D000119A012A03D0012208430DD10AE00843B1
:1045E00004D000204FF0110B119072E7A3EB0B05E4
:1045F0006D1E0DE05B4504DD4FF0000205F1010585
:1046000004E003DA4FF00002A5F10105002AECD026
:1046100002981199C0E90231C0E9004579E700002C
:10462000000014400000F03F300000000000F043A4
:104630000000E03F30380A2801D2012070470020F6
:10464000704700002DE9FF4F95B09B46894606460E
:1046500000250FE2252877D100242746F84A0121BA
:10466000059400E0044316F8013F203B01FA03F0F3
:104670001042F7D130782A2811D06FF02F0330780C
:10468000A0F13002092A16D8059A44F0020402EB80
:10469000820203EB42021044761C0590EFE759F8C2
:1046A000042B0592002A03DA504244F4005405908A
:1046B00044F00204761C30782E2816D116F8010F2B
:1046C00044F004042A280DD06FF02F023078A0F1B6
:1046D0003003092B09D807EB870302EB4303C71804
:1046E000761CF3E759F8047B761C30786C280FD0E1
:1046F00006DC4C2817D068280DD06A2814D104E0B5
:10470000742810D07A280FD10DE044F400140AE088
:1047100044F4801401E044F440147278824202D1DF
:1047200004F58014761C761C307866280BD013DCD8
:10473000582877D009DC002875D04528F6D04628BF
:10474000F4D047281AD19DE118E0632835D06428B9
:1047500079D0652812D195E1702873D008DC6728DC
:10476000F1D069286FD06E280DD06F2806D1B5E042
:1047700073282CD0752875D0782874D05A4617998C
:1047800090476D1C75E1C4F30250022809D003283C
:104790000DD0D9F8001004280DD00D6009F10409DE
:1047A00067E1D9F80010EA17C1E90052F6E7D9F835
:1047B00000100D80F2E70D70F0E719F8041B8DF87A
:1047C000001000208DF80100EA46012003E059F8AE
:1047D00004AB4FF0FF3061074FF0000102D40DE051
:1047E00008F101018846B9420FDA8045F8DB1AF872
:1047F00008100029F4D108E008F10101884681423F
:10480000FADB1AF808100029F6D105985B46A0EBF0
:10481000080721463846179A00F094FA284400EB1E
:10482000080507E04DE029E10DE01AF8010B5A46B2
:1048300017999047B8F10108F7D25B4621463846F0
:10484000179A13E142E00A220092C4F302524FF099
:10485000000A022A08D059F804CB032A4FEAEC7167
:104860000AD00DE029E02AE009F1070121F0070252
:10487000F2E802C1914609E00FFA8CFC4FEAEC71B4
:10488000042A03D14FFA8CFC4FEAEC71002907DAB5
:104890000A460021DCF1000C61EB02012D2202E04E
:1048A000220504D52B228DF80420012203E0E20723
:1048B00001D02022F7E7904659E00A2102E01022B9
:1048C0000DE010214FF0000A00910BE010224FF094
:1048D000000A44F004040827009203E008224FF085
:1048E000000A0092C4F30252022A05D059F804CB00
:1048F0000021032A08D009E009F1070121F007028D
:10490000F2E802C1914605E01FFA8CFC042A01D1AD
:104910000CF0FF0C4FF00008220728D5702806D0B5
:10492000009B83F0100353EA0A0305D00EE04022F7
:104930008DF80420012208E05CEA010206D0302252
:104940008DF804208DF8050002229046009B83F02C
:10495000080353EA0A030AD15CEA010201D16207A3
:1049600005D530228DF804204FF001087F1E58280D
:1049700004D034A003900EA802900DE036A0F9E711
:1049800053466046009AFBF71BFC84460398825C02
:104990000298401E029002705CEA0100F0D1029879
:1049A00006A9081A00F1200A600702D524F4803411
:1049B00000E00127574502DDA7EB0A0000E00020D8
:1049C00000EB0A01009005984144401A0590E0036D
:1049D00006D45B462146179A059800F0B3F90544C2
:1049E000002706E001A85A46C05D179990476D1C44
:1049F0007F1C4745F6DBE0030CD55B462146179A42
:104A0000059800F09FF9054404E030205A461799B4
:104A100090476D1C0099481E00900029F5DC08E0C5
:104A2000029802995A460078491C029117999047BA
:104A30006D1CBAF10001AAF1010AF1DC65E1000088
:104A40000928010030313233343536373839616264
:104A50006364656600000000303132333435363728
:104A600038394142434445460000000000F058F9FF
:104A70000544761C307800287FF4ECAD19B0284648
:104A8000BDE8F08F620700D4062709F1070222F083
:104A9000070CFCE80223E14603F000485FEA080C3B
:104AA00002D00FF2702C0DE05FEA045C02D50FF229
:104AB000682C07E05FEAC47C02D00FF2602C01E0B2
:104AC000AFF2700C4FF0FF3823F00043CDF850C028
:104AD00065280CD006DC452809D046281DD047287B
:104AE0003DD13DE0662818D067287ED138E000210E
:104AF000112F01DB112000E0781CCDE9000106A98F
:104B00000EA8FFF7D5FCDDE90F010E9A03910021F5
:104B1000009207F1010A04914DE04FF00040009728
:104B2000CDE9011006A90EA8FFF7C2FCDDE90F02CE
:104B300003920E9B11990022DDF80CA000930492C1
:104B400011B9791C00EB010AB7EB0A0004D4C0F1DB
:104B5000FF3007F1010A0490AAEB0700019044E03E
:104B6000012F00DA01270021112F01DD112000E0C3
:104B70003846CDE9000106A90EA8FFF799FCDDE94A
:104B80000F010E9A0391002104910092BA46210769
:104B90000CD40399514500DA8A46BAF1010F05DDBC
:104BA000009AAAF10101515C302908D0B84202DA1A
:104BB00010F1040F06DA0121CDE9011015E0AAF188
:104BC0000101E9E7002805DC049901440491AAEBFE
:104BD000000102E0411C514500DD8A460499401A5B
:104BE000401C01904FF000400290200704D401982F
:104BF000504501DBCDF8048000208DF84F0002986D
:104C00000DF14F07B0F1004F25D02B200E900298E8
:104C10004FF0020800280CDA404202902D200E903E
:104C200007E00A210298FBF720FD3031029007F8D7
:104C3000011DB8F10001A8F10108F2DC029800287A
:104C4000EFD1791E0E980870307800F0200040F007
:104C5000450007F8020D12A8C01B00F107081498C0
:104C6000007800B1012000EB0A01019801EBE0712E
:104C700005984144401A401E0590E00306D45B4667
:104C80002146179A059800F05DF8054414980078BD
:104C900018B15A46179990476D1CE00324D55B461E
:104CA0002146179A059800F04DF805441CE0049839
:104CB000002807DBDDE90301884203DD0098405C42
:104CC000179901E0179930205A469047049805F14A
:104CD0000105401C04900198401E019004D12E2033
:104CE0005A46179990476D1CBAF10001AAF1010AC2
:104CF000DDDC05E017F8010B5A46179990476D1C4B
:104D0000B8F10001A8F10108F4DC5B462146179ACE
:104D10000598ABE62D0000002B00000020000000ED
:104D20002DE9F041044600251E461746880404D4A8
:104D300005E039462020B0476D1C641EF9D5284691
:104D4000BDE8F0812DE9F041044600251E4690465D
:104D5000C80301D5302700E02027880404D505E0EA
:104D600041463846B0476D1C641EF9D52846BDE85B
:104D7000F0814840002102064FEA40604FEA10608F
:104D800001D580F00700491CC9B20829F3D3704748
:104D900038B504468DF800003223012269460248E6
:104DA000FDF73EFC204638BD240400202DED028B8B
:104DB000FCF78CFDFEF7FCF9FEF706F8FEF794F819
:104DC000FEF7BCF9FEF750F8FEF70CF9FEF76CF8A9
:104DD000FEF75EF9FEF7D0F91748FDF72BFF9FEDC0
:104DE000170AFDF749FF012215491648FDF7DAFBBE
:104DF00000F030FB00F06CF800F0F0F9104DDFED42
:104E0000128A2D1D2C1DB3EE0C8A4FF4FA760C4934
:104E1000091D081D00F076F884EC028A2868FBF76B
:104E2000F5FB41EC100B09A053EC102BFFF70CF82D
:104E30003046FCF717F8EAE710030020F6287C3F1D
:104E4000100000202404002000001643252E3266A6
:104E500000000000F0B50B30154D20F007010024D4
:104E6000144A0FE003688B420BD38B4205D95E1ABC
:104E700043184768C3E9006700E04368136002C055
:104E800004E0021D10680028ECD12046002802D161
:104E9000286808B10020F0BD064A07481060074A9C
:104EA000121A22F00702C0E9002401202860D7E787
:104EB000A00200209C020020DC050020D807002072
:104EC0000249AA200968886370470000A4030020F3
:104ED00010B500210648FDF747FA04210448FDF704
:104EE00043FA00F007F8BDE81040FFF7E9BF000003
:104EF000A40300200249C8200968486370470000E5
:104F0000A40300202DE9F35F66482DED048B0146D4
:104F1000426809681368022B0DD002EB810252F837
:104F2000042C012A07D060A0FEF78EFF0120BDEC03
:104F3000048BBDE8FC9F00240029F8DDDFED608ACA
:104F40004FF0100B4FF0080A0025064629E0002C10
:104F5000FAD000259FE0049850F82500FBF756FB97
:104F600041EC100B0121284600F0ACF8B06850F875
:104F7000240000EB451080ED000BB06850F82410C1
:104F80000BEB4510084490ED001B012000F03AF9AE
:104F9000B06850F824100AEB451008446D1C80EDF1
:104FA000000B706850F82400A842D4DCB046641CA2
:104FB000D8F8001040468C42C9DBB8E700EB84000B
:104FC000B0EE688A002650F8047CD8F8089025E0F6
:104FD00009EB8400182150F8040C01EB46114158EC
:104FE00001EBC50191ED000B0AEB4611084453ECAF
:104FF000102B90ED001B51EC110BFBF7DDF941EC90
:10500000190B18EE100AFBF701FB53EC192BFBF7F9
:105010002CF9FBF70EFB08EE100A761CB742D7DC22
:1050200018EE100AFBF7F2FA41EC100B59F82400C5
:10503000464600EB451080ED000BD8F80000401EFE
:10504000844213DAB06850F824100BEB4510084482
:1050500090ED001B012000F0D5F8B06850F8241046
:105060000AEB4510084480ED000B13E0D8F8080067
:105070000AEB451150F824000844012180ED000B93
:10508000284600F067F851EC100BFBF7D2FA0599AF
:1050900041F825006D1CD8F8040050F82420AA42DD
:1050A00085DD8BE768000020CAE4C8EBBBF2CAE4E8
:1050B000B3F6B5C4CAFDC1BFB2BBD5FDC8B70A00BF
:1050C0000000000010B50C461D492DED048B01EBCE
:1050D000C000B0EE409A90ED010A90ED001AF0EE9B
:1050E000609A11EE100A30EE418AFBF78FFA53EC0A
:1050F000192BFBF75EF941EC190B18EE100AFBF7C0
:1051000085FA41EC100B51EC190B53EC102BFBF70B
:10511000C5F941EC100B012C0FD151EC100B9FED98
:10512000091B53EC112BFBF747F99FED081B53ECC0
:10513000112BFBF73BF941EC100BBDEC048B10BDC0
:10514000C805002000000000000000400000000032
:105150000000F03F10B51C4A01292DED048B02EB35
:10516000C000B0EE408A90ED010A90ED009AF0EE9A
:10517000608A70EE499A0FD151EC180B9FED130B1A
:1051800053EC102BFBF771F89FED121B53EC112B16
:10519000FBF712F941EC180B19EE900AFBF736FAFF
:1051A00053EC182BFBF708F941EC180B19EE100A19
:1051B000FBF72CFA53EC182BFBF757F8BDEC048BDC
:1051C00041EC100B10BD0000740000200000000036
:1051D0000000F03F000000000000E03F10B500F0CC
:1051E00075F8002803D002A0FEF72EFE022010BDA5
:1051F000C9F1BEADCDF8C2E7BDA8C1A2B4EDCEF3F2
:105200000A00000010B504462DED048B53EC112B61
:1052100051EC100B9FED258BFBF7C8F841EC100B00
:105220009FED249B14B1012C17D038E051EC100BEA
:1052300081F0004141EC100BFEF75AFE53EC192BA4
:1052400051EC100BFBF711F841EC100B51EC190B62
:1052500053EC102BFBF722F91FE09FED181B51ECCC
:10526000100B53EC112BFBF7A7F841EC100BFEF7DA
:105270003FFE53EC192B51EC100BFAF7F6FF41EC03
:10528000100B53EC102B9FED0F0B51EC100BFBF799
:1052900005F953EC192BFBF789F841EC180BB0EE2C
:1052A000480AF0EE680ABDEC048B10BD0000000057
:1052B00000000000000000000000F03F00000000BF
:1052C000000000C000000000000000402DE9F04791
:1052D000DFF87891002599ED000B51EC100BFBF7EE
:1052E0005DF9A9F118084746C8F8000001248000BC
:1052F000FFF7B0FD786006463F680BE009EBC4009D
:1053000090ED000B51EC100BFBF748F946F8250027
:10531000641C6D1CBD42F1DBD8F8000046468000DD
:10532000FFF798FD0025B0600BE0D8F80400464672
:1053300050F825004001FFF78DFDB16841F82500C8
:105340006D1C3068B0468542EFDBDFF804A1002514
:105350004FEA090606EBC40090ED000B51EC100B70
:10536000FBF767F90AEBC507641C386006EBC4005D
:1053700090ED000B51EC100BFBF75BF9641C6D1CFE
:105380007860022DE6DB06EBC400B14690ED000B21
:1053900051EC100BFBF74DF92C4D641C0C3D2860B3
:1053A00006EBC40090ED000B51EC100BFBF741F93C
:1053B000686000254FF0180A4646641C3FE000274D
:1053C00037E03168491E8D4232D000EB85004068DD
:1053D000C000FFF73FFDB1680AEB471251F82510F6
:1053E0008850D6E9013C002049460DE001EBC40895
:1053F00098ED000B5CF8258058F8028008EBC00897
:10540000401C88ED000B641C03EB8508D8F8048071
:105410008045EBDC09EBC400102190ED000BB06877
:1054200001EB4711641C50F82500084480ED000B87
:105430007F1C706850F82510B942C2DC6D1C3068C2
:105440008542BCDB0020BDE8F08700008000002022
:10545000C8050020F8B5FEF783FB234D2148234CF7
:10546000E8605220A870012060700021FEF7C0FBA8
:10547000E0600220FBF7F6FC01216078FEF7B8FB44
:10548000E0600220FBF7EEFC40F20F16A21C314652
:105490002846FEF7CDFAE060A21C711C2846FEF7F4
:1054A000C7FAE060A21D31462846FEF7DFFA26461D
:1054B000E06008E0009695E80F00FEF71EFAE06055
:1054C0000220FBF7CFFC20780028F3D095E80F00EE
:1054D000FEF762FAE06095E80F00FEF799FAE060E7
:1054E000F8BD0000BC020020B805002054000020D8
:1054F0000000000000000000010203040607080984
:105500000000000001020304000000010200020884
:10551000000810010100000000FF000F0000000063
:1055200000200B0000020A2100000500000000C856
:10553000000038FF010008000001CC0F01F10D014F
:1055400068008008B8000000000F8900000000001B
:105550000000010F0D0E0E000002C7FF9B000000AF
:105560000100000000000000000000000000E03F1B
:10557000000000000000E0BF0000E0FE422EE63F19
:105580000000E0FE422EE6BF763C7935EF39EA3D79
:10559000763C7935EF39EABD3E5555555555C53FF1
:1055A00093BDBE166CC166BF2CDE25AF6A56113F97
:1055B000F16BD2C541BDBBBED0A4BE726937663E99
:1055C000DDDDDDDDDCBBBBDDDDDDDDDDDDDDDDDD50
:1055D0009888888888888888777777777788888890
:1055E0008555555666666666666666666668888828
:1055F0008333333222222222222222222228888D21
:105600002056000800000020A8020000E40D000859
:1056100018580008A8020020300D0000944400082B
:10562000012832018210031124F45A07206A172D31
:10563000012D73104059085A20085A080863F03F9A
:105640004A34105B80431859105B60681859101079
:10565000F9C04340D3CA733392F3A03FB69F8CF195
:1056600061F6D7BF81414E6FB1685BBF50E9799A4F
:10567000404FCFBFA16B3E3246B9BABFA84A84DBC8
:1056800014EECD3F8ED5FF9CF652AEBF26A62CBFA2
:10569000E3E6E63F477E37BCA47AE73F9B6D34A143
:1056A000C529A3BFDC2083AA0B57B43F51B737E805
:1056B000E013D9BF921914724AE5BDBF2BE0F9A0DF
:1056C000C2ECD2BF2C7388F2E45EE0BF4B1F99920C
:1056D000D502EABF7F963A0A0894C3BF7ECA104B30
:1056E000F35CCABF7590D78349F1D9BFD4DC440CB1
:1056F000BF84D83F187AE5F6A2E8D6BF06472CD675
:105700002E15E4BF7040AE816B76C6BFD6847A1B7F
:1057100017E5A43F6307F8E2491AD3BF9D4C58F23E
:10572000E335DCBF92F71EEC1C1CADBF75C35B8C70
:10573000267CDCBF659A3CA751AFDBBF4080D271AD
:10574000B179A53F67A649639300CB10D1BF129CE6
:105750005D6BAD77DFBFF7A864A5EEAFD33F420224
:105760002DFA967BD63FEE71CF880CCAE5BF302567
:10577000794BC588E0BFD550F6D88E90AA3F473602
:105780003E30D3B8CCBF0299DF61C11AD6BF4F17E4
:1057900010F7E4A3853FD1D67734C427D6BFDC7A8F
:1057A000F2559778C8BFF6029AA5F022E4BF31E21D
:1057B0002B4F5AD7D8BFE92F70502DE8D1BFB83E34
:1057C000490DAF1CB03FAC3DAA693010E03F61BB52
:1057D00062E34DC08FBFE48BEE07D985C83F07F069
:1057E000F53967F9E33F6AFD67AC8146FE3FB6696C
:1057F0004BA11C9AC6BF897D9FFD8A6DE93F74BB92
:10580000D1A66E577D3F62250FD97A65C53FC42664
:08581000AE3ADDFFD33F0000BA
:040000050800018965
:00000001FF
