:020000040800F2
:10000000000600209D0100084B210008A51C0008E7
:10001000BD200008550A0008092A00080000000059
:100020000000000000000000000000004F21000858
:100030005B0A0008000000004D210008452200086E
:10004000B7010008B7010008B7010008B7010008B0
:10005000B7010008B7010008B7010008B7010008A0
:10006000B7010008B7010008B7010008B701000890
:10007000B7010008B7010008B7010008B701000880
:10008000B7010008B7010008B7010008B701000870
:10009000B7010008B7010008B7010008B701000860
:1000A000B7010008B7010008B7010008B701000850
:1000B000B7010008B7010008B7010008B701000840
:1000C000B7010008B7010008B7010008B701000830
:1000D000B7010008E5280008B7010008B7010008CB
:1000E000B7010008B7010008B7010008B701000810
:1000F000B7010008B7010008B7010008B701000800
:10010000B7010008B7010008B7010008B7010008EF
:10011000B7010008B7010008B7010008B7010008DF
:10012000B7010008B7010008B7010008B7010008CF
:10013000B7010008B7010008B7010008B7010008BF
:10014000B7010008B7010008B7010008B7010008AF
:10015000B7010008B7010008B7010008B70100089F
:10016000B7010008B7010008B7010008B70100088F
:10017000B7010008B7010008B7010008000000003F
:10018000B7010008B7010008DFF80CD000F05AFAF8
:1001900000480047512F000800060020064880470D
:1001A00006480047FEE7FEE7FEE7FEE7FEE7FEE75C
:1001B000FEE7FEE7FEE7FEE7CD2200088901000822
:1001C0002DE9F05F0546002092469B46884606468C
:1001D000814640241BE0284641464746224600F01F
:1001E0003EF953465A46C01A914110D3114618465B
:1001F000224600F025F92D1A67EB01084F462246EA
:100200000120002100F01CF917EB00094E41201ECF
:10021000A4F10104DFDC484631462A464346BDE8E6
:10022000F09FD2B201E000F8012B491EFBD27047CB
:100230000022F6E710B513460A4604461946FFF7B2
:10024000F0FF204610BD2DE9FE4F81EA030404F0C3
:10025000004421F0004100944FF0000B23F00043D4
:1002600050EA01045ED052EA03045BD0C3F30A549F
:10027000C1F30A552C44A4F2F3340194A0FB0254B8
:10028000C1F3130141F48011C3F3130343F480134A
:1002900001FB024400FB034E840A970A44EA81549E
:1002A00047EA8357A4FB076802958D0A05FB07857B
:1002B0004FEA932C04FB0C542705029D4FEA065885
:1002C00047EA1637B5EB08056EEB070C870E920E62
:1002D00047EA811742EA8312A7FB0201B6EB0B0142
:1002E00064EB00042B0D43EA0C335E1844EB1C5006
:1002F000DA465146E7FB0201C5F313044FEA0B331C
:1003000043EA14534FEA0432019C43EA0603A4F182
:100310000C040294009CCDE900B400F045F903B050
:10032000BDE8F08F00200146F9E72DE9F04D81EAA4
:10033000030404F0004B21F0004514464FF0000A7E
:1003400023F0004150EA050220D054EA01021DD0FA
:10035000C5F30A570246C5F31303C1F31300C1F3F3
:100360000A5640F4801543F48013A7EB0608101BCF
:10037000D64608F2FD3873EB050002D308F10108F8
:1003800001E092185B41B8F1000F03DA002001464A
:10039000BDE8F08D00204FF48011064684460EE043
:1003A000171B73EB050705D3121B63EB050306430D
:1003B0004CEA010C49084FEA300092185B4150EAC0
:1003C0000107EDD152EA030012D082EA040083EA69
:1003D0000501084305D0101BAB4106D201220023C2
:1003E00006E000224FF0004302E06FF001025310DC
:1003F0001AEB06004CEB085110EB0A0041EB0B0125
:10040000BDE8F04D00F0C1B801F0004330B421F078
:10041000004150EA010206D00A0DA2F56072C1F354
:100420001301002A02DC30BC00207047440F44EA6C
:10043000C104C100E01830BC00EBC25000F06EB83F
:10044000202A04DB203A00FA02F100207047914094
:10045000C2F1200320FA03F3194390407047202A89
:1004600004DB203A21FA02F00021704721FA02F35E
:10047000D040C2F120029140084319467047000065
:100480000FB4002300B589B00CA900910B996FF04F
:100490000042CB601E4B06931E4B07930423CDE90D
:1004A00001321D4A089202466B46002000F076F9A0
:1004B00009B05DF814FB70B586B006464FF0FF300A
:1004C0000091CDE90101002015460C46049032460A
:1004D000694604A8FFF7D4FF02460498211825B105
:1004E00008B1084600E020462860049800280DD096
:1004F000002A02DD0098884208D0081B0094CDE94C
:1005000001043246694604A8FFF7BAFF06B070BD81
:10051000D5090008F3090008690600080029A8BFEA
:100520007047401C490008BF20F00100704710B41C
:10053000B0FA80FC00FA0CF050EA010404BF10BCD1
:10054000704749B1CCF1200421FA04F411FA0CF1FE
:1005500018BF012121430843A3EB0C01CB1D4FEA37
:1005600000614FEA102042BF002010BC704700EB32
:10057000C35010440029A4BF10BC7047401C490060
:1005800008BF20F0010010BC704710B5141E73F1B5
:10059000000408DA401C41F1000192185B411A4343
:1005A00001D120F0010010BD2DE9F04D92469B468F
:1005B00011B1B1FA81F202E0B0FA80F22032904635
:1005C000FFF73EFF04460F4640EA0A0041EA0B01EE
:1005D00053465A46084313D0114653EA010019D036
:1005E000C8F140025046FFF73AFF05460E46504616
:1005F00059464246FFF724FF084305D0012004E096
:1006000020463946BDE8F08D0020054346EAE076F5
:100610002C4337430A986305E40AA0EB0800002244
:10062000FD0A44EA47540A3002D500200146E9E7B2
:10063000010510196941DDE9084500196941BDE866
:10064000F04DA2E7064C074D06E0E06840F00103DC
:1006500094E8070098471034AC42F6D3FFF798FDB2
:100660003830000858300008C0B24FF4F05100F0A4
:10067000D1B900002DE9FF4F087883B09946FF28D3
:1006800005D0491C2D2804D00024002008E00020BB
:100690000BE00124F9E700EB800003EB4000491C6C
:1006A0000B78FF2BF7D104B140420023029314785A
:1006B00019461D462D2C01D02B2C04D1521C2D2C5B
:1006C00013D000240294AA461478FF2C0FD00A25D8
:1006D000A3FB057801FB05814FF0000C03FB0C1117
:1006E000521CE3194AEB0101EEE70124EAE78144D9
:1006F00053EA010002D019F5C87F06DA03980021F9
:10070000C0E9001107B0BDE8F08F0025AE4E2F46BE
:10071000DFF8B882184600F091F9CDE90001B9F18F
:10072000000002DAC9F1000400E004460023A74AF1
:100730001AEB030B42EB045A12E0E00707D02A46FB
:10074000334638464146FFF77EFD074688462A462F
:10075000334610461946FFF776FD05460E466410EF
:10076000002CEAD1DDE90001B9F1000F5A465346E9
:1007700006DAFFF7DAFD3A464346FFF7D6FD05E015
:10078000FFF761FD3A464346FFF75DFD029A0AB165
:1007900081F00041039AC2E90001B3E72DE9FF4F60
:1007A0001F468DB0D7E901464FF0FF382E20454651
:1007B0004FF000090B90B9696D1C0E988847396A93
:1007C000824688470028F6D1BAF1FF3F0AD024F4C8
:1007D000D064002E11DDBAF12B0F08D0BAF12D0F25
:1007E0000BD102E0404611B08DE744F48064B96952
:1007F0006D1C0E9888478246761E6946600501D5B5
:100800002D2000E02B208DF8000001F1010B0DF1EF
:10081000200809E0B9696D1C0E98884782460F9838
:1008200044F40074761E0560002E02DDBAF1300F2C
:10083000F0D00B998A453ED144F0800406E00F9930
:10084000681CA9F1010944F400740860B9696D1CC1
:10085000761E0E98884782463028F0D02BE00B9900
:100860008A4505D1200603D444F08004761E18E0A2
:10087000504602F025F908B30DF11301761E44F439
:1008800000748B4508D2AAF130000BF8010B20064A
:1008900007D5A9F1010003E0200602D409F1010007
:1008A0008146A00502D50F99681C0860B9696D1CC6
:1008B0000E9888478246002ED1DC53E0002E51DD91
:1008C000BAF1650F02D0BAF1450F4BD1A00549D559
:1008D000B9696D1C24F44074761E0E9888478246D0
:1008E000002E0CDD2B2804D0BAF12D0F07D144F4D3
:1008F0008074B9696D1C0E9888478246761EE005A3
:1009000001D52D2100E02B2108F8011BCDF82C800A
:1009100021E00DF12901761E44F4007488450CD2C3
:10092000AAF1300010F0FF0088F8000002D10B9906
:10093000884509D908F1010806E0E00501D52448F9
:1009400001E042F20F708146B9696D1C0E9888472C
:1009500082460F980560002E04DD504602F0B0F884
:100960000028D6D1F9690E988847FF208BF800003F
:1009700088F800000020069007904B466A4608A9B8
:1009800006A8FFF777FEA00502D46FF001002AE762
:1009900014F0240F0AD0E00714D1DDE906123868FC
:1009A000031D3B600068C0E900120BE0DDE90601B1
:1009B000FFF72AFD0146E00704D13868021D3A60BE
:1009C0000068016028460EE7000014400000F03F78
:1009D000F1D8FFFF426842B1016811F8013B23B131
:1009E000521EC0E90012184670470121C160881EDE
:1009F000704742685AB1C368016843B983688B4243
:100A000005D0491E521CC0E90012002070474FF06B
:100A1000FF3070477F2801D9002208E0064A02EB28
:100A20005002C007127800D1120902F00F02012013
:100A30009040084070470000F82F00080EB540F2C3
:100A4000334202920022CDE900221346FFF7ACFDAB
:100A500003B000BDFEE701F0B1BD7047704790F8EC
:100A60003510022903D080214165012070470521FE
:100A700080F835100068016821F001010160002054
:100A8000704700002DE9F84F00224FF001080325C0
:100A90004FF00F0E0B6808FA02F42340A3426ED108
:100AA0004E68012E05D0022E03D0112E01D0122E39
:100AB00012D186684FEA420C05FA0CF7BE43CF68A4
:100AC00007FA0CF7374387604668A6430C79C4F3EE
:100AD0000014944034434460C668570005FA07FC8C
:100AE0008C6826EA0C06BC403443C4604C68022C77
:100AF00001D0122C13D1D40800EB8404A346D4F8FF
:100B0000209054074FEAD46A0EFA0AF629EA060939
:100B10000E6906FA0AF646EA0906CBF8206006686E
:100B20000C7926EA0C0604F00304BC40344304604C
:100B30004C68E40065D5364C266846F4804626604D
:100B4000246822F0030604F480440094314C3444B9
:100B5000A446D4F808489607370F0EFA07F6B443B0
:100B60002D4EB04201D1002624E02C4EB04201D1DE
:100B700001261FE02A4EB04202D102261AE040E0D0
:100B8000284EB04201D1032614E0274EB04201D1D5
:100B900004260FE0254EB04201D105260AE0244E7E
:100BA000B04201D1062605E0224EB04201D107260F
:100BB00000E00826BE402643CCF808681E4E346884
:100BC0004F689C43FF0300D51C4334601A4C241D1E
:100BD00026684F689E43BF0300D51E432660164E0D
:100BE000083634684F689C43FF0200D51C433460CC
:100BF000114E0C3634684F689C43BF0200D51C432D
:100C00003460521C102AFFF445AFBDE8F88F000095
:100C1000443802400030014000000240000402401D
:100C200000080240000C0240001002400014024084
:100C300000180240001C0240003C014000690840CE
:100C400000D0012070470AB1816170470904FBE7B9
:100C500001488068704700002000002070B5040043
:100C600025D094F83D00002520B984F83C5020465A
:100C700000F0B8F8242084F83D002068016821F0D5
:100C8000010101602068016841F4004101602068B1
:100C9000016821F40041016000F028FA4D4A6168C2
:100CA000914201D84C4900E04C49884201D20120D0
:100CB00070BD4B492368B0FBF1F15E6826F03F063A
:100CC0000E435E606368934206D94FF496735943AE
:100CD0004FF47A73B1FBF3F12368491C1E6A26F0C6
:100CE0003F06314319626168914210D84900401EA5
:100CF000B0FBF1F2521CC2F30B02042A01D2042011
:100D000022E0B0FBF1F0401CC0F30B001CE0A26835
:100D1000F2B301EBC10303EB0116431EB3FBF6F381
:100D20005B1C43F480431B0549D092B301EBC10225
:100D300002EB0111401EB0FBF1F0401CC0F30B00B0
:100D400040F4804040F400402168CA694CF6FF73CB
:100D50009A431043C861D4E9071001432068026830
:100D600022F0C00211430160D4E90301014320686D
:100D7000826848F2FF339A4311438160D4E9050148
:100D800008432168CA6822F0FF021043C86001E0EE
:100D90000EE016E02068016841F001010160256461
:100DA000202084F83D00256384F83E50002070BD6B
:100DB00001EB4106431EB3FBF6F35B1CB3E70120D6
:100DC000C2E701EB4101401EB0FBF1F0401CC0F353
:100DD0000B00B7E7A086010080841E0000093D00DB
:100DE00040420F00F0B587B0044614216846FFF773
:100DF0001FFA2768204CDFF87CC01F49122201230C
:100E0000032504261D481034674515D10F6847F0A7
:100E100002070F60096801F00201059129028DE8BF
:100E20006E006946FFF72EFE206840F40010206037
:100E3000206800F4001019E0DFF844C0674516D1BF
:100E40000F6847F002070F60096801F00201059181
:100E50004FF440618DE86E006946FFF713FE20688D
:100E600040F480002060206800F48000059007B006
:100E7000F0BD000000540040303802400004024041
:100E80000058004002488168027811448160704730
:100E9000200000200B4810B5016841F4007101608A
:100EA000016841F480610160016841F48071016072
:100EB000032000F06FF8002000F006F800F024F89E
:100EC000002010BD003C024070B50D4D04464FF4AB
:100ED0007A712878B1FBF0F00A490968B1FBF0F0AB
:100EE00000F002FB48B9102C07D200222146501E08
:100EF00000F030F800206C6070BD012070BD000073
:100F0000200000202C0000200A4808B5016841F4A8
:100F100080410160006800F4804000900548001F97
:100F2000016841F080510160006800F0805000903D
:100F300008BD000044380240002809DB00F01F0211
:100F4000012191404009800000F1E020C0F800112B
:100F500070470000F0B40E4B1B680C46C3F302232D
:100F6000C3F10705042D00D90425191D072901D255
:100F7000002300E0DB1E012606FA05F1491E214090
:100F800099409E40761E16403143F0BC01F04EBDA4
:100F90000CED00E0064900F0070208684FF6FF0379
:100FA000184040EA0220034A1043086070470000DE
:100FB0000CED00E00000FA052DE9F0470E460500B3
:100FC00065D0DFF81481D8F80000F7B200F00F0008
:100FD000B04207D288F80070D8F8000000F00F0087
:100FE000B04254D128683D4C810712D5400703D543
:100FF000206840F4E05020602878000703D520687E
:1010000040F4604020602068A96820F0F0000843A8
:1010100020602878C0072DD0304968680839012839
:1010200012D0022813D0032811D00968890700299B
:101030002DDA216821F0030101432160FFF708FE4A
:10104000814641F2883A0EE009688903EFE70968B2
:101050008901ECE7FFF7FCFDA0EB0901514502D93E
:101060000320BDE8F0872068696800F00C00B0EB51
:10107000810FEFD1D8F80010404601F00F01B142C6
:1010800007D90770006800F00F00B04201D00120BE
:10109000E7E72878400705D52068E96820F4E050A4
:1010A000084320602878000706D52068296920F4C5
:1010B000604040EAC100206000F038F82168084A2A
:1010C000C1F30311515CC840064908600648006836
:1010D000FFF7FAFE0020C4E7003C02400838024057
:1010E000E02F00082C0000202400002004480549BF
:1010F00000680968044AC1F38221515CC840704706
:101100002C00002008380240F02F00080448054950
:1011100000680968044AC1F34231515CC840704715
:101120002C00002008380240F02F0008154810B5A8
:10113000006810F00C02144813D04110042A0FD09C
:10114000082A0ED10F4C241F2268236802F03F02A8
:101150005B0207D52068C0F38810A0FB010106E000
:10116000084610BD2168C1F38811A1FB00010023CE
:10117000FFF726F82168C1F30141491C4900B0FB83
:10118000F1F010BD083802400024F4002DE9F84FBA
:1011900004006ED02078DFF83C93C007A9F1040565
:1011A0004AD009F104000168C1F38101012908D086
:1011B0000068C0F3810002280AD1D9F8000040027B
:1011C00006D52868800337D560680028E1D033E071
:1011D0006068B0F5803F10D0B0F5A02F286810D01F
:1011E00020F480302860286820F48020286060681F
:1011F000A8B1FFF72DFD06460DE0286840F48030C9
:10120000F4E740F480202860F7E700BFFFF720FDF7
:10121000801B642873D828688003F7D50CE0FFF79B
:1012200017FD064605E000BFFFF712FD801B64288E
:10123000F0D828688003F7D42078DFF89C828007F4
:101240004FF0000A3ED5A348001D016811F00C0FB5
:1012500008D00068C0F3810002280BD1D9F8000043
:10126000400207D42868800716D5E068012800D11D
:1012700012E02BE1E068B8B10120C8F80000FFF7E8
:10128000E7FC064605E000BFFFF7E2FC801B0228F2
:10129000C0D828688007F7D52868216920F0F800B1
:1012A00040EAC10028600DE0C8F800A0FFF7D0FCBC
:1012B000064604E0FFF7CCFC801B02281FD82868F4
:1012C0008007F7D42078000722D5824E83486169D1
:1012D000703671B101210160FFF7BAFC074604E0E6
:1012E000FFF7B6FCC01B022809D830688007F7D585
:1012F0000EE0C0F800A0FFF7ABFC074605E082E077
:10130000FFF7A6FCC01B02287DD830688007F7D401
:101310002078400768D5DFF8BCB100270BF13C0B03
:10132000DBF80000C0000BD4DBF8001041F0805166
:10133000CBF80010DBF80000012700F0805000908F
:10134000674E3068C00510D4306840F4807030605B
:10135000FFF77EFC009005E0FFF77AFC0099401A49
:10136000022850D83068C005F6D55A4EA0686C36B1
:1013700001280FD00528306810D020F0010030601F
:10138000306820F004003060A068B8B1FFF760FC5E
:1013900000900FE0306840F00100F4E740F00400F6
:1013A0003060F7E7FFF754FC0099411A41F28830AA
:1013B000814266D830688007F4D50EE0FFF748FC1C
:1013C000009007E0FFF744FC0099411A41F2883091
:1013D000814256D830688007F4D42FB1DBF8001072
:1013E00021F08051CBF80010A069C8B33949091D1C
:1013F0000968C1F3810102294AD00228504607D06A
:10140000C8F8600000E03CE0FFF722FC04463BE047
:101410004746C8F86000FFF71BFC064605E000BF22
:10142000FFF716FC801B02282BD828688001F7D410
:10143000D4E907010843A16A2A4A490802EB01419D
:10144000626A41EA8211084394F82C1040EA016173
:10145000C9F8001001203866FFF7FAFB044606E0E1
:1014600036E000BFFFF7F4FB001B022809D828680C
:101470008001F7D52CE000BFFFF7EAFB001B022834
:1014800002D90320BDE8F88F28688001F4D41FE05A
:101490000128F7D0D9F80000E26900F480019142F8
:1014A00014D1226A00F03F0191420FD147F6C0717A
:1014B000626A0140914209D1A26A00F4403191422E
:1014C00004D1E16A00F07060884201D00120D9E7C0
:1014D0000020D7E70438024000004742800E474210
:1014E000007000400000FFFF10B5401EB0F1807F8B
:1014F00001D3012010BD4FF0E02460610F2160177F
:1015000001F094FA0020A06107202061002010BDA6
:1015100010B590F83C20012A22D0012280F83C200E
:10152000CA688C6822F4407222434C6822F48062BC
:1015300022430C6822F4006222430C6922F4805298
:1015400022434C6922F400522243C969002322F449
:1015500080420A4301684A6480F83C30002010BD94
:10156000022010BD70B590F83C20012A32D0012431
:1015700080F83C40022280F83D2003685A689D684C
:1015800022F070060A6832435A60134B02689A428E
:1015900014D0B2F1804F11D0104B9A420ED0104BA4
:1015A0009A420BD00F4B9A4208D00F4B9A4205D06B
:1015B0000E4B9A4202D00E4B9A4204D1496825F054
:1015C00080031943916080F83D40002180F83C1071
:1015D000084670BD022070BD0000014000040040BC
:1015E00000080040000C00400004014000400140A1
:1015F0000018004010B5040003D094F83D0010B16D
:1016000007E0012010BD002084F83C00204600F0D7
:101610000DF8022084F83D00211D206800F064FED2
:10162000012084F83D00002010BD000008B50168CD
:101630000E48814201D10E4810E00D48001FB1F163
:10164000804F0BD00B4A914207D1016841F0020153
:101650000160006800F00200009008BD016841F0E0
:1016600001010160006800F00100F5E700000140A1
:10167000443802400004004070B5044690F83C0035
:10168000012817D0012584F83C50022084F83D0041
:101690002068826822F0770222F47F428260086824
:1016A000502830D00DDC20284DD005DC98B3102810
:1016B0003BD148E0022070BD302844D0402834D1CE
:1016C00039E0602828D0702806D0B0F5805F2CD093
:1016D000B0F5005F29D10AE0CB68D1E9012120688B
:1016E00000F073FE2068816841F0770109E0CB6863
:1016F000D1E90121206800F068FE2068816841F48A
:101700008041816011E0CA684968206800F032FFBA
:101710005021206807E016E0CA684968206800F098
:101720003AFF6021206800F05AFE84F83D50002006
:1017300084F83C0070BDCA684968206800F01AFF50
:1017400040212068EFE7226801461046EBE70000E1
:1017500070B586B0044614216846FEF769FD2B4A31
:10176000216800242A480225012691420FD10168F0
:1017700041F0100101600068694600F0100005901A
:101780004FF4D4400090CDE90154224837E0B1F144
:10179000804F13D0204A914235D1016841F00401B5
:1017A00001600068694600F004000590C0200090C8
:1017B000CDE901541948CDE9034522E0016841F023
:1017C00001010160016801F001010591016841F02A
:1017D000020101600068694600F0020005904FF4C4
:1017E00000400090CDE90154CDE903460C48FFF7D5
:1017F00049F908200090CDE901540A486946CDE92D
:101800000346FFF73FF906B070BD0000000001403D
:10181000303802400010024000040040000802403E
:10182000000002400004024070B5044690F83C00FD
:101830000D4601280DD0012684F83C60022084F872
:101840003D0042B1042A18D0082A2AD00C2A4DD1D2
:1018500039E0022070BD206800F0CAFD206881696F
:1018600041F0080181612068816921F004018161F2
:10187000206881692A69114311E0206800F0E8FDC1
:101880002068816941F4006181612068816921F4E7
:1018900080618161206881692A6941EA0221816150
:1018A00024E0206800F00AFE2068C16941F00801C8
:1018B000C1612068C16921F00401C1612068C1696A
:1018C0002A69114311E0206800F02CFE2068C169EC
:1018D00041F40061C1612068C16921F48061C16186
:1018E0002068C1692A6941EA0221C16184F83D602A
:1018F000002084F83C0070BD10B5040003D094F8BB
:101900003D0010B107E0012010BD002084F83C002C
:10191000204600F00CF8022084F83D00211D2068CC
:1019200000F0E2FC012084F83D00002010BD70476B
:1019300010B504460068012200F03AFD0B4920680A
:10194000884202D00A49884203D1416C41F40041E7
:1019500041642068816801F00701062903D001680D
:1019600041F001010160002010BD000000000140B5
:10197000000401407047000070B50268044610681A
:10198000D168536910F00F0F52D003F0010501F434
:1019900090762E435FD0C20705D0CA0503D5E26B0F
:1019A00042F00102E263420705D5DA0703D0E26B99
:1019B00042F00202E263820705D5DA0703D0E26B48
:1019C00042F00402E263020707D501F020022A4335
:1019D00003D0E26B42F00802E263E26B002A33D0EC
:1019E000800604D5880602D5204600F037FE206820
:1019F0004069E16BC0F38010090700D428B320468A
:101A000000F01EFE2068416949061AD5416921F09F
:101A100040014161606BA0B11B490165606BFFF73C
:101A20001EF8002810D0606B016DBDE870400847BB
:101A3000830610D58B060ED52046BDE8704000F019
:101A40000DBE2046FFF796FF70BD2046FFF792FFC0
:101A50000020E06370BD030606D50B0604D52046C2
:101A6000BDE8704000F0DABE4006F3D54806F1D577
:101A7000D168204621F04001D160202184F839103E
:101A800000F00FF970BD00003126000870B50400A9
:101A900004D094F83900002510B106E0012070BD93
:101AA00084F83850204600F023F8242084F83900C8
:101AB0002068C16821F40051C160204600F01AFE80
:101AC0002068016921F4904101612068416921F099
:101AD0002A0141612068C16841F40051C160E56399
:101AE000202084F8390084F83A00002070BD0000FE
:101AF00010B586B0044614216846FEF799FB1849D4
:101B00002068884229D117480021026842F010025B
:101B10000260006800F01000059012481438026856
:101B200042F001020260006800F0010005904FF4ED
:101B3000C06000900220CDE901010320039007203E
:101B4000049069460848FEF79DFF002211462520B3
:101B5000FFF700FA2520FFF7EFF906B010BD0000EF
:101B600000100140443802400000024090F83A3032
:101B7000202B22D1F9B1F2B190F83830012B1CD0D2
:101B800081628285C2850021C163222280F83A20C9
:101B900080F838100168CA6842F48072CA6001682F
:101BA0004A6942F001024A610068C16841F02001BF
:101BB000C16000207047012070470220704700007C
:101BC00010B500680549884201D100F0ADFEBDE8BE
:101BD0001040012202490348FFF7C8BF001001402E
:101BE00012000020C00100202DE9F843044690F8BF
:101BF00039001F4616460D46202850D1B5B1AEB16A
:101C000094F8380001284AD0012084F838004FF0B9
:101C10000008C4F83C80212084F83900FFF718F848
:101C2000A6848146E68484F8388026E00120BDE859
:101C3000F883E08C401EE084A0684B46B0F5805FDE
:101C40004FF000024FF080012046009703D000F0D3
:101C500016FEE8B90DE000F012FEC8B92888216828
:101C6000C0F308004860206908B16D1C05E0AD1C98
:101C700003E0216815F8010B4860E08C0028D8D1FA
:101C80004B46002240212046009700F0F8FD08B1A5
:101C90000320CCE7202084F839000020C7E7022089
:101CA000C5E77047FEE70000154882B000210268D2
:101CB00042F004020260026802F00402009202682C
:101CC00042F001020260026802F001020092026822
:101CD00042F00202026000680A4A00F0020000902E
:101CE00009480260094AC0E901214FF48042C0E975
:101CF000031241618161C161016202B0FEF7AEBFB2
:101D0000303802400054004058000020A0860100F6
:101D100030B587B014216846FEF78AFA21480024BE
:101D2000016841F010010160016801F010010591A6
:101D3000016841F080010160016801F080010591B6
:101D4000016841F001010160016801F001010591A4
:101D5000016841F002010160016801F00201059192
:101D6000016841F00401016000680F4D00F00400BB
:101D70000590002230212846FEF765FFF020CDE9CE
:101D80000004694609480294FEF77CFE302000906A
:101D90000120CDE90104694628460394FEF772FE4E
:101DA00007B030BD30380240000002400010024051
:101DB0000D4810B50B4901600C49416000214FF4FA
:101DC00080428160C0E9031241618161C1610162A9
:101DD000FEF744FF002803D0BDE81040FEF73EBEEA
:101DE00010BD00000054004058000020A0860100F3
:101DF0000D4810B50B4901600C49416000214FF4BA
:101E000080428160C0E9031241618161C161016268
:101E1000FEF724FF002803D0BDE81040FEF71EBEE9
:101E200010BD000000580040AC000020A08601005A
:101E300010B596B000240F9410941194129413943A
:101E40001C2168461494FEF7F3F9202107A8FEF739
:101E5000EFF935483349016040F24731C0E90114D8
:101E60006321C0E903148021C0E90541FFF7C2FBEB
:101E700008B1FEF7F3FD4FF480500F900FA92A48E8
:101E8000FFF7FAFB08B1FEF7E9FD2748FFF734FD3D
:101E900008B1FEF7E3FD139413A923481494FFF748
:101EA00061FB08B1FEF7DAFD6020CDE90004029481
:101EB000039404940594002269461B480694FFF796
:101EC000B3FC08B1FEF7CAFD042269461648FFF7C5
:101ED000ABFC08B1FEF7C2FD082269461248FFF7C5
:101EE000A3FC08B1FEF7BAFD0C2269460E48FFF7C5
:101EF0009BFC08B1FEF7B2FD0794089409944FF4D7
:101F000000500A94CDE90B4007A907480E94FFF74B
:101F1000FFFA08B1FEF7A2FD0348FFF719FC16B05F
:101F200010BD0000000001400001002010B58EB07F
:101F300000240794089409940A940B941C21684681
:101F40000C94FEF775F923484FF08041016040F290
:101F50004731C0E901144FF4FA61C0E9031480214C
:101F60008161FFF747FB08B1FEF778FD4FF4805021
:101F7000079007A91748FFF77FFB08B1FEF76EFD32
:101F80001448FFF7B9FC08B1FEF768FD0B940BA9E4
:101F900010480C94FFF7E6FA08B1FEF75FFD6020E9
:101FA000CDE900040294002269460A480494FFF730
:101FB0003BFC08B1FEF752FD042269460548FFF7D5
:101FC00033FC08B1FEF74AFD0248FFF7C1FB0EB033
:101FD00010BD00004001002010B58EB00024079411
:101FE000089409940A940B941C2168460C94FEF7FB
:101FF0001FF923482149016040F24731C0E901142B
:1020000040F2CF71C0E9031480218161FFF7F2FA39
:1020100008B1FEF723FD4FF48050079007A9184838
:10202000FFF72AFB08B1FEF719FD1548FFF764FC1E
:1020300008B1FEF713FD0B940BA911480C94FFF7A0
:1020400091FA08B1FEF70AFD6020CDE90004029480
:10205000002269460A480494FFF7E6FB08B1FEF740
:10206000FDFC042269460648FFF7DEFB08B1FEF7D7
:10207000F5FC0348FFF76CFB0EB010BD00040040F8
:10208000800100200C4810B50A4901604FF4E1318D
:102090004160002181600C22C160C0E904128161AD
:1020A000C161FFF7F3FC002803D0BDE81040FEF744
:1020B000D5BC10BD00100140C0010020FEE70000AB
:1020C000642801DB642004E06FF06301884200DCD7
:1020D000084603490A6850630968C86370470000EE
:1020E00000010020642801DB642004E06FF063013C
:1020F000884200DC084603490A689063096808645E
:10210000704700000001002010B500210848FFF7CB
:102110000FFC04210648FFF70BFC08210448FFF7D9
:1021200007FCBDE810400C210148FFF701BC00008E
:102130000001002010B5034614460844FFF7C0FF15
:102140001819BDE81040FFF7CDBF704770477047C2
:1021500070B5002400F034F81848018811B1012945
:1021600000D10824418811B1012900D1241D8188A2
:1021700011B1012900D1A41CC08810B1012800D1DF
:10218000641C102C18D2DFE804F016141412101777
:10219000080C101717170E170A0801250CE0022566
:1021A0000AE0032508E0042506E0052504E00625ED
:1021B00002E0072500E00825284670BD3000002019
:1021C000F8B5164F20213846FEF738FD0125144C8E
:1021D0000026D8B1268010213846FEF72FFDB8B171
:1021E000668040213846FEF729FD98B1A6808021FF
:1021F0003846FEF723FD78B1E680E0880090A3889A
:102200006288218807A000F001FCF8BD2580E2E784
:102210006580E6E7A580EAE7E580EEE7001002408A
:10222000300000204B31203D202564094B32203DF9
:10223000202564094B33203D202564094B34203D83
:1022400020256400FEF71EBE30B593B030216846ED
:10225000FDF7EEFF14210CA8FDF7EAFF1948002551
:10226000016841F080510160006800F080501190D9
:102270001548016841F4804101600068022400F4BF
:102280008040119001200090000401908001CDE970
:10229000064004200890A820CDE9090407200B90EF
:1022A0006846FEF773FF0CA90F2081E831004FF458
:1022B000A0500F90E002109005210CA8FEF77CFEC4
:1022C00013B030BD4038024000700040054801683E
:1022D00041F47001016003494FF0006080390860EB
:1022E0007047000088ED00E0F0B50268254C264DEF
:1022F000264E274F274B4FF0804CA04209D0604517
:1023000007D0A84205D0B04203D0B84201D09842CD
:1023100004D122F0700E4A6842EA0E02A0421BD09D
:10232000604519D0A84217D0B04215D0B84213D09A
:10233000984211D0184DA8420ED0184DA8420BD08B
:10234000174DA84208D0174DA84205D0164DA842F7
:1023500002D0164DA84203D122F44075CA682A4320
:102360004D6922F080022A4302608A68C2620A68CC
:102370008262A04201D0984201D109690163012122
:102380004161F0BD00000140000400400008004031
:10239000000C0040000401400040014000440140A6
:1023A0000048014000180040001C00400020004090
:1023B00010B501F01F030121046A99408C430462A7
:1023C000016A9A401143016210BD10B5846842EA67
:1023D000032224F47F440A432243826010BD8268B2
:1023E00022F070020A4342F007018160704700004A
:1023F000F0B5026A22F001020262036A426884694F
:10240000124E24F073050C682C4323F002058B68F0
:102410002B430D4DA84201D0B04205D123F008074F
:10242000CB683B4323F00403A84201D0B04205D15E
:102430004D6922F4407215438A692A4342608461DF
:10244000496841630362F0BD00000140000401409F
:10245000F0B5026A22F010020262026A43688469DF
:102460000D6824F4E64444EA05248D6822F0200235
:1024700042EA05120F4D104EA84201D0B04206D1DB
:10248000CF6822F0800242EA071222F04002A842FE
:1024900001D0B04207D14D6923F4406343EA85037C
:1024A0008D6943EA85034360846149688163026200
:1024B000F0BD00000000014000040140F0B5026AD8
:1024C00022F480720262026A4368C46922F40072D4
:1024D00024F073050C68124E2C438D6842EA0522E5
:1024E0000E4DA84201D0B04206D1CF6822F400625E
:1024F00042EA072222F48062A84201D0B04207D10A
:102500004D6923F4405343EA05138D6943EA0513EB
:102510004360C4614968C1630262F0BD00000140CC
:102520000004014030B5026A22F480520262046A5B
:102530004268C3690D6823F4E64343EA05238D68C6
:1025400024F4005444EA0534084DA84202D0084D52
:10255000A84204D14D6922F4804242EA85124260C9
:10256000C36149680164046230BD0000000001409D
:102570000004014010B5036A046A24F001040462F7
:10258000846924F0F00444EA021423F00A020A43A6
:102590008461026210BD10B5036A23F01003036268
:1025A0008369046A23F4704343EA023224F0A003EF
:1025B00043EA01118261016210BD000070B5FFF7AE
:1025C000C7FD184C0146208017A000F01FFA6FF0DD
:1025D0000901228815484B1F4C00082A1ED2DFE84B
:1025E00002F01D04070A0D1013160022114600E028
:1025F0000A2200680EE00A460A21FAE71422194668
:10260000F7E71E222146F4E71A461421F1E7224695
:102610001E21EEE7BDE87040FFF78CBD0022114699
:102620001046F7E71C000020256400000000002091
:1026300010B5806B0021C185C184FFF79BF910BDE7
:102640000168CA6822F49072CA6001684A6922F07F
:1026500001024A61202180F83A10704710B590F8C5
:102660003A10222901D0022010BD8168B1F5805FA7
:1026700011D00169002901681FD0496801F07F036A
:10268000816A4A1C82620B70C18D491E0904090CC3
:10269000C18518D02BE00269816A002A026852685D
:1026A00005D0D2B20A80816A491C8162ECE7C2F38C
:1026B00008020A80816A891CF7E74A68816A4B1C14
:1026C00083620A70E0E70168CA6822F02002CA60EB
:1026D0000168CA6822F48072CA6001684A6922F0FF
:1026E00001024A61202180F83A10FFF769FA0020C0
:1026F00010BD00002DE9F041044600680169E26860
:1027000021F44051114301612169A068E269084345
:102710006169114308432168CA6849F20C639A430E
:102720000243CA6020684169A26921F440711143E3
:102730004161E069192764253226B0F5004F354A1A
:10274000354920684FF0000806D0884201D09042F9
:1027500036D1FEF7DBFC35E0884201D0904202D151
:10276000FEF7D4FC01E0FEF7C1FC61684A18A0FB4B
:10277000070148EB0803FDF723FD0146B0FBF5F028
:102780000201B1FBF5F06FF01803584301EB800034
:1027900006EBC000B0FBF5F000F0F80002EB4002E1
:1027A000B1FBF5F0584301EB800006EBC000B0FB35
:1027B000F5F000F00700216810448860BDE8F08162
:1027C000FEF794FC61688B0F8A00A0FB0701FDF700
:1027D000F7FC0146B0FBF5F06FF01802504301EB37
:1027E000800006EB0010B0FBF5F000F0F002B1FB4A
:1027F000F5F002EB0012B1FBF5F06FF0180358434F
:1028000001EB800006EB0010B0FBF5F000F00F00CC
:10281000D1E70000001401400010014090F8391089
:10282000212901D0022070478168B1F5805F016ADB
:102830000BD04A1C0262026809785160C18C491EA3
:102840000904090CC1840ED017E009880268C1F39D
:102850000801516001690029016A02D0491C016226
:10286000ECE7891CFBE70168CA6822F08002CA60B5
:102870000068C16841F04001C160002070472DE947
:10288000F041984617460E460446069D1DE0681C1A
:102890001BD02DB1FEF7DCF9A0EB0800A84214D93B
:1028A0002068C16821F4D071C1602068416921F0BD
:1028B00001014161202084F8390084F83A000020A9
:1028C00084F838000320BDE8F0812068006836EA0B
:1028D000000004D00020B842D9D00020F3E7012046
:1028E000F9E700000148FFF747B80000C0010020E9
:1028F00010B5094800F0ACF851EC100BFDF784FD61
:1029000006490860064800F0A3F851EC100BFDF7EB
:102910007BFD0449086010BD080000201400002061
:102920000D000020180000202DE9F0413148334C03
:1029300031490278207800250A54401CC0B220702A
:102940000A78572A53D10A1812F8012C582A4FD165
:102950002B4B01222B261A6091F801C00223294A31
:10296000BCF1410F0AD02D27BCF1420F14D0BCF1AD
:10297000430F1FD0BCF1440F37D129E016706370AC
:10298000401E05E0CE5CD7185B1C07F8016C637035
:10299000DBB28342F6DB28E017706370401E05E06F
:1029A000CE5CD7185B1C07F8016C6370DBB2834206
:1029B000F6DB1AE016706370401E05E0CE5CD71897
:1029C0005B1C07F8016C6370DBB28342F6DB0CE042
:1029D00017706370401E05E0CE5CD7185B1C07F8CB
:1029E000016C6370DBB28342F6DBFFF781FF257079
:1029F000BDE8F081120000204400002038000020D3
:102A00000400002008000020FEE700000FB4054B82
:102A100010B503A9044A029800F05AF810BC5DF8FA
:102A200014FB0000352F00083C0000200907090EA8
:102A3000002804DB00F1E02080F80014704700F06B
:102A40000F0000F1E02080F8141D70470000000026
:102A500030B583B0044600F017F89FED090B05462A
:102A60008DED000B002221466846FDF724FD284627
:102A700000F020F89DED000B03B030BD0000000019
:102A800000000000000000000148006870470000DE
:102A90004000002002E008C8121F08C1002AFAD135
:102AA00070477047002001E001C1121F002AFBD1CE
:102AB0007047000001490860704700004000002096
:102AC00030380A2801D201207047002070470000EA
:102AD0002DE9FF4F8DB00F460546002606E025285C
:102AE0000BD0DDE90F1290476D1C761C287800286A
:102AF000F5D111B03046BDE8F08F0024A246A146C2
:102B00000122EC4900E0044315F8013F203B02FAA2
:102B100003F00842F7D128782A2810D06FF02F024E
:102B20002878A0F13001092914D80AEB8A0102EBB8
:102B3000410144F0020400EB010A6D1CF0E701CFF3
:102B40005FEA000A03D544F40054CAF1000A44F0D5
:102B500002046D1C28782E2817D115F8010F44F0B7
:102B600004042A280ED06FF02F022878A0F130013B
:102B700009290AD809EB890102EB410100EB01099F
:102B80006D1CF2E757F8049B6D1C28786C280FD059
:102B900006DC4C2817D068280DD06A2814D104E030
:102BA000742810D07A280FD10DE044F400140AE004
:102BB00044F4801401E044F440146978814202D165
:102BC00004F580146D1C6D1C2A786E2A1FD00CDC55
:102BD000632A31D004DC002A8BD0582A11D1A3E01B
:102BE000642A68D0692A0CD165E0732A2ED004DCEF
:102BF0006F2A73D0702A04D19BE0752A6FD0782A8F
:102C00006ED01046DDE90F129047761C50E1C4F3F8
:102C10000250022806D0032809D0042801CF09D089
:102C2000066045E101CFF117C0E9006140E101CF45
:102C300006803DE106703BE117F8040B8DF80000BB
:102C400000208DF80100EB46012003E057F804BB9B
:102C50004FF0FF3061074FF0000102D40DE008F1A2
:102C60000101884649450FDA8045F8DB1BF808105A
:102C70000029F4D108E008F1010188468142FADB1D
:102C80001BF808100029F6D1DDE90F23AAEB080094
:102C90008146214600F036F9304400EB080604E096
:102CA000DDE90F121BF8010B9047B8F10108F7D2CC
:102CB00021464846F7E00A21C4F302534FF0000BC7
:102CC0000891022B04D001CFC117032B09D00AE0D1
:102CD000FF1D27F00707F7E8020108E032E01FE0D8
:102CE00020E000B2C117042B01D140B2C117031E6E
:102CF00071F1000307DA4FF0000CD0EB0C006CEB25
:102D000001012D2302E0230504D52B238DF8243067
:102D1000012303E0E30701D02023F7E7984658E0BA
:102D20000A2110E010210EE010204FF0000B089057
:102D30000CE010214FF0000B44F004044FF00809A0
:102D4000089103E008214FF0000B0891C4F30253EF
:102D5000022B04D001CF0021032B06D006E0FF1D7B
:102D600027F00707F7E8020103E080B2042B00D147
:102D7000C0B24FF0000823072BD5702A07D0DDF82A
:102D800020C08CF0100C5CEA0B0C05D00EE0402348
:102D90008DF82430012308E050EA010306D03023E7
:102DA0008DF824308DF8252002239846DDF820C0C8
:102DB0008CF0080C5CEA0B0C0BD150EA010301D13A
:102DC000630706D530238DF824304FF00108A9F1B0
:102DD0000109582A04D038A20B9208AA0A920BE0E3
:102DE0003AA2F9E75B46089AFDF7EAF90B9B9B5C70
:102DF0000A9A521E0A92137050EA0102F2D10A98FE
:102E0000ADEB000000F1200B600702D524F4803404
:102E100001E04FF00109D94502DDA9EB0B0000E00C
:102E2000002000EB0B0141440890AAEB010AE003EB
:102E300006D4DDE90F232146504600F063F806442E
:102E40004FF0000908E009A911F80900DDE90F12A7
:102E5000904709F10109761CC145F4DBE0030CD56C
:102E6000DDE90F232146504600F04CF8064404E00B
:102E7000DDE90F1230209047761C0899481E089013
:102E80000029F5DC08E00A980A990078491C0A91A3
:102E9000DDE90F129047761CBBF10001ABF1010B8D
:102EA000F1DC21465046DDE90F2300F019F8064415
:102EB0006D1C1BE6092801003031323334353637BA
:102EC0003839616263646566000000003031323376
:102ED0003435363738394142434445460000000016
:102EE0002DE9F041044600251E461746880404D407
:102EF00005E039462020B0476D1C641EF9D52846F0
:102F0000BDE8F0812DE9F041044600251E469046BB
:102F1000C80301D5302700E02027880404D505E048
:102F200041463846B0476D1C641EF9D52846BDE8B9
:102F3000F081000038B504468DF8000032230122EC
:102F400069460248FEF750FE204638BDC001002009
:102F5000FDF7A0FFFFF778F9FEF7DAFEFEF768FF4E
:102F6000FFF790F8FEF724FFFEF7E0FFFEF740FFC3
:102F7000FFF732F8FFF7C8F8FEF796FE0122054981
:102F80000548FEF7F3FD00F011F800BFFDF763FD03
:102F9000FCE7000012000020C00100200249AA2026
:102FA00009688863704700004001002010B50021C7
:102FB0000648FEF7BDFC04210448FEF7B9FC00F00A
:102FC00007F8BDE81040FFF7E9BF0000400100200E
:102FD0000249C8200968486370470000400100208A
:102FE00000000000000000000102030406070809B9
:102FF0000000000001020304DDDDDDDDDCBBBBDD24
:10300000DDDDDDDDDDDDDDDD988888888888888888
:1030100077777777778888888555555666666666A8
:103020006666666666688888833333322222222287
:10303000222222222228888D5830000800000020F9
:1030400044000000942A00089C300008440000203E
:10305000BC050000A42A00081400000000000000C5
:103060000000000000000000000000000000000060
:10307000000000000000000001000000100000003F
:10308000000000000024F400000000000000000028
:0C30900000000000000000000000000034
:040000050800018965
:00000001FF
