:020000040800F2
:10000000880700209D010008752E0008492400087B
:10001000452E0008B50C0008C93500080000000096
:10002000000000000000000000000000792E000821
:10003000D90C000800000000772E00087B2E000875
:10004000B7010008B7010008B7010008B7010008B0
:10005000B7010008B7010008B7010008B7010008A0
:10006000B7010008B7010008B7010008B701000890
:10007000B7010008B7010008B7010008B701000880
:10008000B7010008B7010008B7010008B701000870
:10009000B7010008B7010008B7010008B701000860
:1000A000B7010008B7010008B7010008B701000850
:1000B000B7010008B7010008B7010008B701000840
:1000C000B7010008B7010008B7010008B701000830
:1000D000B7010008A5340008B7010008B7010008FF
:1000E000B7010008B7010008B7010008B701000810
:1000F000B7010008B7010008B7010008B701000800
:10010000B7010008B7010008B7010008B7010008EF
:10011000B7010008B7010008B7010008B7010008DF
:10012000B7010008B7010008B7010008B7010008CF
:10013000B7010008B7010008B7010008B7010008BF
:10014000B7010008B7010008B7010008B7010008AF
:10015000B7010008B7010008B7010008B70100089F
:10016000B7010008B7010008B7010008B70100088F
:10017000B7010008B7010008B7010008000000003F
:10018000B7010008B7010008DFF80CD000F08AFBC7
:10019000004800478545000888070020064880473A
:1001A00006480047FEE7FEE7FEE7FEE7FEE7FEE75C
:1001B000FEE7FEE7FEE7FEE7052F000889010008DD
:1001C0002DE9F05F0546002092469B46884606468C
:1001D000814640241BE0284641464746224600F01F
:1001E0002DFA53465A46C01A914110D3114618466B
:1001F000224600F014FA2D1A67EB01084F462246FA
:100200000120002100F00BFA17EB00094E41201EDF
:10021000A4F10104DFDC484631462A464346BDE8E6
:10022000F09F40EA01039B0703D009E008C9121FB1
:1002300008C0042AFAD203E011F8013B00F8013BA0
:10024000521EF9D27047D2B201E000F8012B491ECC
:10025000FBD270470022F6E710B513460A46044663
:100260001946FFF7F0FF204610BD2DE9FE4F8046EE
:1002700081EA0300C00F0C46009021F0004123F0FA
:100280000045B8EB0200A94105D240462146904600
:100290001C460B46024623F00040104347D0270D72
:1002A000C7F30A00C3F30A510290401A0190402894
:1002B0006BDAC3F3130040F4801B0098924620B120
:1002C0000023D2EB030A63EB0B0B01985946C0F1F4
:1002D0004002504600F0A3F906460D4650465946E6
:1002E000019A00F0BBF910EB08006141002487EA95
:1002F000115284EAE7731A4340D0009A62B3019A1C
:10030000012A4FEA075215DC001B61EB02014FF096
:10031000004202EA0752CDE90042001C41F580117B
:1003200032462B4600F040FA03B0BDE8F08F40465D
:100330002146F9E7001B61EB0201001C41F5801327
:1003400000185B412018A2F5001747EB030140EAB3
:10035000D570B6196D4111E06D084FEA360645EAD1
:10036000C0754FEA0752001B61EB0201001C41F50A
:10037000801149084FEA30000019514132462B469E
:1003800003B0BDE8F04F00F000BA00980122400031
:100390000023D0EB020263EBE073009821464FEAA2
:1003A000E074B8EB000061EB0401E9E783F000437F
:1003B0005BE781F0004158E72DE9FE4F81EA030435
:1003C00004F0004421F0004100944FF0000B23F0B2
:1003D000004350EA01045ED052EA03045BD0C3F349
:1003E0000A54C1F30A552C44A4F2F3340194A0FB3F
:1003F0000254C1F3130141F48011C3F3130343F416
:10040000801301FB024400FB034E840A970A44EA6E
:10041000815447EA8357A4FB076802958D0A05FBC0
:1004200007854FEA932C04FB0C542705029D4FEAE5
:10043000065847EA1637B5EB08056EEB070C870E32
:10044000920E47EA811742EA8312A7FB0201B6EB3C
:100450000B0164EB00042B0D43EA0C335E1844EBF4
:100460001C50DA465146E7FB0201C5F313044FEA7C
:100470000B3343EA14534FEA0432019C43EA060368
:10048000A4F10C040294009CCDE900B400F08CF9B6
:1004900003B0BDE8F08F00200146F9E72DE9F04DEB
:1004A00081EA030404F0004B21F0004514464FF0AC
:1004B000000A23F0004150EA050220D054EA01026C
:1004C0001DD0C5F30A570246C5F31303C1F3130049
:1004D000C1F30A5640F4801543F48013A7EB0608D5
:1004E000101BD64608F2FD3873EB050002D308F165
:1004F000010801E092185B41B8F1000F03DA002017
:100500000146BDE8F08D00204FF480110646844678
:100510000EE0171B73EB050705D3121B63EB0503F6
:1005200006434CEA010C49084FEA300092185B413F
:1005300050EA0107EDD152EA030012D082EA04002A
:1005400083EA0501084305D0101BAB4106D2012206
:10055000002306E000224FF0004302E06FF00102AA
:1005600053101AEB06004CEB085110EB0A0041EB5C
:100570000B01BDE8F04D00F008B90EB540F2334173
:1005800002910021CDE900110A460B4600F00CF95A
:1005900003B000BD00F0004230F000400AD0C10DB1
:1005A00001F56071C0F3160042EA0151C20840072C
:1005B0001143704700200146704701F0004330B4FA
:1005C00021F0004150EA010206D00A0DA2F5607246
:1005D000C1F31301002A02DC30BC00207047440F35
:1005E00044EAC104C100E01830BC00EBC25000F086
:1005F00095B830B50B46014600202022012409E0C1
:1006000021FA02F59D4205D303FA02F5491B04FACB
:1006100002F52844151EA2F10102F1DC30BD202AAA
:1006200004DB203A00FA02F1002070479140C2F149
:10063000200320FA03F3194390407047202A04DB7B
:10064000203A21FA02F00021704721FA02F3D0404B
:10065000C2F120029140084319467047202A06DB68
:10066000CB17203A41FA02F043EAE07306E041FA80
:1006700002F3D040C2F1200291400843194670476E
:100680000FB4002300B589B00CA900910B996FF04D
:100690000042CB601E4B06931E4B07930423CDE90B
:1006A00001321D4A089202466B46002000F0A6F96E
:1006B00009B05DF814FB70B586B006464FF0FF3008
:1006C0000091CDE90101002015460C460490324608
:1006D000694604A8FFF7D4FF02460498211825B103
:1006E00008B1084600E020462860049800280DD094
:1006F000002A02DD0098884208D0081B0094CDE94A
:1007000001043246694604A8FFF7BAFF06B070BD7F
:10071000350C0008530C0008C90800080029A8BFC0
:100720007047401C490008BF20F00100704710B41A
:10073000B0FA80FC00FA0CF050EA010404BF10BCCF
:10074000704749B1CCF1200421FA04F411FA0CF1FC
:1007500018BF012121430843A3EB0C01CB1D4FEA35
:1007600000614FEA102042BF002010BC704700EB30
:10077000C35010440029A4BF10BC7047401C49005E
:1007800008BF20F0010010BC704710B5141E73F1B3
:10079000000408DA401C41F1000192185B411A4341
:1007A00001D120F0010010BD2DE9F04D92469B468D
:1007B00011B1B1FA81F202E0B0FA80F22032904633
:1007C000FFF72DFF04460F4640EA0A0041EA0B01FD
:1007D00053465A46084313D0114653EA010019D034
:1007E000C8F140025046FFF729FF05460E46504625
:1007F00059464246FFF713FF084305D0012004E0A5
:1008000020463946BDE8F08D0020054346EAE076F3
:100810002C4337430A986305E40AA0EB0800002242
:10082000FD0A44EA47540A3002D500200146E9E7B0
:10083000010510196941DDE9084500196941BDE864
:10084000F04DA2E7C1F30A52C1F3130140F2FF33A6
:1008500041F480119A4202DA00200146704740F2CA
:1008600033439A42A2F2334202DC5242FFF7E6BE21
:10087000FFF7D5BE30B5041E71F1000404DB4FF064
:100880000044404264EB0101141E73F1000405DBD7
:100890001C464FF00043524263EB0403994208BFE9
:1008A000904230BD064C074D06E0E06840F0010381
:1008B00094E8070098471034AC42F6D3FFF768FC81
:1008C0006849000888490008C0B24FF4F05100F0B0
:1008D000D1B900002DE9FF4F087883B09946FF2871
:1008E00005D0491C2D2804D00024002008E0002059
:1008F0000BE00124F9E700EB800003EB4000491C0A
:100900000B78FF2BF7D104B14042002302931478F7
:1009100019461D462D2C01D02B2C04D1521C2D2CF8
:1009200013D000240294AA461478FF2C0FD00A2575
:10093000A3FB057801FB05814FF0000C03FB0C11B4
:10094000521CE3194AEB0101EEE70124EAE7814476
:1009500053EA010002D019F5C87F06DA0398002196
:10096000C0E9001107B0BDE8F08F0025AE4E2F465C
:10097000DFF8B882184600F091F9CDE90001B9F12D
:10098000000002DAC9F1000400E004460023A74A8F
:100990001AEB030B42EB045A12E0E00707D02A4699
:1009A000334638464146FFF707FD074688462A4644
:1009B000334610461946FFF7FFFC05460E46641005
:1009C000002CEAD1DDE90001B9F1000F5A46534687
:1009D00006DAFFF763FD3A464346FFF75FFD05E0A1
:1009E000FFF7EAFC3A464346FFF7E6FC029A0AB1F3
:1009F00081F00041039AC2E90001B3E72DE9FF4FFE
:100A00001F468DB0D7E901464FF0FF382E204546EE
:100A10004FF000090B90B9696D1C0E988847396A30
:100A2000824688470028F6D1BAF1FF3F0AD024F465
:100A3000D064002E11DDBAF12B0F08D0BAF12D0FC2
:100A40000BD102E0404611B08DE744F48064B969EF
:100A50006D1C0E9888478246761E6946600501D552
:100A60002D2000E02B208DF8000001F1010B0DF18D
:100A7000200809E0B9696D1C0E98884782460F98D6
:100A800044F40074761E0560002E02DDBAF1300FCA
:100A9000F0D00B998A453ED144F0800406E00F99CE
:100AA000681CA9F1010944F400740860B9696D1C5F
:100AB000761E0E98884782463028F0D02BE00B999E
:100AC0008A4505D1200603D444F08004761E18E040
:100AD000504603F09FF908B30DF11301761E44F45C
:100AE00000748B4508D2AAF130000BF8010B2006E8
:100AF00007D5A9F1010003E0200602D409F10100A5
:100B00008146A00502D50F99681C0860B9696D1C63
:100B10000E9888478246002ED1DC53E0002E51DD2E
:100B2000BAF1650F02D0BAF1450F4BD1A00549D5F6
:100B3000B9696D1C24F44074761E0E98884782466D
:100B4000002E0CDD2B2804D0BAF12D0F07D144F470
:100B50008074B9696D1C0E9888478246761EE00540
:100B600001D52D2100E02B2108F8011BCDF82C80A8
:100B700021E00DF12901761E44F4007488450CD261
:100B8000AAF1300010F0FF0088F8000002D10B99A4
:100B9000884509D908F1010806E0E00501D5244897
:100BA00001E042F20F708146B9696D1C0E988847CA
:100BB00082460F980560002E04DD504603F02AF9A6
:100BC0000028D6D1F9690E988847FF208BF80000DD
:100BD00088F800000020069007904B466A4608A956
:100BE00006A8FFF777FEA00502D46FF001002AE700
:100BF00014F0240F0AD0E00714D1DDE9061238689A
:100C0000031D3B600068C0E900120BE0DDE906014E
:100C1000FFF7D3FC0146E00704D13868021D3A60B3
:100C20000068016028460EE7000014400000F03F15
:100C3000F1D8FFFF426842B1016811F8013B23B1CE
:100C4000521EC0E90012184670470121C160881E7B
:100C5000704742685AB1C368016843B983688B42E0
:100C600005D0491E521CC0E90012002070474FF009
:100C7000FF3070477F2801D9002208E0064A02EBC6
:100C80005002C007127800D1120902F00F020120B1
:100C90009040084070470000D74800080EB540F269
:100CA000334202920022CDE900221346FFF77CFD79
:100CB00003B000BDFEE7000010B502460020054C61
:100CC00004E000BF12F8013B4340E05C491EC9B29A
:100CD000F8D210BD7C4700087047704790F8351077
:100CE000022903D08021416501207047052180F849
:100CF00035100068016821F0010101600020704793
:100D000070B5044600F0F4F80546601C02D00448B3
:100D10000078044400F0ECF8401BA042FAD370BD08
:100D2000200000202DE9F84F00224FF00108032594
:100D30004FF00F0E0B6808FA02F42340A3426ED165
:100D40004E68012E05D0022E03D0112E01D0122E96
:100D500012D186684FEA420C05FA0CF7BE43CF6801
:100D600007FA0CF7374387604668A6430C79C4F34B
:100D70000014944034434460C668570005FA07FCE9
:100D80008C6826EA0C06BC403443C4604C68022CD4
:100D900001D0122C13D1D40800EB8404A346D4F85C
:100DA000209054074FEAD46A0EFA0AF629EA060997
:100DB0000E6906FA0AF646EA0906CBF820600668CC
:100DC0000C7926EA0C0604F00304BC4034430460AA
:100DD0004C68E40065D5364C266846F480462660AB
:100DE000246822F0030604F480440094314C344417
:100DF000A446D4F808489607370F0EFA07F6B4430E
:100E00002D4EB04201D1002624E02C4EB04201D13B
:100E100001261FE02A4EB04202D102261AE040E02D
:100E2000284EB04201D1032614E0274EB04201D132
:100E300004260FE0254EB04201D105260AE0244EDB
:100E4000B04201D1062605E0224EB04201D107266C
:100E500000E00826BE402643CCF808681E4E3468E1
:100E60004F689C43FF0300D51C4334601A4C241D7B
:100E700026684F689E43BF0300D51E432660164E6A
:100E8000083634684F689C43FF0200D51C43346029
:100E9000114E0C3634684F689C43BF0200D51C438A
:100EA0003460521C102AFFF445AFBDE8F88F0000F3
:100EB000443802400030014000000240000402407B
:100EC00000080240000C02400010024000140240E2
:100ED00000180240001C0240003C0140006908402C
:100EE00000D0012070470AB1816170470904FBE717
:100EF00001488068704700002000002070B50400A1
:100F000025D094F83D00002520B984F83C502046B7
:100F100000F03AFB242084F83D002068016821F0AD
:100F2000010101602068016841F40041016020680E
:100F3000016821F40041016000F0AAFC4D4A61689B
:100F4000914201D84C4900E04C49884201D201202D
:100F500070BD4B492368B0FBF1F15E6826F03F0697
:100F60000E435E606368934206D94FF4967359430B
:100F70004FF47A73B1FBF3F12368491C1E6A26F023
:100F80003F06314319626168914210D84900401E02
:100F9000B0FBF1F2521CC2F30B02042A01D204206E
:100FA00022E0B0FBF1F0401CC0F30B001CE0A26893
:100FB000F2B301EBC10303EB0116431EB3FBF6F3DF
:100FC0005B1C43F480431B0549D092B301EBC10283
:100FD00002EB0111401EB0FBF1F0401CC0F30B000E
:100FE00040F4804040F400402168CA694CF6FF7329
:100FF0009A431043C861D4E907100143206802688E
:1010000022F0C00211430160D4E9030101432068CA
:10101000826848F2FF339A4311438160D4E90501A5
:1010200008432168CA6822F0FF021043C86001E04B
:101030000EE016E02068016841F0010101602564BE
:10104000202084F83D00256384F83E50002070BDC8
:1010500001EB4106431EB3FBF6F35B1CB3E7012033
:10106000C2E701EB4101401EB0FBF1F0401CC0F3B0
:101070000B00B7E7A086010080841E0000093D0038
:1010800040420F002DE9F84F1F4690468A4604461D
:10109000DDF82890FFF72CFF054694F83D00202846
:1010A00075D1192301226C492046009501F04CFBB3
:1010B0000028F5D194F83C00012868D0012084F87C
:1010C0003C0020680168C90703D1016841F00101B3
:1010D00001602068016821F400610160222084F829
:1010E0003D00102084F83E0000262664C4F82480C9
:1010F0006785608D20855948E0622B464A465146F7
:10110000204601F0B9F9002878D1208D544F68B1FC
:10111000012814D002282068016816D041F48061AB
:101120000160206841698069009087E0206841691A
:1011300081690091016841F4007101607EE02068DE
:10114000016821F480610160F0E721F480610160B1
:101150002068016841F40061E2E7032848D80128CB
:101160000AD0022814D04B4600223946204600956A
:1011700001F0EAFAD8BB27E02A464946204601F0AA
:1011800062FBA0BB20680069616A08704DE061E005
:101190004B46002239462046009501F0D5FA30BB77
:1011A0002068016841F40071016020680069616A8B
:1011B0000870606A401C6062218D491E2185618D26
:1011C000491E618521682EE02068016821F4806154
:1011D000016020680069616A0870606A401C606292
:1011E000208D401E2085608D401E6085D0E705E083
:1011F0002A464946204601F026FB10B10120BDE8F1
:10120000F88F20680069616A0870606A401C60623B
:10121000218D491E2185618D491E618521684A699C
:10122000D24352070AD409690170606A401C6062A7
:10123000208D401E2085608D401E6085208D0028F9
:101240008BD1202084F83D0084F83E6084F83C6017
:101250000020D4E70220D2E7020010000000FFFFC8
:10126000040001002DE9F84F1F4690468A460446C7
:10127000DDF82890FFF73CFE054694F83D00202855
:101280007FD11923012240492046009501F05CFAE4
:10129000002876D194F83C00012872D0012084F80F
:1012A0003C0020680168C90703D1016841F00101D1
:1012B00001602068016821F400610160212084F848
:1012C0003D00102084F83E0000262664C4F82480E7
:1012D0006785608D20852D48E0622B464A46514641
:1012E000204601F03FF990B920684169806900907B
:1012F00036E02A464946204601F0D8FA50B1206C23
:10130000042804D12068016841F4007101600120C3
:10131000BDE8F88F606A216800780861606A401C47
:101320006062618D491E6185218D491E89B22185CA
:1013300022685369DB435B070BD451B1007810611D
:10134000606A401C6062608D401E6085208D401E7A
:1013500020852A464946204601F0D0F90028CED102
:10136000208D0028C5D154F83D0B016841F400716F
:101370000160202004F81E09E67766770020C7E7A1
:10138000FFE70220C4E70000020010000000FFFF9A
:101390002DE9FF4F83B09A46DDE911979346044645
:1013A000DDF84080FFF7A4FD054694F83D002028B5
:1013B00070D11923012271492046009501F0C4F92A
:1013C0000028F5D194F83C00012863D0012084F86E
:1013D0003C0020680168C90703D1016841F00101A0
:1013E00001602068016821F400610160222084F816
:1013F0003D00402084F83E0000262664C4F8248086
:10140000A4F82A90608D20855D48E062CDE90075E2
:1014100053465A462046049901F0F2F800287CD140
:10142000208DD0B1012821D00228206824D0416924
:1014300080690090208D032869D801282BD051495C
:1014400002283B464FF00002009559D088462046BE
:1014500001F07AF9002860D13CE020684169816997
:101460000091016841F40071016077E02068016833
:1014700021F480610160F0E7016821F4806101607E
:101480002068016841F40061016020684169806959
:10149000009063E06FE02A463946204601F0D3F918
:1014A00098BB20680069616A08704EE02068016896
:1014B00041F40071016020680069616A0870606A27
:1014C000401C6062218D491E2185618D491E618508
:1014D000216838E02068016821F48061016020689B
:1014E0000069616A0870606A401C6062208D401E5D
:1014F0002085608D401E60853B4600224146009558
:10150000204601F021F900B9D0E706E0FFE72A46BE
:101510003946204601F097F918B1012007B0BDE81F
:10152000F08F20680069616A0870606A401C606220
:10153000218D491E2185618D491E618521684A6979
:10154000D24352070AD409690170606A401C606284
:10155000208D401E2085608D401E6085208D0028D6
:101560007FF468AF202084F83D0084F83E6084F862
:101570003C600020D2E70220D0E70000020010000B
:101580000000FFFF04000100F0B587B004461421FD
:101590006846FEF75FFE2768204CDFF87CC01F49D5
:1015A00012220123032504261D481034674515D156
:1015B0000F6847F002070F60096801F0020105910A
:1015C00029028DE86E006946FFF7ACFB206840F405
:1015D00000102060206800F4001019E0DFF844C01B
:1015E000674516D10F6847F002070F60096801F0E0
:1015F000020105914FF440618DE86E006946FFF7E6
:1016000091FB206840F480002060206800F4800096
:10161000059007B0F0BD0000005400403038024093
:1016200000040240005800400248816802781144DA
:1016300081607047200000200B4810B5016841F41C
:1016400000710160016841F480610160016841F44A
:1016500080710160032000F06FF8002000F006F8B0
:1016600000F024F8002010BD003C024070B50D4D84
:1016700004464FF47A712878B1FBF0F00A49096802
:10168000B1FBF0F000F002FB48B9102C07D20022A9
:101690002146501E00F030F800206C6070BD012023
:1016A00070BD0000200000202C0000200A4808B572
:1016B000016841F480410160006800F480400090BE
:1016C0000548001F016841F080510160006800F08A
:1016D0008050009008BD000044380240002809DB1B
:1016E00000F01F02012191404009800000F1E0203C
:1016F000C0F8001170470000F0B40E4B1B680C4698
:10170000C3F30223C3F10705042D00D90425191DD5
:10171000072901D2002300E0DB1E012606FA05F1AD
:10172000491E214099409E40761E16403143F0BC30
:1017300002F064BA0CED00E0064900F00702086808
:101740004FF6FF03184040EA0220034A10430860A6
:10175000704700000CED00E00000FA052DE9F047AD
:101760000E46050065D0DFF81481D8F80000F7B206
:1017700000F00F00B04207D288F80070D8F80000DF
:1017800000F00F00B04254D128683D4C810712D5BB
:10179000400703D5206840F4E05020602878000717
:1017A00003D5206840F4604020602068A96820F0DC
:1017B000F000084320602878C0072DD030496868C1
:1017C0000839012812D0022813D0032811D0096843
:1017D000890700292DDA216821F0030101432160E6
:1017E000FFF786FB814641F2883A0EE009688903DB
:1017F000EFE709688901ECE7FFF77AFBA0EB090145
:10180000514502D90320BDE8F0872068696800F0DF
:101810000C00B0EB810FEFD1D8F80010404601F07A
:101820000F01B14207D90770006800F00F00B04205
:1018300001D00120E7E72878400705D52068E9684E
:1018400020F4E050084320602878000706D520687F
:10185000296920F4604040EAC100206000F038F8B7
:101860002168084AC1F30311515CC8400649086069
:1018700006480068FFF7FAFE0020C4E7003C02407B
:1018800008380240644700082C0000202400002093
:101890000448054900680968044AC1F38221515C83
:1018A000C84070472C0000200838024074470008E8
:1018B0000448054900680968044AC1F34231515C93
:1018C000C84070472C0000200838024074470008C8
:1018D000154810B5006810F00C02144813D04110E0
:1018E000042A0FD0082A0ED10F4C241F2268236827
:1018F00002F03F025B0207D52068C0F38810A0FB0E
:10190000010106E0084610BD2168C1F38811A1FB62
:1019100000010023FEF754FC2168C1F30141491C7A
:101920004900B0FBF1F010BD083802400024F4007B
:101930002DE9F84F04006ED02078DFF83C93C00703
:10194000A9F104054AD009F104000168C1F381013D
:10195000012908D00068C0F3810002280AD1D9F813
:101960000000400206D52868800337D5606800284B
:10197000E1D033E06068B0F5803F10D0B0F5A02F23
:10198000286810D020F480302860286820F4802057
:1019900028606068A8B1FFF7ABFA06460DE028683A
:1019A00040F48030F4E740F480202860F7E700BF7F
:1019B000FFF79EFA801B642873D828688003F7D548
:1019C0000CE0FFF795FA064605E000BFFFF790FA36
:1019D000801B6428F0D828688003F7D42078DFF8CB
:1019E0009C8280074FF0000A3ED5A348001D016885
:1019F00011F00C0F08D00068C0F3810002280BD151
:101A0000D9F80000400207D42868800716D5E0689E
:101A1000012800D112E02BE1E068B8B10120C8F83C
:101A20000000FFF765FA064605E000BFFFF760FA21
:101A3000801B0228C0D828688007F7D5286821694C
:101A400020F0F80040EAC10028600DE0C8F800A0CE
:101A5000FFF74EFA064604E0FFF74AFA801B022819
:101A60001FD828688007F7D42078000722D5824E37
:101A700083486169703671B101210160FFF738FA5E
:101A8000074604E0FFF734FAC01B022809D8306883
:101A90008007F7D50EE0C0F800A0FFF729FA074647
:101AA00005E082E0FFF724FAC01B02287DD83068E9
:101AB0008007F7D42078400768D5DFF8BCB100274D
:101AC0000BF13C0BDBF80000C0000BD4DBF800107E
:101AD00041F08051CBF80010DBF80000012700F046
:101AE00080500090674E3068C00510D4306840F4D4
:101AF00080703060FFF7FCF9009005E0FFF7F8F91F
:101B00000099401A022850D83068C005F6D55A4EC0
:101B1000A0686C3601280FD00528306810D020F05E
:101B200001003060306820F004003060A068B8B177
:101B3000FFF7DEF900900FE0306840F00100F4E7B5
:101B400040F004003060F7E7FFF7D2F90099411A3E
:101B500041F28830814266D830688007F4D50EE0C3
:101B6000FFF7C6F9009007E0FFF7C2F90099411AA4
:101B700041F28830814256D830688007F4D42FB1C2
:101B8000DBF8001021F08051CBF80010A069C8B339
:101B90003949091D0968C1F3810102294AD0022887
:101BA000504607D0C8F8600000E03CE0FFF7A0F91D
:101BB00004463BE04746C8F86000FFF799F906463F
:101BC00005E000BFFFF794F9801B02282BD8286896
:101BD0008001F7D4D4E907010843A16A2A4A4908D9
:101BE00002EB0141626A41EA8211084394F82C1029
:101BF00040EA0161C9F8001001203866FFF778F962
:101C0000044606E036E000BFFFF772F9001B022829
:101C100009D828688001F7D52CE000BFFFF768F9E4
:101C2000001B022802D90320BDE8F88F2868800134
:101C3000F4D41FE00128F7D0D9F80000E26900F4DD
:101C40008001914214D1226A00F03F0191420FD1EC
:101C500047F6C071626A0140914209D1A26A00F45C
:101C60004031914204D1E16A00F07060884201D0B5
:101C70000120D9E70020D7E704380240000047429E
:101C8000800E4742007000400000FFFF10B5401E6C
:101C9000B0F1807F01D3012010BD4FF0E0246061DE
:101CA0000F21601701F0AAFF0020A061072020612A
:101CB000002010BD10B590F83C20012A22D001224E
:101CC00080F83C20CA688C6822F4407222434C6839
:101CD00022F4806222430C6822F4006222430C69E1
:101CE00022F4805222434C6922F400522243C969F3
:101CF000002322F480420A4301684A6480F83C30A1
:101D0000002010BD022010BD70B590F83C20012AC3
:101D100032D0012480F83C40022280F83D20036844
:101D20005A689D6822F070060A6832435A60134B65
:101D300002689A4214D0B2F1804F11D0104B9A42EF
:101D40000ED0104B9A420BD00F4B9A4208D00F4B3B
:101D50009A4205D00E4B9A4202D00E4B9A4204D1C1
:101D6000496825F080031943916080F83D400021C7
:101D700080F83C10084670BD022070BD0000014094
:101D80000004004000080040000C00400004014036
:101D9000004001400018004010B5040003D094F842
:101DA0003D0010B107E0012010BD002084F83C0088
:101DB000204600F00DF8022084F83D00211D206827
:101DC00001F0AEF8012084F83D00002010BD0000B5
:101DD00008B501680E48814201D10E4810E00D4857
:101DE000001FB1F1804F0BD00B4A914207D101681F
:101DF00041F002010160006800F00200009008BD9F
:101E0000016841F001010160006800F00100F5E7A0
:101E100000000140443802400004004070B5044610
:101E200090F83C00012817D0012584F83C5002208E
:101E300084F83D002068826822F0770222F47F4215
:101E400082600868502830D00DDC20284DD005DC99
:101E500098B310283BD148E0022070BD302844D010
:101E6000402834D139E0602828D0702806D0B0F559
:101E7000805F2CD0B0F5005F29D10AE0CB68D1E9B2
:101E80000121206801F0BDF82068816841F07701E8
:101E900009E0CB68D1E90121206801F0B2F820689F
:101EA000816841F48041816011E0CA684968206816
:101EB00001F07CF95021206807E016E0CA68496803
:101EC000206801F084F96021206801F0A4F884F80A
:101ED0003D50002084F83C0070BDCA684968206805
:101EE00001F064F940212068EFE7226801461046BE
:101EF000EBE7000070B586B0044614216846FEF793
:101F0000A9F92B4A216800242A480225012691427A
:101F10000FD1016841F0100101600068694600F0CE
:101F2000100005904FF4D4400090CDE901542248B0
:101F300037E0B1F1804F13D0204A914235D101688A
:101F400041F0040101600068694600F0040005905A
:101F5000C0200090CDE901541948CDE9034522E0A5
:101F6000016841F001010160016801F00101059182
:101F7000016841F0020101600068694600F002005A
:101F800005904FF400400090CDE90154CDE903469F
:101F90000C48FEF7C7FE08200090CDE901540A481E
:101FA0006946CDE90346FEF7BDFE06B070BD0000F0
:101FB00000000140303802400010024000040040A0
:101FC00000080240000002400004024070B50446D0
:101FD00090F83C000D4601280DD0012684F83C60A5
:101FE000022084F83D0042B1042A18D0082A2AD0E1
:101FF0000C2A4DD139E0022070BD206801F014F8A0
:102000002068816941F0080181612068816921F0BF
:1020100004018161206881692A69114311E0206807
:1020200001F032F82068816941F400618161206823
:10203000816921F480618161206881692A6941EAAE
:102040000221816124E0206801F054F82068C16910
:1020500041F00801C1612068C16921F00401C1613A
:102060002068C1692A69114311E0206801F076F8FF
:102070002068C16941F40061C1612068C16921F42F
:102080008061C1612068C1692A6941EA0221C16198
:1020900084F83D60002084F83C0070BD10B5040059
:1020A00003D094F83D0010B107E0012010BD0020DE
:1020B00084F83C00204600F00CF8022084F83D0033
:1020C000211D206800F02CFF012084F83D00002035
:1020D00010BD704710B504460068012200F084FF6F
:1020E0000B492068884202D00A49884203D1416CDA
:1020F00041F4004141642068816801F0070106292C
:1021000003D0016841F001010160002010BD000012
:1021100000000140000401407047000070B50268F3
:1021200004461068D168536910F00F0F52D003F0C5
:10213000010501F490762E435FD0C20705D0CA0591
:1021400003D5E26B42F00102E263420705D5DA07EC
:1021500003D0E26B42F00202E263820705D5DA07A0
:1021600003D0E26B42F00402E263020707D501F0FC
:1021700020022A4303D0E26B42F00802E263E26BE2
:10218000002A33D0800604D5880602D5204601F007
:1021900046F820684069E16BC0F38010090700D45D
:1021A00028B3204601F02DF82068416949061AD568
:1021B000416921F040014161606BA0B11B4901659B
:1021C000606BFEF78BFD002810D0606B016DBDE8E1
:1021D00070400847830610D58B060ED52046BDE813
:1021E000704001F01CB82046FFF796FF70BD2046F6
:1021F000FFF792FF0020E06370BD030606D50B06D3
:1022000004D52046BDE8704001F0E8B84006F3D59B
:102210004806F1D5D168204621F04001D160202147
:1022200084F8391000F00FF970BD0000F331000898
:1022300070B5040004D094F83900002510B106E010
:10224000012070BD84F83850204600F023F8242087
:1022500084F839002068C16821F40051C16020462B
:1022600001F028F82068016921F49041016120689B
:10227000416921F02A0141612068C16841F400519F
:10228000C160E563202084F8390084F83A0000201A
:1022900070BD000010B586B0044614216846FDF7F5
:1022A000D9FF18492068884229D1174800210268BF
:1022B00042F010020260006800F010000590124821
:1022C0001438026842F001020260006800F0010068
:1022D00005904FF4C06000900220CDE90101032079
:1022E00003900720049069460848FEF71BFD002272
:1022F00011462520FFF700FA2520FFF7EFF906B079
:1023000010BD0000001001404438024000000240AF
:1023100090F83A30202B22D1F9B1F2B190F8383050
:10232000012B1CD081628285C2850021C1632222DB
:1023300080F83A2080F838100168CA6842F4807248
:10234000CA6001684A6942F001024A610068C168D6
:1023500041F02001C1600020704701207047022039
:102360007047000010B500680549884201D101F0AE
:10237000BBF8BDE81040012202490348FFF7C8BF7F
:102380000010014004000020E40100202DE9F84382
:10239000044690F839001F4616460D46202850D1B5
:1023A000B5B1AEB194F8380001284AD0012084F8C4
:1023B00038004FF00008C4F83C80212084F8390030
:1023C000FEF796FDA6848146E68484F8388026E0F0
:1023D0000120BDE8F883E08C401EE084A0684B46F5
:1023E000B0F5805F4FF000024FF08001204600976B
:1023F00003D001F024F8E8B90DE001F020F8C8B9E5
:1024000028882168C0F308004860206908B16D1C65
:1024100005E0AD1C03E0216815F8010B4860E08C75
:102420000028D8D14B46002240212046009701F0D9
:1024300006F808B10320CCE7202084F839000020FA
:10244000C7E70220C5E77047FEE701684A69D24343
:1024500052050FD46FF480624A61002140F8301FAA
:10246000202242738173026942F004020261017307
:1024700001207047002070472DE9F84F0446C06ADC
:102480001E4693460D4621680A6842F480620A603F
:10249000082807D0012805D010F5803F02D0206B16
:1024A000112804D12068016841F4807101604FF067
:1024B00001195B46002249462046009600F044F987
:1024C0004FF4007840B120680068C00501D5C4F819
:1024D00040800320BDE8F88F2069DFF884A0B0F5C4
:1024E000804F0FD00620216800EAD51747F0F00092
:1024F000086133465A460AF10601204600F058F9B1
:1025000058BB03E0E8B240F001001CE02168E8B2EB
:10251000086133465A465146204600F049F9E0B971
:102520002068416981690091016841F4807101600E
:102530005B46002249462046009600F005F9002837
:10254000C1D147F0F1002168086133465A4651462F
:10255000204600F02DF90028BCD00120BAE7000089
:1025600002000100F8B50446C06A1E460D46174633
:10257000082807D0012805D010F5803F02D0206B35
:10258000122804D12068016841F48071016013466B
:1025900000224FF001112046009600F0D5F840B11E
:1025A00020680068C00502D54FF400702064032045
:1025B000F8BD2069B0F5804F0ED00620216800EAF2
:1025C000D51040F0F000086133463A460B492046EA
:1025D00000F0EEF878B902E005F0FE0000E0E8B2A5
:1025E00021680861054933463A46891F204600F0B4
:1025F000DFF80028DCD00120F8BD00000800010051
:102600002DE9F84F0446006889460B9D01689846FD
:10261000174641F4806101602068016841F48071CF
:10262000016000954FF0011B0022594620460A9B8D
:1026300000F08AF84FF4007A40B120680068C005C5
:1026400001D5C4F840A00320BDE8F88F216809F047
:10265000FE0008612B46284920460A9A00F0A8F897
:10266000F0BB20684169806900902A4620460A999B
:1026700000F01CF940B1206C04283AD120680168B0
:1026800041F40071016034E0FEB2B8F1010F09D0ED
:102690002168380A08612A4620460A9900F006F99E
:1026A0000028E8D1206806612A4620460A9900F0F1
:1026B000FDF80028DFD12068016841F480710160D5
:1026C00000950022594620460A9B00F03DF800285C
:1026D000B3D1216809F0FF0040F00100086100E07B
:1026E00007E02B46044920460A9A00F061F80028CA
:1026F000AAD00120A8E700000200010070B516462C
:102700000D4604460DE02046FFF79FFE08B101206C
:1027100070BD681C05D0FEF7EBFB801BA84207D8F4
:1027200035B120684069C0434007ECD4002070BD3B
:10273000002044F8300F20216173A073216941F01B
:10274000200121612073E2E72DE9F0471E46904603
:102750000D460446C1F30747DDF8209008E0701CE1
:1027600006D0FEF7C5FBA0EB0900B0420FD876B14A
:102770002068012F18D0806925EA00000004000CB1
:1027800014D000214145EAD00020BDE8F0870020A8
:1027900044F8300F20216173A073216941F02001BA
:1027A000216120730120F0E74069E5E70121E9E7B5
:1027B0002DE9F0479A4691460E46044600254FF013
:1027C0002008C1F3074725E020684069C043400561
:1027D00014D42068016841F40071016021686FF42D
:1027E00080604861256384F83D8084F83E50206C09
:1027F00040F00400206484F83C501FE0B9F1FF3F32
:1028000008D0FEF775FBA0EB0A0149450CD8B9F1D9
:10281000000F09D02068012F13D0806926EA00003C
:102820000004000C0BD0CFE744F8305F84F80D8033
:10283000A573206940F02000206125730120BDE8C8
:10284000F0874069EAE72DE9F041002590460E4601
:102850000446202717E04069C043C0060CD454F852
:10286000301B6FF01000486144F810596777A57766
:10287000206A2062257717E0FEF73AFBA0EB0800FC
:10288000B04208D83EB120684169C9434906E2D444
:102890000020BDE8F08144F8305F6773A5732069BC
:1028A00040F02000206125730120F2E770B5164644
:1028B0000D4604460DE02046FFF7C7FD08B1012094
:1028C00070BD681C05D0FEF713FB801BA84207D81B
:1028D00035B120684069C0430006ECD4002070BDCB
:1028E000002044F8300F20216173A073216941F06A
:1028F000200121612073E2E7F0B5054687B0174655
:102900000E466422032103A88DE807006C00012312
:10291000324621461548FEF73BFD8DF81040012058
:102920008DF8116000EB45008DF812009DF80C0049
:102930008DF813009DF80D008DF81400052104A8F2
:10294000FEF7BAF99DF80E10BDF80C40814200D098
:102950000024012F07D1CDE9001023463246294635
:10296000012000F025F807B02046F0BDD00000207F
:1029700010B50022FFF7C0FFFDF7FFFD9FED081B1C
:1029800053EC112BFDF718FD9FED071B53EC112B9A
:10299000FDF70CFDFDF711FE00EE100A10BD000062
:1029A0007B14AE47E17A943F6666666666127140B4
:1029B0007FB50D4CDDE90865246858B1012808D1C0
:1029C00003958DE84C000B46084A0421204601F08F
:1029D000FDF87FBD8DE82C000B4605A204212046A2
:1029E00001F0F4F87FBD0000300000201849000815
:1029F00057204465763A203078253032582C2052C2
:102A000065673A203078253032582C204461746153
:102A10003A203078253034582C20435243385F63B5
:102A2000616C633A3078253032580D0A000000009E
:102A3000154882B00021026842F004020260026878
:102A400002F004020092026842F001020260026891
:102A500002F001020092026842F002020260006885
:102A60000A4A00F00200009009480260094AC0E9E1
:102A700001214FF48042C0E9031241618161C161CB
:102A8000016202B0FEF73ABA303802400058004006
:102A9000D0000020A086010030B587B01421684620
:102AA000FDF7D8FB21480024016841F010010160C6
:102AB000016801F010010591016841F08001016099
:102AC000016801F080010591016841F00101016098
:102AD000016801F001010591016841F00201016006
:102AE000016801F002010591016841F004010160F3
:102AF00000680F4D00F004000590002230212846A8
:102B0000FEF7F1F9F020CDE9000469460948029486
:102B1000FEF708F9302000900120CDE90104694654
:102B200028460394FEF7FEF807B030BD3038024067
:102B300000000240001002400D4810B50B49016032
:102B40000C49416000214FF480428160C0E90312CA
:102B500041618161C1610162FEF7D0F9002803D0B3
:102B6000BDE81040FEF7B9B810BD000000540040A9
:102B70007C000020A08601000D4810B50B490160C3
:102B80000C49416000214FF480428160C0E903128A
:102B900041618161C1610162FEF7B0F9002803D093
:102BA000BDE81040FEF799B810BD00000058004085
:102BB000D0000020A086010010B596B000240F942C
:102BC00010941194129413941C2168461494FDF7E8
:102BD00041FB202107A8FDF73DFB35483349016043
:102BE00040F24731C0E901146321C0E90314802198
:102BF000C0E90541FFF7D0F808B1FEF76EF84FF4D1
:102C000080500F900FA92A48FFF708F908B1FEF786
:102C100064F82748FFF742FA08B1FEF75EF813940C
:102C200013A923481494FFF76FF808B1FEF755F87D
:102C30006020CDE9000402940394049405940022DA
:102C400069461B480694FFF7C1F908B1FEF745F83D
:102C5000042269461648FFF7B9F908B1FEF73DF8B6
:102C6000082269461248FFF7B1F908B1FEF735F8B6
:102C70000C2269460E48FFF7A9F908B1FEF72DF8B6
:102C80000794089409944FF400500A94CDE90B403E
:102C900007A907480E94FFF70DF808B1FEF71DF8D5
:102CA0000348FFF727F916B010BD000000000140EF
:102CB0002401002010B58EB00024079408940994D4
:102CC0000A940B941C2168460C94FDF7C3FA234820
:102CD0004FF08041016040F24731C0E901144FF4E8
:102CE000FA61C0E9031480218161FFF755F808B14A
:102CF000FDF7F3FF4FF48050079007A91748FFF73F
:102D00008DF808B1FDF7E9FF1448FFF7C7F908B1DE
:102D1000FDF7E3FF0B940BA910480C94FEF7F4FFAA
:102D200008B1FDF7DAFF6020CDE90004029400222B
:102D300069460A480494FFF749F908B1FDF7CDFF49
:102D4000042269460548FFF741F908B1FDF7C5FFC0
:102D50000248FFF7CFF80EB010BD0000640100205C
:102D600010B58EB000240794089409940A940B942B
:102D70001C2168460C94FDF76DFA23482149016037
:102D800040F24731C0E9011440F2CF71C0E90314A9
:102D900080218161FFF700F808B1FDF79EFF4FF435
:102DA0008050079007A91848FFF738F808B1FDF7D9
:102DB00094FF1548FFF772F908B1FDF78EFF0B94E9
:102DC0000BA911480C94FEF79FFF08B1FDF785FF92
:102DD0006020CDE900040294002269460A48049468
:102DE000FFF7F4F808B1FDF778FF042269460648BA
:102DF000FFF7ECF808B1FDF770FF0348FFF77AF82A
:102E00000EB010BD00040040A40100200C4810B515
:102E10000A4901604FF4E1314160002181600C22D8
:102E2000C160C0E904128161C161FFF701FA0028A5
:102E300003D0BDE81040FDF750BF10BD00100140A9
:102E4000E4010020FEE7000010B500210848FFF76C
:102E500041F904210648FFF73DF908210448FFF72E
:102E600039F9BDE810400C210148FFF733B90000E3
:102E700024010020704770477047FEF7D5BB000063
:102E800030B593B030216846FDF7E4F914210CA861
:102E9000FDF7E0F919480025016841F08051016013
:102EA000006800F0805011901548016841F480419D
:102EB00001600068022400F480401190012000901D
:102EC000000401908001CDE9064004200890A8206C
:102ED000CDE9090407200B906846FEF729FD0CA9EF
:102EE0000F2081E831004FF4A0500F90E0021090C5
:102EF00005210CA8FEF732FC13B030BD403802406B
:102F0000007000400548016841F470010160034908
:102F10004FF00060803908607047000088ED00E0E5
:102F2000F0B50268254C264D264E274F274B4FF013
:102F3000804CA04209D0604507D0A84205D0B042DD
:102F400003D0B84201D0984204D122F0700E4A68F2
:102F500042EA0E02A0421BD0604519D0A84217D009
:102F6000B04215D0B84213D0984211D0184DA842A3
:102F70000ED0184DA8420BD0174DA84208D0174DBF
:102F8000A84205D0164DA84202D0164DA84203D142
:102F900022F44075CA682A434D6922F080022A4310
:102FA00002608A68C2620A688262A04201D09842C6
:102FB00001D10969016301214161F0BD00000140B7
:102FC0000004004000080040000C004000040140E4
:102FD000004001400044014000480140001800400A
:102FE000001C00400020004010B501F01F0301212B
:102FF000046A99408C430462016A9A401143016259
:1030000010BD10B5846842EA032224F47F440A43C9
:103010002243826010BD826822F070020A4342F0AF
:103020000701816070470000F0B5026A22F00102DA
:103030000262036A42688469124E24F073050C68C8
:103040002C4323F002058B682B430D4DA84201D081
:10305000B04205D123F00807CB683B4323F00403BB
:10306000A84201D0B04205D14D6922F44072154307
:103070008A692A4342608461496841630362F0BD02
:103080000000014000040140F0B5026A22F0100285
:103090000262026A436884690D6824F4E64444EAE3
:1030A00005248D6822F0200242EA05120F4D104ED1
:1030B000A84201D0B04206D1CF6822F0800242EA95
:1030C000071222F04002A84201D0B04207D14D6958
:1030D00023F4406343EA85038D6943EA8503436033
:1030E0008461496881630262F0BD00000000014014
:1030F00000040140F0B5026A22F480720262026AA2
:103100004368C46922F4007224F073050C68124EFF
:103110002C438D6842EA05220E4DA84201D0B042F0
:1031200006D1CF6822F4006242EA072222F48062CC
:10313000A84201D0B04207D14D6923F4405343EA7D
:1031400005138D6943EA05134360C4614968C1638F
:103150000262F0BD000001400004014030B5026A87
:1031600022F480520262046A4268C3690D6823F443
:10317000E64343EA05238D6824F4005444EA053409
:10318000084DA84202D0084DA84204D14D6922F44E
:10319000804242EA85124260C36149680164046268
:1031A00030BD0000000001400004014010B5036A7A
:1031B000046A24F001040462846924F0F00444EAFF
:1031C000021423F00A020A438461026210BD10B5A2
:1031D000036A23F0100303628369046A23F47043D3
:1031E00043EA023224F0A00343EA01118261016242
:1031F00010BD10B5806B0021C185C184FEF78CFF26
:1032000010BD0168CA6822F49072CA6001684A69F8
:1032100022F001024A61202180F83A10704710B56F
:1032200090F83A10222901D0022010BD8168B1F532
:10323000805F11D00169002901681FD0496801F041
:103240007F03816A4A1C82620B70C18D491E09048A
:10325000090CC18518D02BE00269816A002A026836
:10326000526805D0D2B20A80816A491C8162ECE7BB
:10327000C2F308020A80816A891CF7E74A68816AFA
:103280004B1C83620A70E0E70168CA6822F02002E2
:10329000CA600168CA6822F48072CA6001684A691B
:1032A00022F001024A61202180F83A10FFF75AF813
:1032B000002010BD2DE9F041044600680169E26874
:1032C00021F44051114301612169A068E26908437A
:1032D0006169114308432168CA6849F20C639A4343
:1032E0000243CA6020684169A26921F44071114318
:1032F0004161E069192764253226B0F5004F354A4F
:10330000354920684FF0000806D0884201D090422D
:1033100036D1FEF7CDFA35E0884201D0904202D195
:10332000FEF7C6FA01E0FEF7B3FA61684A18A0FB9F
:10333000070148EB0803FCF743FF0146B0FBF5F03B
:103340000201B1FBF5F06FF01803584301EB800068
:1033500006EBC000B0FBF5F000F0F80002EB400215
:10336000B1FBF5F0584301EB800006EBC000B0FB69
:10337000F5F000F00700216810448860BDE8F08196
:10338000FEF786FA61688B0F8A00A0FB0701FCF745
:1033900017FF0146B0FBF5F06FF01802504301EB48
:1033A000800006EB0010B0FBF5F000F0F002B1FB7E
:1033B000F5F002EB0012B1FBF5F06FF01803584383
:1033C00001EB800006EB0010B0FBF5F000F00F0001
:1033D000D1E70000001401400010014090F83910BE
:1033E000212901D0022070478168B1F5805F016A10
:1033F0000BD04A1C0262026809785160C18C491ED8
:103400000904090CC1840ED017E009880268C1F3D1
:103410000801516001690029016A02D0491C01625A
:10342000ECE7891CFBE70168CA6822F08002CA60E9
:103430000068C16841F04001C160002070472DE97B
:10344000F041984617460E460446069D1DE0681C4E
:103450001BD02DB1FDF74CFDA0EB0800A84214D9FC
:103460002068C16821F4D071C1602068416921F0F1
:1034700001014161202084F8390084F83A000020DD
:1034800084F838000320BDE8F0812068006836EA3F
:10349000000004D00020B842D9D00020F3E701207A
:1034A000F9E700000148FEF739BE0000E401002002
:1034B00010B5094800F0B4FB51EC100BFDF77DF896
:1034C00006490860064800F0ABFB51EC100BFDF715
:1034D00074F80449086010BD0C000020180000209A
:1034E000110000201C0000202DE9F0413148334C30
:1034F00031490278207800250A54401CC0B220705F
:103500000A78572A53D10A1812F8012C582A4FD199
:103510002B4B01222B261A6091F801C00223294A65
:10352000BCF1410F0AD02D27BCF1420F14D0BCF1E1
:10353000430F1FD0BCF1440F37D129E016706370E0
:10354000401E05E0CE5CD7185B1C07F8016C637069
:10355000DBB28342F6DB28E017706370401E05E0A3
:10356000CE5CD7185B1C07F8016C6370DBB283423A
:10357000F6DB1AE016706370401E05E0CE5CD718CB
:103580005B1C07F8016C6370DBB28342F6DB0CE076
:1035900017706370401E05E0CE5CD7185B1C07F8FF
:1035A000016C6370DBB28342F6DBFFF781FF2570AD
:1035B000BDE8F081040000206800002038000020F1
:1035C000000000200C000020FEE71FB582B00020A4
:1035D0008DF80000089C6A46E52102A800F0DAF8A0
:1035E0009DF80010217006B010BD1FB584B002A870
:1035F0000A9C0DF1100C00909CE80F0000F02AF8D6
:1036000001AA312104A800F0C5F800280BD19DF8CB
:1036100004109DF8082001F00101914201D101211F
:1036200000E00021217008B010BD1FB501228621E5
:10363000684600F0F1F804B010BD1FB582B06A46CC
:10364000962102A8089C00F0C3F8BDF80010218064
:1036500006B010BD1FB582B06A46302102A8089C92
:1036600000F098F89DF8001001F010018DF800109E
:10367000090903D00021217006B010BD0121FAE72D
:103680001FB582B06A46892102A8089C00F082F822
:103690009DF8001001F01F018DF80010C91E1529BA
:1036A0002AD2DFE801F01913170D1D150B29291F68
:1036B0002729292929211B2929232500002100E068
:1036C00001218DF80010217006B010BD0221F8E72D
:1036D0000321F6E70421F4E70521F2E70621F0E7EC
:1036E0000721EEE70921ECE70A21EAE70B21E8E7E9
:1036F0000C21E6E70D21E4E7FF21E2E77FB582B088
:1037000000251B4E8DF804502D243019214610F849
:103710002D2C02A800F080F8641CE4B2872CF4D9A8
:1037200002AC94E80F0000F025F806E001A802AC16
:10373000009094E80F00FFF758FF9DF80400002860
:10374000F4D002AC8DF8045094E80F00FFF76DFF41
:1037500094E80F0000F016F80922082102A800F0F2
:103760005BF800220B2102A800F056F806B070BDED
:103770007C4800081FB540228721684600F04CF8BD
:1037800004B010BD1FB500228721684600F044F840
:1037900004B010BD2DE9F04106460C4815460A0A52
:1037A00002704170014600240222304600F064F9A4
:1037B0006FF00C0728B901222946304600F04EF977
:1037C00000B13C462046BDE8F08100002402002004
:1037D0002DE9F0410F4C8046080A207016466170B2
:1037E000002502222146404600F046F96FF00C0702
:1037F00028B902222146404600F030F908B13D4682
:1038000004E06078217800EB012030802846BDE894
:10381000F08100002402002070B5034607480D0A1D
:10382000002405704170827001460322184600F0A2
:1038300023F908B16FF00C04204670BD240200206B
:1038400010B586B000F024F919480024016841F051
:1038500002010160006800F0020005901448103079
:10386000016841F4001101600068694600F400102D
:1038700005904FF4407000901220CDE9010404201F
:10388000CDE903400B48FDF74DFA0C480A490160A9
:103890000B49C0E901144FF48041C0E90341446180
:1038A0008461C4610462FDF729FB06B010BD00000D
:1038B000303802400004024000540040240300203D
:1038C000801A060038B5FFF7BBFF02236A460021C5
:1038D000862000F075F8002838D19DF800100029E6
:1038E00034D19DF80110162930D102236A460021F7
:1038F000842000F065F8002828D19DF800100029E8
:1039000024D19DF80110162920D1114DFF24022346
:1039100028608DF800408DF801406A461421862009
:1039200000F06CF8002811D18DF80040BF208DF810
:10393000010002236A461421842000F05FF8002869
:1039400004D16FF0C020286000F072F838BD00008C
:103950003C000020194A632853780DD005DCC0B123
:10396000012809D0022804D11AE06C2811D072284D
:1039700016D04FF0FF307047D07820F08000D07024
:1039800011B140F08000D070012313218420D21C9B
:1039900011E023F04000507049B140F0400005E0D4
:1039A00023F08000507011B140F08000507001236E
:1039B00013218620521C00F021B800003C0000209A
:1039C0007CB5054664201C4616468DF80410009010
:1039D000A9B2012301AA0848FDF744FC002809D137
:1039E000642104FB01F00090A3B2A9B23246024860
:1039F000FDF748FB7CBD00002403002030B585B0F6
:103A00001C46134605468DF80410224619460DF152
:103A10000500FCF706FC6420641C0090A3B2A9B268
:103A200001AA0248FDF71EFC05B030BD24030020AA
:103A300010B50223084A12218620FFF7DFFF002875
:103A400008D1054A0223921C1221BDE810408420AF
:103A5000FFF7D4BF10BD00003C00002038B502F1D4
:103A60000A03009393B28278C06842F001040A46C8
:103A70002146FDF707FB38BD38B502F10A03009374
:103A800093B284780A46C0682146FDF7EBFB38BD47
:103A90002DE9F04FDFF80881002687B0D8F8001034
:103AA000B24641F00201C8F80010D8F80000012227
:103AB00000F002003B4C1702069039462046FDF705
:103AC00012FA0122550229462046FDF70CFA4FF45E
:103AD0004070019011204FF00109CDE9020901A9C0
:103AE0002046FDF71FF9AB46002500223946204647
:103AF000FDF7F9F90120FDF703F9012239462046C7
:103B0000FDF7F1F90120FDF7FBF86D1C0A2DECDB48
:103B100059462046FDF7E2F918B93046761C0728C9
:103B2000E2DB59462046FDF7D9F9002835D1D8F80F
:103B3000002042F00102C8F80020D8F8000001A9D6
:103B400000F001000090202081E80106164C20467C
:103B5000FDF7E8F84FF42575012220212046FDF7F6
:103B6000C2F92120FDF7CCF8002220212046FDF7E4
:103B7000BAF92120FDF7C4F8012220212046FDF7E3
:103B8000B2F92120FDF7BCF8002220212046FDF7E4
:103B9000AAF92846FDF7B4F8DEE707B0BDE8F08FD4
:103BA0003038024000040240000002400FB4054BD0
:103BB00010B503A9044A029800F034F910BC5DF86E
:103BC00014FB000069450008600000200FB41CB51C
:103BD0000246002007AC00290BD0491ECDE9002188
:103BE000054B6A462146069800F01CF9009A002110
:103BF00011701CBC5DF814FB534500080907090E41
:103C0000002804DB00F1E02080F80014704700F089
:103C10000F0000F1E02080F8141D70470000000044
:103C200030B583B0044600F017F89FED090B054648
:103C30008DED000B002221466846FCF73CFD28462E
:103C400000F020F89DED000B03B030BD0000000037
:103C500000000000000000000148006870470000FC
:103C60006400002002E008C8121F08C1002AFAD12F
:103C700070477047002001E001C1121F002AFBD1EC
:103C80007047000001490860704700006400002090
:103C90002DE9FF5F82B00021DDE90430020DDDF87F
:103CA00040B0034318D044F61050A2F2FF32424312
:103CB0001514119801281FD0A5EB0B00401C5FEADA
:103CC000000A4FF000064E4FDFF83891B0465046DC
:103CD00015D5CAF1000413E0119801244AA3012864
:103CE00001D16FEA0B010298119AC0E90031C0E9D5
:103CF000024206B0BDE8F09FCBF10000DFE70446CA
:103D00000021404A491842EB0450CDE9001012E06E
:103D1000E00707D032463B4640464946FCF74CFB9D
:103D20008046894632463B4610461946FCF744FB1E
:103D300006460F466410002CEAD1DDE90401DDE9F6
:103D40000023BAF1000F06DAFCF736FB42464B4679
:103D5000FCF732FB05E0FCF7A1FB42464B46FCF7C3
:103D60009DFB04460E460022284BFCF783FD03D83A
:103D70004FF0FF30014607E00022254B2046314638
:103D8000FCF773FAFCF75EFD102409E0002C0ADB57
:103D90000A220023FCF714FA039B30321A55641EE2
:103DA00050EA0102F2D1641C039AC4F111031444D5
:103DB000119A012A03D0012208430DD10AE00843D9
:103DC00004D000204FF0110B119072E7A3EB0B050C
:103DD0006D1E0DE05B4504DD4FF0000205F10105AD
:103DE00004E003DA4FF00002A5F10105002AECD04F
:103DF00002981199C0E90231C0E9004579E7000055
:103E0000000014400000F03F300000000000F043CC
:103E10000000E03F30380A2801D20120704700201E
:103E2000704700002DE9FF4F95B09B468946064636
:103E300000250FE2252877D100242746F84A0121E2
:103E4000059400E0044316F8013F203B01FA03F01B
:103E50001042F7D130782A2811D06FF02F03307834
:103E6000A0F13002092A16D8059A44F0020402EBA8
:103E7000820203EB42021044761C0590EFE759F8EA
:103E8000042B0592002A03DA504244F400540590B2
:103E900044F00204761C30782E2816D116F8010F53
:103EA00044F004042A280DD06FF02F023078A0F1DE
:103EB0003003092B09D807EB870302EB4303C7182C
:103EC000761CF3E759F8047B761C30786C280FD009
:103ED00006DC4C2817D068280DD06A2814D104E0DD
:103EE000742810D07A280FD10DE044F400140AE0B1
:103EF00044F4801401E044F440147278824202D108
:103F000004F58014761C761C307866280BD013DC00
:103F1000582877D009DC002875D04528F6D04628E7
:103F2000F4D047281AD19DE118E0632835D06428E1
:103F300079D0652812D195E1702873D008DC672804
:103F4000F1D069286FD06E280DD06F2806D1B5E06A
:103F500073282CD0752875D0782874D05A461799B4
:103F600090476D1C75E1C4F30250022809D0032864
:103F70000DD0D9F8001004280DD00D6009F1040906
:103F800067E1D9F80010EA17C1E90052F6E7D9F85D
:103F900000100D80F2E70D70F0E719F8041B8DF8A2
:103FA000001000208DF80100EA46012003E059F8D6
:103FB00004AB4FF0FF3061074FF0000102D40DE079
:103FC00008F101018846B9420FDA8045F8DB1AF89A
:103FD00008100029F4D108E008F101018846814267
:103FE000FADB1AF808100029F6D105985B46A0EB19
:103FF000080721463846179A00F094FA284400EB47
:10400000080507E04DE029E10DE01AF8010B5A46DA
:1040100017999047B8F10108F7D25B462146384618
:10402000179A13E142E00A220092C4F302524FF0C1
:10403000000A022A08D059F804CB032A4FEAEC718F
:104040000AD00DE029E02AE009F1070121F007027A
:10405000F2E802C1914609E00FFA8CFC4FEAEC71DC
:10406000042A03D14FFA8CFC4FEAEC71002907DADD
:104070000A460021DCF1000C61EB02012D2202E076
:10408000220504D52B228DF80420012203E0E2074B
:1040900001D02022F7E7904659E00A2102E01022E1
:1040A0000DE010214FF0000A00910BE010224FF0BC
:1040B000000A44F004040827009203E008224FF0AD
:1040C000000A0092C4F30252022A05D059F804CB28
:1040D0000021032A08D009E009F1070121F00702B5
:1040E000F2E802C1914605E01FFA8CFC042A01D1D6
:1040F0000CF0FF0C4FF00008220728D5702806D0DE
:10410000009B83F0100353EA0A0305D00EE040221F
:104110008DF80420012208E05CEA010206D030227A
:104120008DF804208DF8050002229046009B83F054
:10413000080353EA0A030AD15CEA010201D16207CB
:1041400005D530228DF804204FF001087F1E582835
:1041500004D034A003900EA802900DE036A0F9E739
:1041600053466046009AFCF72BF884460398825C1D
:104170000298401E029002705CEA0100F0D10298A1
:1041800006A9081A00F1200A600702D524F4803439
:1041900000E00127574502DDA7EB0A0000E0002000
:1041A00000EB0A01009005984144401A0590E00395
:1041B00006D45B462146179A059800F0B3F90544EA
:1041C000002706E001A85A46C05D179990476D1C6C
:1041D0007F1C4745F6DBE0030CD55B462146179A6A
:1041E000059800F09FF9054404E030205A461799DD
:1041F00090476D1C0099481E00900029F5DC08E0EE
:10420000029802995A460078491C029117999047E2
:104210006D1CBAF10001AAF1010AF1DC65E10000B0
:10422000092801003031323334353637383961628C
:104230006364656600000000303132333435363750
:1042400038394142434445460000000000F058F927
:104250000544761C307800287FF4ECAD19B0284670
:10426000BDE8F08F620700D4062709F1070222F0AB
:10427000070CFCE80223E14603F000485FEA080C63
:1042800002D00FF2702C0DE05FEA045C02D50FF251
:10429000682C07E05FEAC47C02D00FF2602C01E0DA
:1042A000AFF2700C4FF0FF3823F00043CDF850C050
:1042B00065280CD006DC452809D046281DD04728A3
:1042C0003DD13DE0662818D067287ED138E0002136
:1042D000112F01DB112000E0781CCDE9000106A9B7
:1042E0000EA8FFF7D5FCDDE90F010E9A039100211E
:1042F000009207F1010A04914DE04FF00040009751
:10430000CDE9011006A90EA8FFF7C2FCDDE90F02F6
:1043100003920E9B11990022DDF80CA000930492E9
:1043200011B9791C00EB010AB7EB0A0004D4C0F103
:10433000FF3007F1010A0490AAEB0700019044E066
:10434000012F00DA01270021112F01DD112000E0EB
:104350003846CDE9000106A90EA8FFF799FCDDE972
:104360000F010E9A0391002104910092BA46210791
:104370000CD40399514500DA8A46BAF1010F05DDE4
:10438000009AAAF10101515C302908D0B84202DA42
:1043900010F1040F06DA0121CDE9011015E0AAF1B0
:1043A0000101E9E7002805DC049901440491AAEB26
:1043B000000102E0411C514500DD8A460499401A83
:1043C000401C01904FF000400290200704D4019857
:1043D000504501DBCDF8048000208DF84F00029895
:1043E0000DF14F07B0F1004F25D02B200E90029811
:1043F0004FF0020800280CDA404202902D200E9067
:1044000007E00A210298FCF7F4F83031029007F82F
:10441000011DB8F10001A8F10108F2DC02980028A2
:10442000EFD1791E0E980870307800F0200040F02F
:10443000450007F8020D12A8C01B00F107081498E8
:10444000007800B1012000EB0A01019801EBE07156
:1044500005984144401A401E0590E00306D45B468F
:104460002146179A059800F05DF8054414980078E5
:1044700018B15A46179990476D1CE00324D55B4646
:104480002146179A059800F04DF805441CE0049861
:10449000002807DBDDE90301884203DD0098405C6A
:1044A000179901E0179930205A469047049805F172
:1044B0000105401C04900198401E019004D12E205B
:1044C0005A46179990476D1CBAF10001AAF1010AEA
:1044D000DDDC05E017F8010B5A46179990476D1C73
:1044E000B8F10001A8F10108F4DC5B462146179AF7
:1044F0000598ABE62D0000002B0000002000000016
:104500002DE9F041044600251E461746880404D4D0
:1045100005E039462020B0476D1C641EF9D52846B9
:10452000BDE8F0812DE9F041044600251E46904685
:10453000C80301D5302700E02027880404D505E012
:1045400041463846B0476D1C641EF9D52846BDE883
:10455000F0814A68002A06D00A68531C0B6010706C
:104560004868401E4860704738B504468DF8000022
:104570003223012269460248FDF708FF204638BD74
:10458000E401002008B5FDF757F8FEF779FCFEF7C7
:1045900083FAFEF711FBFEF739FCFEF7CDFAFEF7C2
:1045A00089FBFEF7E9FAFEF7DBFBFEF74DFCFEF7B1
:1045B0003FFA012212491348FDF7AAFE00F084F8E1
:1045C00000F03AF80E4C104D4FF4FA7600F04EF829
:1045D00007210020FEF7CCF984ED010A10EE100A45
:1045E000FBF7D8FF41EC100B2888009053EC102B00
:1045F00006A0FFF7DBFA3046FCF782FBE6E7000097
:1046000004000020E401002058000020CEEFCCE59B
:10461000CEC2B6C820252E326609BEE0C0EB2025EA
:104620002E646D6D000000000249AA2009688863AD
:10463000704700006401002010B500210648FDF716
:1046400049FD04210448FDF745FD00F007F8BDE8E9
:104650001040FFF7E9BF0000640100200249C820B4
:10466000096848637047000064010020F8B5154CE4
:10467000134D261D08E0009695E80F00FEF7B5FFE4
:10468000E0600220FCF73CFB20790028F3D00020FA
:1046900020710C48C01C009095E80F00FEF7F0FF59
:1046A000E06008480830009095E80F00FEF7C5FF6D
:1046B000E06095E80F00FEF7B8FFE060F8BD00008D
:1046C0007803002050000020F8B5FFF7FBF8234DD9
:1046D0002148234CE8605220A8700120607000211E
:1046E000FFF738F9E0600220FCF70AFB012160784F
:1046F000FFF730F9E0600220FCF702FB40F20F16F2
:10470000A21C31462846FFF745F8E060A21C711C48
:104710002846FFF73FF8E060A21D31462846FFF724
:1047200057F82646E06008E0009695E80F00FEF78F
:104730004CFFE0600220FCF7E3FA20780028F3D079
:1047400095E80F00FEF7DAFFE06095E80F00FFF74D
:1047500011F8E060F8BD00007C0000207803002024
:1047600050000020000000000000000001020304CF
:1047700006070809000000000102030400070E09F3
:104780001C1B1215383F363124232A2D70777E7971
:104790006C6B6265484F464154535A5DE0E7EEE961
:1047A000FCFBF2F5D8DFD6D1C4C3CACD90979E9951
:1047B0008C8B8285A8AFA6A1B4B3BABDC7C0C9CE41
:1047C000DBDCD5D2FFF8F1F6E3E4EDEAB7B0B9BE31
:1047D000ABACA5A28F88818693949D9A2720292E21
:1047E0003B3C35321F18111603040D0A5750595E11
:1047F0004B4C45426F68616673747D7A898E878001
:1048000095929B9CB1B6BFB8ADAAA3A4F9FEF7F0F0
:10481000E5E2EBECC1C6CFC8DDDAD3D4696E6760E0
:1048200075727B7C51565F584D4A4344191E1710D0
:1048300005020B0C21262F283D3A33344E494047C0
:1048400052555C5B7671787F6A6D64633E393037B0
:1048500022252C2B0601080F1A1D1413AEA9A0A7A0
:10486000B2B5BCBB9691989F8A8D8483DED9D0D790
:10487000C2C5CCCBE6E1E8EFFAFDF4F3000000019D
:1048800002000208000810010100000000FF000FF4
:104890000000000000200B0000020A2100000500BB
:1048A000000000C8000038FF010008000001CC0F24
:1048B00001F10D0168008008B8000000000F8900B8
:1048C000000000000000010F0D0E0E000002C7FFE7
:1048D0009B000000010000DDDDDDDDDCBBBBDDDDBC
:1048E000DDDDDDDDDDDDDD988888888888888877F6
:1048F00077777777888888855555566666666666C1
:1049000066666666688888833333322222222222D2
:104910002222222228888D0052204465763A2030B7
:1049200078253032582C205265673A20307825306F
:1049300032582C20446174613A2030782530345844
:104940002C20435243385F696E3A30782530325814
:104950002C20435243385F63616C633A30782530D2
:1049600032580D0A000000008849000800000020AD
:1049700068000000643C0008F0490008680000205E
:1049800020070000743C0008000000000000000048
:104990000000000000000000000000000000000017
:1049A00000000000000000000100000010000000F6
:1049B000000000000024F40064490008000000002A
:1049C00000000000000000000000000007000000E0
:1049D00010000000170000000001000000000000AF
:1049E00000000000000000000000000000000000C7
:040000050800018965
:00000001FF
