:020000040800F2
:10000000802C00209D01000881300008D9260008BE
:1000100051300008F70D00081538000800000000F6
:100020000000000000000000000000008530000813
:10003000F90D000800000000833000088730000838
:10004000B7010008B7010008B7010008B7010008B0
:10005000B7010008B7010008FB0D0008010E0008F9
:10006000070E0008B7010008B7010008B701000833
:10007000B7010008B7010008B7010008B701000880
:10008000B7010008B7010008B7010008B701000870
:10009000B7010008B7010008B7010008B701000860
:1000A000B7010008B7010008B7010008B701000850
:1000B000B7010008B7010008B7010008B701000840
:1000C000B7010008B7010008B7010008B701000830
:1000D000B7010008BD360008C9360008D53600084B
:1000E000B7010008B7010008B7010008B701000810
:1000F000B7010008B7010008B7010008B701000800
:10010000B7010008B70100082D310008B701000849
:10011000B7010008B7010008B7010008B7010008DF
:10012000B7010008B7010008B7010008B7010008CF
:10013000B7010008B7010008B7010008B7010008BF
:10014000B7010008B7010008B7010008B7010008AF
:10015000B7010008B7010008B7010008B70100089F
:10016000B7010008B7010008B7010008B70100088F
:10017000B7010008B7010008B7010008000000003F
:10018000B7010008B7010008DFF80CD000F00CFC44
:1001900000480047A5420008802C00200648804700
:1001A00006480047FEE7FEE7FEE7FEE7FEE7FEE75C
:1001B000FEE7FEE7FEE7FEE71131000889010008CF
:1001C0002DE9F05F0546002092469B46884606468C
:1001D000814640241BE0284641464746224600F01F
:1001E00053FA53465A46C01A914110D31146184645
:1001F000224600F03AFA2D1A67EB01084F462246D4
:100200000120002100F031FA17EB00094E41201EB9
:10021000A4F10104DFDC484631462A464346BDE8E6
:10022000F09FD2B201E000F8012B491EFBD27047CB
:100230000022F6E710B513460A4604461946FFF7B2
:10024000F0FF204610BD2DE9FE4F804681EA0300F5
:10025000C00F0C46009021F0004123F00045B8EBA0
:100260000200A94105D24046214690461C460B4655
:10027000024623F00040104347D0270DC7F30A0081
:10028000C3F30A510290401A019040286BDAC3F37D
:10029000130040F4801B0098924620B10023D2EB5B
:1002A000030A63EB0B0B01985946C0F1400250461C
:1002B00000F0DBF906460D4650465946019A00F01B
:1002C000F3F910EB08006141002487EA115284EA37
:1002D000E7731A4340D0009A62B3019A012A4FEAA9
:1002E000075215DC001B61EB02014FF0004202EAED
:1002F0000752CDE90042001C41F5801132462B46E1
:1003000000F078FA03B0BDE8F08F40462146F9E7E7
:10031000001B61EB0201001C41F5801300185B41DA
:100320002018A2F5001747EB030140EAD570B61973
:100330006D4111E06D084FEA360645EAC0754FEA97
:100340000752001B61EB0201001C41F580114908B6
:100350004FEA30000019514132462B4603B0BDE848
:10036000F04F00F038BA0098012240000023D0EB93
:10037000020263EBE073009821464FEAE074B8EBA9
:10038000000061EB0401E9E783F000435BE781F0E3
:10039000004158E72DE9FE4F81EA030404F00044D0
:1003A00021F0004100944FF0000B23F0004350EA8D
:1003B00001045ED052EA03045BD0C3F30A54C1F3D4
:1003C0000A552C44A4F2F3340194A0FB0254C1F367
:1003D000130141F48011C3F3130343F4801301FBB1
:1003E000024400FB034E840A970A44EA815447EA18
:1003F0008357A4FB076802958D0A05FB07854FEA22
:10040000932C04FB0C542705029D4FEA065847EA3B
:100410001637B5EB08056EEB070C870E920E47EA10
:10042000811742EA8312A7FB0201B6EB0B0164EBD2
:1004300000042B0D43EA0C335E1844EB1C50DA46E3
:100440005146E7FB0201C5F313044FEA0B3343EABD
:1004500014534FEA0432019C43EA0603A4F10C044E
:100460000294009CCDE900B400F0C4F903B0BDE8EB
:10047000F08F00200146F9E72DE9F04D81EA0304F1
:1004800004F0004B21F0004514464FF0000A23F021
:10049000004150EA050220D054EA01021DD0C5F304
:1004A0000A570246C5F31303C1F31300C1F30A56FA
:1004B00040F4801543F48013A7EB0608101BD646C2
:1004C00008F2FD3873EB050002D308F1010801E0E2
:1004D00092185B41B8F1000F03DA00200146BDE835
:1004E000F08D00204FF48011064684460EE0171B65
:1004F00073EB050705D3121B63EB050306434CEAB8
:10050000010C49084FEA300092185B4150EA01079C
:10051000EDD152EA030012D082EA040083EA050119
:10052000084305D0101BAB4106D20122002306E090
:1005300000224FF0004302E06FF0010253101AEB6B
:1005400006004CEB085110EB0A0041EB0B01BDE833
:10055000F04D00F040B90EB540F233410291002158
:10056000CDE900110A460B4600F044F903B000BD86
:1005700070B5C1F30A5201F000450024C1F3130124
:1005800040F2FF3341F480119A4201DA002070BD3D
:1005900040F233439A42A2F2334203DC524200F06B
:1005A00073F800E090402C43F1D0404270BDC1F39D
:1005B0000A5210B5C1F3130140F2FF3341F4801128
:1005C0009A4201DA002010BD40F233439A42A2F26F
:1005D000334203DC524200F057F810BD904010BD8A
:1005E00000F0004230F000400AD0C10D01F560710A
:1005F000C0F3160042EA0151C20840071143704798
:1006000000200146704701F0004330B421F0004162
:1006100050EA010206D00A0DA2F56072C1F313017F
:10062000002A02DC30BC00207047440F44EAC104B9
:10063000C100E01830BC00EBC25000F095B830B5F6
:100640000B46014600202022012409E021FA02F590
:100650009D4205D303FA02F5491B04FA02F528442A
:10066000151EA2F10102F1DC30BD202A04DB203A84
:1006700000FA02F1002070479140C2F1200320FAF5
:1006800003F3194390407047202A04DB203A21FAF3
:1006900002F00021704721FA02F3D040C2F120029B
:1006A0009140084319467047202A06DBCB17203AB1
:1006B00041FA02F043EAE07306E041FA02F3D04067
:1006C000C2F1200291400843194670470FB400233D
:1006D00000B589B00CA900910B996FF00042CB6076
:1006E0001E4B06931E4B07930423CDE901321D4A8E
:1006F000089202466B46002000F00AFA09B05DF845
:1007000014FB70B586B006464FF0FF300091CDE97E
:100710000101002015460C4604903246694604A8A3
:10072000FFF7D4FF02460498211825B108B1084606
:1007300000E020462860049800280DD0002A02DD41
:100740000098884208D0081B0094CDE90104324685
:10075000694604A8FFF7BAFF06B070BD490D00084E
:10076000670D0008D50900080029A8BF7047401C84
:10077000490008BF20F00100704710B4B0FA80FCB7
:1007800000FA0CF050EA010404BF10BC704749B1F4
:10079000CCF1200421FA04F411FA0CF118BF012164
:1007A00021430843A3EB0C01CB1D4FEA00614FEA44
:1007B000102042BF002010BC704700EBC350104413
:1007C0000029A4BF10BC7047401C490008BF20F09E
:1007D000010010BC704710B5141E73F1000408DA54
:1007E000401C41F1000192185B411A4301D120F0F5
:1007F000010010BD2DE9F04D92469B4611B1B1FAB2
:1008000081F202E0B0FA80F220329046FFF72DFF2D
:1008100004460F4640EA0A0041EA0B0153465A4695
:10082000084313D0114653EA010019D0C8F1400221
:100830005046FFF729FF05460E46504659464246A8
:10084000FFF713FF084305D0012004E02046394696
:10085000BDE8F08D0020054346EAE0762C4337439F
:100860000A986305E40AA0EB08000022FD0A44EAA6
:1008700047540A3002D500200146E9E70105101966
:100880006941DDE9084500196941BDE8F04DA2E77D
:100890002DE9F041054621F000400C46284309D0DF
:1008A000C4F30A5040F23341884205DD2846214610
:1008B000BDE8F0812846FBE740F2FE31884210DCBB
:1008C0000CDB4FEA043040EA155050EA053105D000
:1008D000104804F0004101430020E9E700200146F0
:1008E000E6E7A0F233404642C6F1400228462146E0
:1008F000FFF7BBFE07468846284621463246FFF7EB
:10090000C3FE43463A46FFF766FF3246BDE8F04174
:10091000FFF7ABBE0000F03FC1F30A52C1F3130171
:1009200040F2FF3341F480119A4202DA002001467E
:10093000704740F233439A42A2F2334202DC524201
:10094000FFF7A2BEFFF791BE30B5041E71F100049F
:1009500004DB4FF00044404264EB0101141E73F1CC
:10096000000405DB1C464FF00043524263EB0403D6
:100970008B4208BF824230BD30B5041E71F10004C5
:1009800004DB4FF00044404264EB0101141E73F19C
:10099000000405DB1C464FF00043524263EB0403A6
:1009A000994208BF904230BD064C074D06E0E06812
:1009B00040F0010394E8070098471034AC42F6D3A6
:1009C000FFF7E6FB704700089047000800487047B3
:1009D0006C47000810B50446FFF7F8FF0068005D9B
:1009E00000F0010010BD00002DE9FF4F087883B032
:1009F0009946FF2805D0491C2D2804D0002400204A
:100A000008E000200BE00124F9E700EB800003EB95
:100A10004000491C0B78FF2BF7D104B14042002362
:100A20000293147819461D462D2C01D02B2C04D18D
:100A3000521C2D2C13D000240294AA461478FF2CAB
:100A40000FD00A25A3FB057801FB05814FF0000CB0
:100A500003FB0C11521CE3194AEB0101EEE70124E0
:100A6000EAE7814453EA010002D019F5C87F06DAAB
:100A700003980021C0E9001107B0BDE8F08F002500
:100A8000AE4E2F46DFF8B882184600F07DF9CDE96A
:100A90000001B9F1000002DAC9F1000400E00446E7
:100AA0000023A74A1AEB030B42EB045A12E0E007BB
:100AB00007D02A46334638464146FFF76BFC0746C7
:100AC00088462A46334610461946FFF763FC05461A
:100AD0000E466410002CEAD1DDE90001B9F1000FE7
:100AE0005A46534606DAFFF7C7FC3A464346FFF735
:100AF000C3FC05E0FFF74EFC3A464346FFF74AFCCD
:100B0000029A0AB181F00041039AC2E90001B3E7F9
:100B10002DE9FF4F1F468DB0D7E901464FF0FF3852
:100B20002E2045464FF000090B90B9696D1C0E98B8
:100B30008847396A824688470028F6D1BAF1FF3FD4
:100B40000AD024F4D064002E11DDBAF12B0F08D0A6
:100B5000BAF12D0F0BD102E0404611B08DE744F4FD
:100B60008064B9696D1C0E9888478246761E694676
:100B7000600501D52D2000E02B208DF8000001F14B
:100B8000010B0DF1200809E0B9696D1C0E9888472A
:100B900082460F9844F40074761E0560002E02DD34
:100BA000BAF1300FF0D00B998A453ED144F0800461
:100BB00006E00F99681CA9F1010944F4007408606B
:100BC000B9696D1C761E0E98884782463028F0D091
:100BD0002BE00B998A4505D1200603D444F080040C
:100BE000761E18E0504602F0A1FF08B30DF1130184
:100BF000761E44F400748B4508D2AAF130000BF83D
:100C0000010B200607D5A9F1010003E0200602D45C
:100C100009F101008146A00502D50F99681C086002
:100C2000B9696D1C0E9888478246002ED1DC53E0CE
:100C3000002E51DDBAF1650F02D0BAF1450F4BD14C
:100C4000A00549D5B9696D1C24F44074761E0E9830
:100C500088478246002E0CDD2B2804D0BAF12D0FD8
:100C600007D144F48074B9696D1C0E988847824698
:100C7000761EE00501D52D2100E02B2108F8011B8F
:100C8000CDF82C8021E00DF12901761E44F400748A
:100C900088450CD2AAF1300010F0FF0088F800005F
:100CA00002D10B99884509D908F1010806E0E00551
:100CB00001D5244801E042F20F708146B9696D1CEC
:100CC0000E98884782460F980560002E04DD504636
:100CD00002F02CFF0028D6D1F9690E988847FF2032
:100CE0008BF8000088F800000020069007904B4623
:100CF0006A4608A906A8FFF777FEA00502D46FF0A0
:100D000001002AE714F0240F0AD0E00714D1DDE92E
:100D100006123868031D3B600068C0E900120BE052
:100D2000DDE90601FFF76FFC0146E00704D13868F2
:100D3000021D3A600068016028460EE7000014407A
:100D40000000F03FF1D8FFFF426842B1016811F89E
:100D5000013B23B1521EC0E9001218467047012121
:100D6000C160881E704742685AB1C368016843B9C0
:100D700083688B4205D0491E521CC0E90012002036
:100D800070474FF0FF3070470EB540F23342029289
:100D90000022CDE900221346FFF72CFD03B000BD71
:100DA00070B58C1810F8015B15F0070301D110F82D
:100DB000013B2A1106D110F8012B03E010F8016B5A
:100DC00001F8016B5B1EF9D12B0705D40023521EDD
:100DD0000DD401F8013BFAE710F8013BCB1A921C45
:100DE00003E013F8015B01F8015B521EF9D5A14243
:100DF000D8D3002070BDFEE77047012000F03CB85A
:100E0000022000F039B8042000F036B8704790F89E
:100E10003510022903D0802141650120704705214A
:100E200080F835100068016821F0010101600020A0
:100E30007047000070B5044600F006F90546601CD6
:100E400002D004480078044400F0FEF8401BA042A1
:100E5000FAD370BD380000200649012805D00228C9
:100E600002D10889401C08817047C888401CC8808E
:100E70007047000010000020044910B50A680242C3
:100E800002D00860FFF7E8FF10BD0000143C0140ED
:100E90002DE9F84F00224FF0010803254FF00F0E07
:100EA0000B6808FA02F42340A3426ED14E68012E6B
:100EB00005D0022E03D0112E01D0122E12D1866839
:100EC0004FEA420C05FA0CF7BE43CF6807FA0CF75D
:100ED000374387604668A6430C79C4F300149440F6
:100EE00034434460C668570005FA07FC8C6826EA5C
:100EF0000C06BC403443C4604C68022C01D0122C58
:100F000013D1D40800EB8404A346D4F820905407EE
:100F10004FEAD46A0EFA0AF629EA06090E6906FAB9
:100F20000AF646EA0906CBF8206006680C7926EA3C
:100F30000C0604F00304BC40344304604C68E40035
:100F400065D5364C266846F480462660246822F033
:100F5000030604F480440094314C3444A446D4F88D
:100F600008489607370F0EFA07F6B4432D4EB042E5
:100F700001D1002624E02C4EB04201D101261FE011
:100F80002A4EB04202D102261AE040E0284EB0427A
:100F900001D1032614E0274EB04201D104260FE010
:100FA000254EB04201D105260AE0244EB04201D1BF
:100FB000062605E0224EB04201D1072600E00826B1
:100FC000BE402643CCF808681E4E34684F689C43E8
:100FD000FF0300D51C4334601A4C241D26684F685B
:100FE0009E43BF0300D51E432660164E0836346864
:100FF0004F689C43FF0200D51C433460114E0C36F1
:1010000034684F689C43BF0200D51C433460521CB7
:10101000102AFFF445AFBDE8F88F000044380240C5
:10102000003001400000024000040240000802407D
:10103000000C024000100240001402400018024060
:10104000001C0240003C01400148806870470000DD
:101050003800002070B5040025D094F83D0000252C
:1010600020B984F83C50204600F04CFA242084F843
:101070003D002068016821F00101016020680168DD
:1010800041F4004101602068016821F400410160E1
:1010900000F0BEFB4D4A6168914201D84C4900E026
:1010A0004C49884201D2012070BD4B492368B0FBF6
:1010B000F1F15E6826F03F060E435E60636893427E
:1010C00006D94FF4967359434FF47A73B1FBF3F199
:1010D0002368491C1E6A26F03F0631431962616885
:1010E000914210D84900401EB0FBF1F2521CC2F3ED
:1010F0000B02042A01D2042022E0B0FBF1F0401CD4
:10110000C0F30B001CE0A268F2B301EBC10303EBD8
:101110000116431EB3FBF6F35B1C43F480431B052F
:1011200049D092B301EBC10202EB0111401EB0FBAA
:10113000F1F0401CC0F30B0040F4804040F400404C
:101140002168CA694CF6FF739A431043C861D4E919
:10115000071001432068026822F0C00211430160B9
:10116000D4E9030101432068826848F2FF339A43BF
:1011700011438160D4E9050108432168CA6822F05F
:10118000FF021043C86001E00EE016E0206801682D
:1011900041F0010101602564202084F83D002563B1
:1011A00084F83E50002070BD01EB4106431EB3FBA6
:1011B000F6F35B1CB3E70120C2E701EB4101401EDF
:1011C000B0FBF1F0401CC0F30B00B7E7A0860100B4
:1011D00080841E0000093D0040420F002DE9FF4FB2
:1011E00083B09A46DDE9119793460446DDF84080C6
:1011F000FFF72AFF054694F83D00202870D11923F7
:10120000012271492046009501F076FB0028F5D1B6
:1012100094F83C00012863D0012084F83C00206849
:101220000168C90703D1016841F00101016020682C
:10123000016821F400610160222084F83D00402013
:1012400084F83E0000262664C4F82480A4F82A907E
:10125000608D20855D48E062CDE9007553465A46B1
:101260002046049901F050FA00287CD1208DD0B19D
:10127000012821D00228206824D04169806900908B
:10128000208D032869D801282BD0514902283B46DC
:101290004FF00002009559D08846204601F02CFB03
:1012A000002860D13CE020684169816900910168B3
:1012B00041F40071016077E02068016821F48061E9
:1012C0000160F0E7016821F4806101602068016835
:1012D00041F400610160206841698069009063E029
:1012E0006FE02A463946204601F085FB98BB20680E
:1012F0000069616A08704EE02068016841F400717D
:10130000016020680069616A0870606A401C606260
:10131000218D491E2185618D491E6185216838E036
:101320002068016821F48061016020680069616AB9
:101330000870606A401C6062208D401E2085608DB0
:10134000401E60853B46002241460095204601F044
:10135000D3FA00B9D0E706E0FFE72A46394620462F
:1013600001F049FB18B1012007B0BDE8F08F2068FB
:101370000069616A0870606A401C6062218D491EC4
:101380002185618D491E618521684A69D2435207D2
:101390000AD409690170606A401C6062208D401E99
:1013A0002085608D401E6085208D00287FF468AF09
:1013B000202084F83D0084F83E6084F83C600020E2
:1013C000D2E70220D0E70000020010000000FFFF7B
:1013D000040001002DE9FF4F83B09A46DDE9119723
:1013E00093460446DDF84080FFF72EFE054694F84C
:1013F0003D0020287FD11923012240492046009535
:1014000001F07AFA002876D194F83C00012872D0D5
:10141000012084F83C0020680168C90703D10168F5
:1014200041F0010101602068016821F40061016060
:10143000212084F83D00402084F83E0000262664E8
:10144000C4F82480A4F82A90608D20852C48E0629E
:10145000CDE9007553465A462046049901F0D2F969
:1014600070B930E02A463946204601F0F7FA58B103
:10147000206C042804D12068016841F400710160E7
:10148000012007B0BDE8F08F606A2168007808612C
:10149000606A401C6062218D491E89B22185628D7F
:1014A000521E628522685369DB435B070BD469B126
:1014B00000781061606A401C6062208D401E2085AB
:1014C000608D401E6085208D0028CBD12A4639468C
:1014D000204601F0EBF90028CAD154F83D0B016811
:1014E00041F400710160202004F81E09E677667758
:1014F0000020C6E7FFE70220C3E70000020010005B
:101500000000FFFFF0B587B0044614216846FEF7DF
:101510008FFE2768204CDFF87CC01F491222012370
:10152000032504261D481034674515D10F6847F080
:1015300002070F60096801F00201059129028DE898
:101540006E006946FFF7A4FC206840F4001020609C
:10155000206800F4001019E0DFF844C0674516D198
:101560000F6847F002070F60096801F0020105915A
:101570004FF440618DE86E006946FFF789FC2068F2
:1015800040F480002060206800F48000059007B0DF
:10159000F0BD00000054004030380240000402401A
:1015A0000058004002488168027811448160704709
:1015B000380000200B4810B5016841F4007101604B
:1015C000016841F480610160016841F4807101604B
:1015D000032000F071F8002000F006F800F024F875
:1015E000002010BD003C024070B50D4D04464FF484
:1015F0007A712878B1FBF0F00A490968B1FBF0F084
:1016000000F004FB48B9102C07D200222146501EDE
:1016100000F032F800206C6070BD012070BD000049
:1016200038000020440000200B4882B0016841F4DB
:1016300080410160006800F4804000900648001F6F
:10164000016841F080510160006800F08050009016
:10165000052002B000F030B844380240002809DB11
:1016600000F01F02012191404009800000F1E020BC
:10167000C0F8001170470000F0B40E4B1B680C4618
:10168000C3F30223C3F10705042D00D90425191D56
:10169000072901D2002300E0DB1E012606FA05F12E
:1016A000491E214099409E40761E16403143F0BCB1
:1016B00002F0C2B80CED00E0064900F0070208682D
:1016C0004FF6FF03184040EA0220034A1043086027
:1016D000704700000CED00E00000FA052DE9F0472E
:1016E0000E46050065D0DFF81481D8F80000F7B287
:1016F00000F00F00B04207D288F80070D8F8000060
:1017000000F00F00B04254D128683D4C810712D53B
:10171000400703D5206840F4E05020602878000797
:1017200003D5206840F4604020602068A96820F05C
:10173000F000084320602878C0072DD03049686841
:101740000839012812D0022813D0032811D00968C3
:10175000890700292DDA216821F003010143216066
:10176000FFF772FC814641F2883A0EE0096889036E
:10177000EFE709688901ECE7FFF766FCA0EB0901D8
:10178000514502D90320BDE8F0872068696800F060
:101790000C00B0EB810FEFD1D8F80010404601F0FB
:1017A0000F01B14207D90770006800F00F00B04286
:1017B00001D00120E7E72878400705D52068E968CF
:1017C00020F4E050084320602878000706D5206800
:1017D000296920F4604040EAC100206000F038F838
:1017E0002168084AC1F30311515CC84006490860EA
:1017F00006480068FFF7F8FE0020C4E7003C0240FE
:1018000008380240D0460008440000203C00002078
:101810000448054900680968044AC1F38221515C03
:10182000C84070474400002008380240E0460008E5
:101830000448054900680968044AC1F34231515C13
:10184000C84070474400002008380240E0460008C5
:10185000154810B5006810F00C02144813D0411060
:10186000042A0FD0082A0ED10F4C241F22682368A7
:1018700002F03F025B0207D52068C0F38810A0FB8E
:10188000010106E0084610BD2168C1F38811A1FBE3
:1018900000010023FEF794FC2168C1F30141491CBB
:1018A0004900B0FBF1F010BD083802400024F400FC
:1018B0002DE9F84F04006ED02078DFF83C93C00784
:1018C000A9F104054AD009F104000168C1F38101BE
:1018D000012908D00068C0F3810002280AD1D9F894
:1018E0000000400206D52868800337D560680028CC
:1018F000E1D033E06068B0F5803F10D0B0F5A02FA4
:10190000286810D020F480302860286820F48020D7
:1019100028606068A8B1FFF797FB06460DE02868CD
:1019200040F48030F4E740F480202860F7E700BFFF
:10193000FFF78AFB801B642873D828688003F7D5DB
:101940000CE0FFF781FB064605E000BFFFF77CFBDC
:10195000801B6428F0D828688003F7D42078DFF84B
:101960009C8280074FF0000A3ED5A348001D016805
:1019700011F00C0F08D00068C0F3810002280BD1D1
:10198000D9F80000400207D42868800716D5E0681F
:10199000012800D112E02BE1E068B8B10120C8F8BD
:1019A0000000FFF751FB064605E000BFFFF74CFBC8
:1019B000801B0228C0D828688007F7D528682169CD
:1019C00020F0F80040EAC10028600DE0C8F800A04F
:1019D000FFF73AFB064604E0FFF736FB801B0228C0
:1019E0001FD828688007F7D42078000722D5824EB8
:1019F00083486169703671B101210160FFF724FBF2
:101A0000074604E0FFF720FBC01B022809D8306816
:101A10008007F7D50EE0C0F800A0FFF715FB0746DA
:101A200005E082E0FFF710FBC01B02287DD830687C
:101A30008007F7D42078400768D5DFF8BCB10027CD
:101A40000BF13C0BDBF80000C0000BD4DBF80010FE
:101A500041F08051CBF80010DBF80000012700F0C6
:101A600080500090674E3068C00510D4306840F454
:101A700080703060FFF7E8FA009005E0FFF7E4FAC5
:101A80000099401A022850D83068C005F6D55A4E41
:101A9000A0686C3601280FD00528306810D020F0DF
:101AA00001003060306820F004003060A068B8B1F8
:101AB000FFF7CAFA00900FE0306840F00100F4E749
:101AC00040F004003060F7E7FFF7BEFA0099411AD2
:101AD00041F28830814266D830688007F4D50EE044
:101AE000FFF7B2FA009007E0FFF7AEFA0099411A4B
:101AF00041F28830814256D830688007F4D42FB143
:101B0000DBF8001021F08051CBF80010A069C8B3B9
:101B10003949091D0968C1F3810102294AD0022807
:101B2000504607D0C8F8600000E03CE0FFF78CFAB0
:101B300004463BE04746C8F86000FFF785FA0646D2
:101B400005E000BFFFF780FA801B02282BD8286829
:101B50008001F7D4D4E907010843A16A2A4A490859
:101B600002EB0141626A41EA8211084394F82C10A9
:101B700040EA0161C9F8001001203866FFF764FAF5
:101B8000044606E036E000BFFFF75EFA001B0228BD
:101B900009D828688001F7D52CE000BFFFF754FA78
:101BA000001B022802D90320BDE8F88F28688001B5
:101BB000F4D41FE00128F7D0D9F80000E26900F45E
:101BC0008001914214D1226A00F03F0191420FD16D
:101BD00047F6C071626A0140914209D1A26A00F4DD
:101BE0004031914204D1E16A00F07060884201D036
:101BF0000120D9E70020D7E704380240000047421F
:101C0000800E4742007000400000FFFF10B5401EEC
:101C1000B0F1807F01D3012010BD4FF0E02460615E
:101C20000F21601701F008FE0020A061072020614D
:101C3000002010BD7047704710B590F83C20012A75
:101C400022D0012280F83C20CA688C6822F44072BD
:101C500022434C6822F4806222430C6822F4006222
:101C600022430C6922F4805222434C6922F4005230
:101C70002243C969002322F480420A4301684A646E
:101C800080F83C30002010BD022010BD70B590F8E7
:101C90003C20012A32D0012480F83C40022280F806
:101CA0003D2003685A689D6822F070060A68324336
:101CB0005A60134B02689A4214D0B2F1804F11D08F
:101CC000104B9A420ED0104B9A420BD00F4B9A42B7
:101CD00008D00F4B9A4205D00E4B9A4202D00E4BC1
:101CE0009A4204D1496825F080031943916080F835
:101CF0003D40002180F83C10084670BD022070BDB8
:101D0000000001400004004000080040000C0040BA
:101D100000040140004001400018004010B50400DC
:101D200003D094F83D0010B107E0012010BD002061
:101D300084F83C00204600F00DF8022084F83D00B5
:101D4000211D206801F0F8F9012084F83D000020F1
:101D500010BD000008B501681348814201D1134845
:101D600019E01248001FB1F1804F14D0104A91427F
:101D700019D1016841F0080101600068002200F0FB
:101D80000800009011463220FFF776FCBDE80840BD
:101D90003220FFF763BC016841F001010160006877
:101DA00000F00100009008BD0000014044380240EE
:101DB000000C00400168CA6842F00102CA60006875
:101DC000816801F00701062903D0016841F0010193
:101DD00001600020704770B5044690F83C0001286F
:101DE00017D0012584F83C50022084F83D0020687B
:101DF000826822F0770222F47F42826008685028CD
:101E000030D00DDC20284DD005DC98B310283BD114
:101E100048E0022070BD302844D0402834D139E059
:101E2000602828D0702806D0B0F5805F2CD0B0F59F
:101E3000005F29D10AE0CB68D1E90121206801F0D7
:101E4000ECF92068816841F0770109E0CB68D1E9BD
:101E50000121206801F0E1F92068816841F48041A6
:101E6000816011E0CA684968206801F0ABFA50212E
:101E7000206807E016E0CA684968206801F0B3FAF4
:101E80006021206801F0D3F984F83D50002084F8E7
:101E90003C0070BDCA684968206801F093FA40218F
:101EA0002068EFE7226801461046EBE7704770B5FF
:101EB0000446006801694FF00005C943890715D43D
:101EC000C168C943890711D4E91E01610120207747
:101ED000206880698007204602D0FFF7E7FF04E012
:101EE00000F0ECF8204600F06EF9257720680169D3
:101EF000C943490717D4C168C943490713D46FF0D0
:101F000004010161022020772068806910F4407F7D
:101F1000204602D0FFF7CAFF04E000F0CFF82046C9
:101F200000F051F9257720680169C943090716D4E3
:101F3000C168C943090712D46FF008010161042088
:101F400020772068C0698007204602D0FFF7AEFFE7
:101F500004E000F0B3F8204600F035F9257720685A
:101F60000169C943C90617D4C168C943C90613D456
:101F70006FF010010161082020772068C06910F41B
:101F8000407F204602D0FFF791FF04E000F096F872
:101F9000204600F018F9257720680169C943C90770
:101FA00008D1C168C943C90704D1891E016120460F
:101FB00000F02CF920680169C943090609D4C168F9
:101FC000C943090605D46FF0800101612046FFF77F
:101FD00031FE20680169C943490609D4C168C94373
:101FE000490605D46FF040010161204600F060F918
:101FF00020680169C94389060BD4C168C9438906B1
:1020000007D46FF0200101612046BDE87040FFF762
:1020100012BE70BD70B586B0044614216846FEF746
:1020200007F9214A2168002420480225012691420F
:102030000FD1016841F0100101600068694600F0AD
:10204000100005904FF4D4400090CDE90154184899
:1020500023E0B1F1804F24D1016841F0010101601A
:10206000016801F001010591016841F00201016080
:102070000068694600F0020005904FF400400090AF
:10208000CDE90154CDE903460A48FEF701FF0820D7
:102090000090CDE9015408486946CDE90346FEF7B2
:1020A000F7FE06B070BD000000000140303802406D
:1020B000001002400000024000040240704770B56A
:1020C000044690F83C000D4601280DD0012684F806
:1020D0003C60022084F83D0042B1042A18D0082A4E
:1020E0002AD00C2A4DD139E0022070BD206801F0C1
:1020F000A7F82068816941F0080181612068816941
:1021000021F004018161206881692A69114311E08D
:10211000206801F0C5F82068816941F4006181619F
:102120002068816921F480618161206881692A6960
:1021300041EA0221816124E0206801F0E7F820688B
:10214000C16941F00801C1612068C16921F0040141
:10215000C1612068C1692A69114311E0206801F05A
:1021600009F92068C16941F40061C1612068C16951
:1021700021F48061C1612068C1692A6941EA0221B4
:10218000C16184F83D60002084F83C0070BD10B54A
:10219000040003D094F83D0010B107E0012010BD09
:1021A000002084F83C00204600F00CF8022084F85F
:1021B0003D00211D206800F0BFFF012084F83D0094
:1021C000002010BD7047704710B50446006801221A
:1021D00001F016F80B492068884202D00A4988426B
:1021E00003D1416C41F4004141642068816801F0F1
:1021F0000701062903D0016841F0010101600020B8
:1022000010BD00000000014000040140B0B52249AB
:102210002DED048B00680968884239D11F4CE28893
:1022200002EB820201EB4201081A80B2FEF793F939
:102230009FED1B8B53EC182BFEF71EF9FEF7B7F939
:1022400080B2FEF788F99FED189B53EC192BFEF72F
:1022500013F9FEF7D8F900276061E780208900EBC9
:10226000800006EB4000401B80B2FEF774F953EC8F
:10227000182BFEF701F9FEF79AF980B2FEF76BF919
:1022800053EC192BFEF7F8F8FEF7BDF9A061278192
:10229000BDEC048BB0BD00007005002010000020D4
:1022A00000000000000014400000000000004A4050
:1022B0007047704770B5026804461068D16853696A
:1022C00010F00F0F52D003F0010501F490762E4369
:1022D0005FD0C20705D0CA0503D5E26B42F0010208
:1022E000E263420705D5DA0703D0E26B42F002024F
:1022F000E263820705D5DA0703D0E26B42F00402FD
:10230000E263020707D501F020022A4303D0E26B03
:1023100042F00802E263E26B002A33D0800604D563
:10232000880602D5204601F086F820684069E16BF6
:10233000C0F38010090700D428B3204601F06DF8DF
:102340002068416949061AD5416921F0400141617F
:10235000606BA0B11B490165606BFEF758FD00285A
:1023600010D0606B016DBDE870400847830610D542
:102370008B060ED52046BDE8704001F05CB82046C3
:10238000FFF797FF70BD2046FFF793FF0020E06343
:1023900070BD030606D50B0604D52046BDE8704087
:1023A00001F028B94006F3D54806F1D5D16820469A
:1023B00021F04001D160202184F8391000F08BF920
:1023C00070BD00000B34000870B5040004D094F810
:1023D0003900002510B106E0012070BD84F83850A6
:1023E000204600F023F8242084F839002068C168D2
:1023F00021F40051C160204601F068F820680169AD
:1024000021F4904101612068416921F02A01416174
:102410002068C16841F40051C160E563202084F860
:10242000390084F83A00002070BD0000F0B587B094
:10243000044614216846FDF7FBFE3D48276800224C
:102440003C49022403250726874222D1394814300B
:10245000036843F010030360006800F0100005906B
:10246000086840F001000860086802AB00F0010055
:1024700005906802CDE9000483E8640069462E48AF
:10248000FEF706FD002201212520FFF7F5F82520A3
:1024900025E0284BDFF8A4C010332948674522D136
:1024A0001F6847F400371F601B6803F4003305936F
:1024B0000B6843F008030B60096802AF01F00801E4
:1024C00005916021CDE9001487E864006946FEF7B4
:1024D000DFFC002201212620FFF7CEF82620FFF79F
:1024E000BDF807B0F0BDDFF85CC06745F9D11F68E3
:1024F00047F480271F601B6803F4802305930B6853
:1025000043F008030B60096802AF01F00801059170
:102510004FF44071CDE9001487E864006946FEF786
:10252000B7FC002201212720FFF7A6F82720D6E7D5
:1025300000100140303802400000024000440040DA
:10254000000C02400048004090F83A30202B22D185
:10255000F9B1F2B190F83830012B1CD0816282853C
:10256000C2850021C163222280F83A2080F8381009
:102570000168CA6842F48072CA6001684A6942F020
:1025800001024A610068C16841F02001C160002079
:1025900070470120704702207047000038B501687D
:1025A00000240A684A680092154A91420CD11549E4
:1025B000154D0B78C91E4A78AB54521C4A706D2BCE
:1025C00002D101220A704C7000681049884203D180
:1025D0000C48401C01F0A0F80A490122491E0C4891
:1025E000FFF7B2FF012207490A48FFF7ADFFBDE838
:1025F000384004490122491C0748FFF7A5BF0000E5
:102600000044004013000020E40300200048004084
:10261000B0050020F0050020300600202DE9F84329
:10262000044690F839001F4616460D46202850D122
:10263000B5B1AEB194F8380001284AD0012084F831
:1026400038004FF00008C4F83C80212084F839009D
:10265000FEF7FAFCA6848146E68484F8388026E0FA
:102660000120BDE8F883E08C401EE084A0684B4662
:10267000B0F5805F4FF000024FF0800120460097D8
:1026800003D000F0E8FFE8B90DE000F0E4FFC8B9BE
:1026900028882168C0F308004860206908B16D1CD3
:1026A00005E0AD1C03E0216815F8010B4860E08CE3
:1026B0000028D8D14B46002240212046009700F048
:1026C000CAFF08B10320CCE7202084F8390000209D
:1026D000C7E70220C5E77047FEE701684A69D243B1
:1026E00052050FD46FF480624A61002140F8301F18
:1026F000202242738173026942F004020261017375
:1027000001207047002070472DE9F84F044600680B
:1027100089460B9D01689846174641F48061016027
:102720002068016841F48071016000954FF0011B41
:102730000022594620460A9B00F0DEF84FF4007A4A
:1027400040B120680068C00501D5C4F840A003204E
:10275000BDE8F88F216809F0FE0008612B46284982
:1027600020460A9A00F0FCF8F0BB206841698069B5
:1027700000902A4620460A9900F070F940B1206C7A
:1027800004283AD12068016841F40071016034E006
:10279000FEB2B8F1010F09D02168380A08612A4653
:1027A00020460A9900F05AF90028E8D1206806610D
:1027B0002A4620460A9900F051F90028DFD1206806
:1027C000016841F48071016000950022594620465D
:1027D0000A9B00F091F80028B3D1216809F0FF00AE
:1027E00040F00100086100E007E02B460449204664
:1027F0000A9A00F0B5F80028AAD00120A8E7000046
:10280000020001002DE9F843044600680D46DDE9A9
:10281000089701689846164641F4807101604B465E
:1028200000224FF001112046009700F065F848B1F2
:1028300020680068C00502D54FF4007020640320B2
:10284000BDE8F883216805F0FE0008613B464A4672
:102850001549204600F084F888B9206841698069EC
:1028600000903A464946204600F0F8F848B1206CFE
:10287000042804D12068016841F40071016001203E
:10288000DEE7F5B2B8F1010F09D02168300A08611E
:102890003A464946204600F0E1F80028E7D1206892
:1028A00005610020CCE700000200010070B516466B
:1028B0000D4604460DE02046FFF70FFF08B101204A
:1028C00070BD681C05D0FEF7BFFB801BA84207D86F
:1028D00035B120684069C0434007ECD4002070BD8A
:1028E000002044F8300F20216173A073216941F06A
:1028F000200121612073E2E72DE9F0471E46904652
:102900000D460446C1F30747DDF8209008E0701C2F
:1029100006D0FEF799FBA0EB0900B0420FD876B1C4
:102920002068012F18D0806925EA00000004000CFF
:1029300014D000214145EAD00020BDE8F0870020F6
:1029400044F8300F20216173A073216941F0200108
:10295000216120730120F0E74069E5E70121E9E703
:102960002DE9F0479A4691460E46044600254FF061
:102970002008C1F3074725E020684069C0434005AF
:1029800014D42068016841F40071016021686FF47B
:1029900080604861256384F83D8084F83E50206C57
:1029A00040F00400206484F83C501FE0B9F1FF3F80
:1029B00008D0FEF749FBA0EB0A0149450CD8B9F154
:1029C000000F09D02068012F13D0806926EA00008B
:1029D0000004000C0BD0CFE744F8305F84F80D8082
:1029E000A573206940F02000206125730120BDE817
:1029F000F0874069EAE72DE9F041002590460E4650
:102A00000446202717E04069C043C0060CD454F8A0
:102A1000301B6FF01000486144F810596777A577B4
:102A2000206A2062257717E0FEF70EFBA0EB080076
:102A3000B04208D83EB120684169C9434906E2D492
:102A40000020BDE8F08144F8305F6773A57320690A
:102A500040F02000206125730120F2E770B5164692
:102A60000D4604460DE02046FFF737FE08B1012071
:102A700070BD681C05D0FEF7E7FA801BA84207D896
:102A800035B120684069C0430006ECD4002070BD19
:102A9000002044F8300F20216173A073216941F0B8
:102AA000200121612073E2E701490860002070479E
:102AB000480000201FB500F01F000C4640F0200227
:102AC0000A23022103A88DE80B0007480123B42143
:102AD0000068FEF783FB10B1012004B010BDBDF803
:102AE0000C0020800020F8E74800002010B529499C
:102AF0002DED028BB0EE408A18EE100A82B0084429
:102B00002549884244D269460420FFF7D3FF01A932
:102B10000F20FFF7CFFF18EE100AFDF761FD9FEDC4
:102B20001F1B53EC112BFDF735FC41EC100B00F093
:102B3000AFFE51EC100BFDF73AFD81B2BDF800007D
:102B4000814204D1002002B0BDEC028B10BD00EE2A
:102B5000100ABDF80400F8EE400A00EE101AB8EEB4
:102B6000400A80EE801A00EE100AB8EE400A21EE0C
:102B7000000ABCEEC00A10EE100A84B2042000F075
:102B80003FF828B921460F2000F03AF80028DAD0A3
:102B90000120D8E7333333C23433B30100000000DF
:102BA000E0FFEF407FB500F01F000B4640F020042F
:102BB000B421002001F059FB214601F056FBD9B2A7
:102BC00001F053FB1D0A294601F04FFB8DF80C3034
:102BD0008DF80D508DF80E000A22032103A88DE810
:102BE0000700064801232246B4210068FEF7F2FBE5
:102BF000002800D0012004B070BD00004800002073
:102C000038B50C4605460021FFF7CCFF90B90A20E5
:102C1000FEF710F921462846FFF7C4FF50B90A20F5
:102C2000FEF708F969462846FFF744FFBDF80000A3
:102C3000A04201D0012038BD002038BD10B586B0BB
:102C400014216846FDF7F4FA2E480024016841F08B
:102C500010010160016801F010010591016841F067
:102C600080010160016801F080010591016841F077
:102C700004010160016801F004010591016841F05F
:102C800002010160016801F002010591016841F053
:102C900008010160016801F008010591016841F037
:102CA000010101600068694600F001000590F02014
:102CB000CDE9000414480294FEF7EAF807200090DA
:102CC0001248CDE9010469461148FEF7E1F80022F7
:102CD00011460620FEF7D0FC0620FEF7BFFC0022BE
:102CE00011460720FEF7C8FC0720FEF7B7FC0022BC
:102CF00011460820FEF7C0FC0820FEF7AFFC06B026
:102D000010BD0000303802400010024000001110D9
:102D1000000802400D4810B50B4901600C494160A4
:102D200000214FF480428160C0E90312416181615A
:102D3000C1610162FEF78EF9002803D0BDE81040A2
:102D4000FEF764B810BD00000054004048040020A5
:102D5000A08601000D4810B50B4901600C49416087
:102D600000214FF480428160C0E90312416181611A
:102D7000C1610162FEF76EF9002803D0BDE8104082
:102D8000FEF744B810BD0000005800409C0400202D
:102D9000A086010010B596B000240F9410941194F1
:102DA000129413941C2168461494FDF741FA2021D3
:102DB00007A8FDF73DFA35483349016040F2473135
:102DC000C0E901146321C0E903148021C0E9054171
:102DD000FEF7A4FF08B1FEF719F84FF480500F90EA
:102DE0000FA92A48FEF7F7FF08B1FEF70FF82748AA
:102DF000FFF7CDF908B1FEF709F8139413A923489A
:102E00001494FEF743FF08B1FEF700F86020CDE907
:102E100000040294039404940594002269461B481C
:102E20000694FFF74CF908B1FDF7F0FF042269465C
:102E30001648FFF744F908B1FDF7E8FF0822694694
:102E40001248FFF73CF908B1FDF7E0FF0C22694694
:102E50000E48FFF734F908B1FDF7D8FF079408943E
:102E600009944FF400500A94CDE90B4007A9074894
:102E70000E94FEF7E1FE08B1FDF7C8FF0348FFF727
:102E8000C9F816B010BD000000000140F004002099
:102E900010B58EB000240794089409940A940B94FA
:102EA0001C2168460C94FDF7C3F923484FF080417C
:102EB000016040F24731C0E9011440F2CF71C0E92E
:102EC000031480218161FEF729FF08B1FDF79EFF01
:102ED0004FF48050079007A91748FEF77CFF08B110
:102EE000FDF794FF1448FFF752F908B1FDF78EFF84
:102EF0000B940BA910480C94FEF7C8FE08B1FDF71F
:102F000085FF6020CDE900040294002269460A484A
:102F10000494FFF7D4F808B1FDF778FF042269465E
:102F20000548FFF7CCF808B1FDF770FF0248FFF73E
:102F300071F80EB010BD00003005002010B586B04D
:102F400000241848009401940294039404941449B2
:102F50000594016042F2CF01C0E901144FF47A7187
:102F6000C0E9031480218161FEF7D8FE08B1FDF7A6
:102F70004DFF4FF48050009069460A48FEF72BFF42
:102F800008B1FDF743FF049404A906480594FEF731
:102F90007DFE002801D0FDF739FF06B010BD00000E
:102FA000000C0040700500200C4810B50A49016073
:102FB0004FF4E1314160002181600C22C160C0E921
:102FC00004128161C161FFF7FFF9002803D0BDE859
:102FD0001040FDF71BBF10BD00100140B0050020E0
:102FE0000C4810B50A4901604FF4E13141600021FD
:102FF00081600C22C160C0E904128161C161FFF7E8
:10300000E3F9002803D0BDE81040FDF7FFBE10BD76
:1030100000440040F00500200C4810B50A4901604A
:103020004FF4E1314160002181600C22C160C0E9B0
:1030300004128161C161FFF7C7F9002803D0BDE820
:103040001040FDF7E3BE10BD0048004030060020F0
:10305000FEE7000010B500210848FFF7B5F804218D
:103060000648FFF7B1F808210448FFF7ADF8BDE8BE
:1030700010400C210148FFF7A7B80000F004002021
:10308000704770477047FEF78DBA000030B593B0B7
:1030900030216846FDF7CCF814210CA8FDF7C8F8DC
:1030A00019480025016841F080510160006800F076
:1030B000805011901548016841F48041016000681A
:1030C000022400F48040119001200090000401903F
:1030D0008001CDE9064004200890A820CDE909042C
:1030E00007200B906846FEF7E3FB0CA90F2081E850
:1030F00031004FF4A0500F90E002109005210CA871
:10310000FEF7ECFA13B030BD4038024000700040CA
:103110000548016841F47001016003494FF0006007
:10312000803908607047000088ED00E00148FEF734
:10313000BEBE000070050020F0B50268254C264D8B
:10314000264E274F274B4FF0804CA04209D06045B8
:1031500007D0A84205D0B04203D0B84201D098426F
:1031600004D122F0700E4A6842EA0E02A0421BD03F
:10317000604519D0A84217D0B04215D0B84213D03C
:10318000984211D0184DA8420ED0184DA8420BD02D
:10319000174DA84208D0174DA84205D0164DA84299
:1031A00002D0164DA84203D122F44075CA682A43C2
:1031B0004D6922F080022A4302608A68C2620A686E
:1031C0008262A04201D0984201D1096901630121C4
:1031D0004161F0BD000001400004004000080040D3
:1031E000000C004000040140004001400044014048
:1031F0000048014000180040001C00400020004032
:1032000010B501F01F030121046A99408C43046248
:10321000016A9A401143016210BD10B5846842EA08
:10322000032224F47F440A432243826010BD826853
:1032300022F070020A4342F00701816070470000EB
:10324000F0B5026A22F001020262036A42688469F0
:10325000124E24F073050C682C4323F002058B6892
:103260002B430D4DA84201D0B04205D123F00807F1
:10327000CB683B4323F00403A84201D0B04205D100
:103280004D6922F4407215438A692A434260846181
:10329000496841630362F0BD000001400004014041
:1032A000F0B5026A22F010020262026A4368846981
:1032B0000D6824F4E64444EA05248D6822F02002D7
:1032C00042EA05120F4D104EA84201D0B04206D17D
:1032D000CF6822F0800242EA071222F04002A842A0
:1032E00001D0B04207D14D6923F4406343EA85031E
:1032F0008D6943EA850343608461496881630262A2
:10330000F0BD00000000014000040140F0B5026A79
:1033100022F480720262026A4368C46922F4007275
:1033200024F073050C68124E2C438D6842EA052286
:103330000E4DA84201D0B04206D1CF6822F40062FF
:1033400042EA072222F48062A84201D0B04207D1AB
:103350004D6923F4405343EA05138D6943EA05138D
:103360004360C4614968C1630262F0BD000001406E
:103370000004014030B5026A22F480520262046AFD
:103380004268C3690D6823F4E64343EA05238D6868
:1033900024F4005444EA0534084DA84202D0084DF4
:1033A000A84204D14D6922F4804242EA851242606B
:1033B000C36149680164046230BD0000000001403F
:1033C0000004014010B5036A046A24F00104046299
:1033D000846924F0F00444EA021423F00A020A4348
:1033E0008461026210BD10B5036A23F0100303620A
:1033F0008369046A23F4704343EA023224F0A00391
:1034000043EA01118261016210BD10B5806B002199
:10341000C185C184FEF74DFF10BD0168CA6822F462
:103420009072CA6001684A6922F001024A61202153
:1034300080F83A10704710B590F83A10222901D060
:10344000022010BD8168B1F5805F11D001690029AB
:1034500001681FD0496801F07F03816A4A1C8262BB
:103460000B70C18D491E0904090CC18518D02BE0D1
:103470000269816A002A0268526805D0D2B20A80C5
:10348000816A491C8162ECE7C2F308020A80816A02
:10349000891CF7E74A68816A4B1C83620A70E0E77F
:1034A0000168CA6822F02002CA600168CA6822F472
:1034B0008072CA6001684A6922F001024A612021D3
:1034C00080F83A10FFF76AF8002010BD2DE9F041AE
:1034D000044600680169E26821F44051114301612A
:1034E0002169A068E26908436169114308432168C2
:1034F000CA6849F20C639A430243CA602068416972
:10350000A26921F4407111434161E06919276425E2
:103510003226B0F5004F354A354920684FF0000893
:1035200006D0884201D0904236D1FEF781F935E0CD
:10353000884201D0904202D1FEF77AF901E0FEF70D
:1035400067F961684A18A0FB070148EB0803FCF71C
:1035500037FE0146B0FBF5F00201B1FBF5F06FF06C
:103560001803584301EB800006EBC000B0FBF5F0F8
:1035700000F0F80002EB4002B1FBF5F0584301EB1C
:10358000800006EBC000B0FBF5F000F007002168FA
:1035900010448860BDE8F081FEF73AF961688B0F4E
:1035A0008A00A0FB0701FCF70BFE0146B0FBF5F01B
:1035B0006FF01802504301EB800006EB0010B0FBE7
:1035C000F5F000F0F002B1FBF5F002EB0012B1FBF8
:1035D000F5F06FF01803584301EB800006EB001084
:1035E000B0FBF5F000F00F00D1E70000001401403F
:1035F0000010014090F83910212901D002207047B5
:103600008168B1F5805F016A0BD04A1C02620268D2
:1036100009785160C18C491E0904090CC1840ED07F
:1036200017E009880268C1F30801516001690029A7
:10363000016A02D0491C0162ECE7891CFBE70168C2
:10364000CA6822F08002CA600068C16841F0400187
:10365000C160002070472DE9F041984617460E469C
:103660000446069D1DE0681C1BD02DB1FDF7ECFC47
:10367000A0EB0800A84214D92068C16821F4D071D9
:10368000C1602068416921F001014161202084F876
:10369000390084F83A00002084F838000320BDE89F
:1036A000F0812068006836EA000004D00020B842AB
:1036B000D9D00020F3E70120F9E700000148FEF728
:1036C000F9BD0000B00500200148FEF7F3BD000081
:1036D000F00500200148FEF7EDBD00003006002097
:1036E00010B5094800F0B8F851EC100BFCF78BFF4F
:1036F00006490860064800F0AFF851EC100BFCF7E3
:1037000082FF0449086010BD2C0000201C0000202E
:1037100031000020200000202DE9F041384C0278D3
:103720003649207800250A54401CC0B220700A781F
:10373000572A5FD10A1812F8012C582A5BD1314A56
:103740004FF0010E2B26C2F800E091F801C00223D1
:103750002D272D4ABCF1430F2BD007DC2B4ABCF19F
:10376000410F0AD0BCF1420F42D114E0BCF1440F2A
:103770002DD0BCF1530F3BD137E016706370401E63
:1037800005E0CE5CD7185B1C07F8016C6370DBB2F8
:103790008342F6DB2CE017706370401E05E0CE5CC0
:1037A000D7185B1C07F8016C6370DBB28342F6DB51
:1037B0001EE016706370401E05E0CE5CD7185B1CDF
:1037C00007F8016C6370DBB28342F6DB10E0177020
:1037D0006370401E05E0CE5CD7185B1C07F8016CD7
:1037E0006370DBB28342F6DB02E00948C0F800E018
:1037F000FFF776FF2570BDE8F0810000D0030020C0
:103800004C00002008000020310000202C00002087
:103810000C000020FEE700000FB4054B10B503A913
:10382000044A029800F08AF910BC5DF814FB00000D
:1038300089420008C00300200907090E002804DBA4
:1038400000F1E02080F80014704700F00F0000F154
:10385000E02080F8141D704730B583B0044600F0B6
:1038600087F89FED090B05468DED000B00222146E0
:103870006846FCF746FF284600F090F89DED000BE7
:1038800003B030BD00000000000000000000000098
:1038900010B52DED020B2DED088B84B09DED0C0BBA
:1038A00051EC100BFCF7F4FF41EC180B9DED0C0BE9
:1038B00053EC182B51EC100BFCF766FD41EC190B87
:1038C0000D989FED290B10F0004F53EC102B51EC8D
:1038D000190B9FED21AB9FED22BB0ED0FDF734F805
:1038E0000ED953EC1B2B51EC190BFDF745F81CD2EC
:1038F00014E000BF41EC180B17E0FDF725F806D2E5
:1039000053EC1A2B51EC180BFCF73EFDF2E753EC8D
:103910001B2B51EC190BFDF72FF806D853EC1A2B83
:1039200051EC180BFCF78FFCE4E78DED028B9DED5D
:103930000C0B18EE901A10EE900A8DED000B61F34F
:103940001E0003909DED020B04B0BDEC088B02B08D
:1039500010BD000000000000000000000000F03F6B
:10396000000000000000E03F000000000000E0BF99
:103970000148006870470000CC03002002E008C83E
:10398000121F08C1002AFAD170477047002001E0D9
:1039900001C1121F002AFBD17047000001490860D5
:1039A00070470000CC0300202DE9FF5F82B00021AA
:1039B000DDE90430020DDDF840B0034318D044F6D1
:1039C0001050A2F2FF3242431514119801281FD063
:1039D000A5EB0B00401C5FEA000A4FF000064E4FBB
:1039E000DFF83891B046504615D5CAF1000413E00F
:1039F000119801244AA3012801D16FEA0B01029812
:103A0000119AC0E90031C0E9024206B0BDE8F09F5A
:103A1000CBF10000DFE704460021404A491842EBA1
:103A20000450CDE9001012E0E00707D032463B46D3
:103A300040464946FCF7AEFC8046894632463B4646
:103A400010461946FCF7A6FC06460F466410002CEB
:103A5000EAD1DDE90401DDE90023BAF1000F06DA5D
:103A6000FCF798FC42464B46FCF794FC05E0FCF75B
:103A700003FD42464B46FCF7FFFC04460E4600227F
:103A8000284BFCF779FF03D84FF0FF30014607E0E1
:103A90000022254B20463146FCF7D5FBFCF73CFFC6
:103AA000102409E0002C0ADB0A220023FCF788FB23
:103AB000039B30321A55641E50EA0102F2D1641C95
:103AC000039AC4F111031444119A012A03D001226C
:103AD00008430DD10AE0084304D000204FF0110B39
:103AE000119072E7A3EB0B056D1E0DE05B4504DD45
:103AF0004FF0000205F1010504E003DA4FF0000287
:103B0000A5F10105002AECD002981199C0E9023113
:103B1000C0E9004579E70000000014400000F03FD4
:103B2000300000000000F0430000E03F30380A2879
:103B300001D2012070470020704700002DE9FF4F9F
:103B400095B09B468946064600250FE2252877D189
:103B500000242746F84A0121059400E0044316F8A2
:103B6000013F203B01FA03F01042F7D130782A28B8
:103B700011D06FF02F033078A0F13002092A16D847
:103B8000059A44F0020402EB820203EB4202104465
:103B9000761C0590EFE759F8042B0592002A03DA0A
:103BA000504244F40054059044F00204761C3078EE
:103BB0002E2816D116F8010F44F004042A280DD03F
:103BC0006FF02F023078A0F13003092B09D807EBF2
:103BD000870302EB4303C718761CF3E759F8047B0D
:103BE000761C30786C280FD006DC4C2817D068285B
:103BF0000DD06A2814D104E0742810D07A280FD18F
:103C00000DE044F400140AE044F4801401E044F4AC
:103C100040147278824202D104F58014761C761C1E
:103C2000307866280BD013DC582877D009DC0028C0
:103C300075D04528F6D04628F4D047281AD19DE102
:103C400018E0632835D0642879D0652812D195E131
:103C5000702873D008DC6728F1D069286FD06E28EF
:103C60000DD06F2806D1B5E073282CD0752875D0FB
:103C7000782874D05A46179990476D1C75E1C4F3A3
:103C80000250022809D003280DD0D9F800100428CA
:103C90000DD00D6009F1040967E1D9F80010EA17A9
:103CA000C1E90052F6E7D9F800100D80F2E70D7077
:103CB000F0E719F8041B8DF8001000208DF80100C2
:103CC000EA46012003E059F804AB4FF0FF306107EA
:103CD0004FF0000102D40DE008F101018846B9421D
:103CE0000FDA8045F8DB1AF808100029F4D108E053
:103CF00008F1010188468142FADB1AF80810002910
:103D0000F6D105985B46A0EB080721463846179A7E
:103D100000F094FA284400EB080507E04DE029E1A3
:103D20000DE01AF8010B5A4617999047B8F10108AF
:103D3000F7D25B4621463846179A13E142E00A2241
:103D40000092C4F302524FF0000A022A08D059F838
:103D500004CB032A4FEAEC710AD00DE029E02AE0F7
:103D600009F1070121F00702F2E802C1914609E0DA
:103D70000FFA8CFC4FEAEC71042A03D14FFA8CFC49
:103D80004FEAEC71002907DA0A460021DCF1000C49
:103D900061EB02012D2202E0220504D52B228DF8D1
:103DA0000420012203E0E20701D02022F7E7904639
:103DB00059E00A2102E010220DE010214FF0000A24
:103DC00000910BE010224FF0000A44F00404082791
:103DD000009203E008224FF0000A0092C4F302525E
:103DE000022A05D059F804CB0021032A08D009E0A3
:103DF00009F1070121F00702F2E802C1914605E04E
:103E00001FFA8CFC042A01D10CF0FF0C4FF00008C3
:103E1000220728D5702806D0009B83F0100353EAB0
:103E20000A0305D00EE040228DF80420012208E0AC
:103E30005CEA010206D030228DF804208DF80500DE
:103E400002229046009B83F0080353EA0A030AD13A
:103E50005CEA010201D1620705D530228DF8042009
:103E60004FF001087F1E582804D034A003900EA8FC
:103E700002900DE036A0F9E753466046009AFCF741
:103E80009FF984460398825C0298401E029002705B
:103E90005CEA0100F0D1029806A9081A00F1200A94
:103EA000600702D524F4803400E00127574502DD85
:103EB000A7EB0A0000E0002000EB0A010090059843
:103EC0004144401A0590E00306D45B462146179A08
:103ED000059800F0B3F90544002706E001A85A460A
:103EE000C05D179990476D1C7F1C4745F6DBE003CA
:103EF0000CD55B462146179A059800F09FF90544BA
:103F000004E030205A46179990476D1C0099481ECE
:103F100000900029F5DC08E0029802995A460078E2
:103F2000491C0291179990476D1CBAF10001AAF142
:103F3000010AF1DC65E1000009280100303132336B
:103F400034353637383961626364656600000000D5
:103F500030313233343536373839414243444546BF
:103F60000000000000F058F90544761C3078002865
:103F70007FF4ECAD19B02846BDE8F08F620700D49D
:103F8000062709F1070222F0070CFCE80223E146AC
:103F900003F000485FEA080C02D00FF2702C0DE02D
:103FA0005FEA045C02D50FF2682C07E05FEAC47C8C
:103FB00002D00FF2602C01E0AFF2700C4FF0FF382E
:103FC00023F00043CDF850C065280CD006DC45280E
:103FD00009D046281DD047283DD13DE0662818D09D
:103FE00067287ED138E00021112F01DB112000E08D
:103FF000781CCDE9000106A90EA8FFF7D5FCDDE984
:104000000F010E9A03910021009207F1010A049119
:104010004DE04FF000400097CDE9011006A90EA831
:10402000FFF7C2FCDDE90F0203920E9B11990022FB
:10403000DDF80CA00093049211B9791C00EB010A81
:10404000B7EB0A0004D4C0F1FF3007F1010A049075
:10405000AAEB0700019044E0012F00DA01270021BC
:10406000112F01DD112000E03846CDE9000106A93D
:104070000EA8FFF799FCDDE90F010E9A03910021CC
:1040800004910092BA4621070CD40399514500DAF5
:104090008A46BAF1010F05DD009AAAF10101515CCF
:1040A000302908D0B84202DA10F1040F06DA0121F3
:1040B000CDE9011015E0AAF10101E9E7002805DCCE
:1040C000049901440491AAEB000102E0411C51450E
:1040D00000DD8A460499401A401C01904FF00040D0
:1040E0000290200704D40198504501DBCDF80480EC
:1040F00000208DF84F0002980DF14F07B0F1004FEE
:1041000025D02B200E9002984FF0020800280CDAE0
:10411000404202902D200E9007E00A210298FCF701
:104120008EFA3031029007F8011DB8F10001A8F1B4
:104130000108F2DC02980028EFD1791E0E98087071
:10414000307800F0200040F0450007F8020D12A87A
:10415000C01B00F107081498007800B1012000EBA3
:104160000A01019801EBE07105984144401A401E94
:104170000590E00306D45B462146179A059800F0A7
:104180005DF805441498007818B15A46179990477D
:104190006D1CE00324D55B462146179A059800F074
:1041A0004DF805441CE00498002807DBDDE9030115
:1041B000884203DD0098405C179901E01799302090
:1041C0005A469047049805F10105401C0490019857
:1041D000401E019004D12E205A46179990476D1C1D
:1041E000BAF10001AAF1010ADDDC05E017F8010BC4
:1041F0005A46179990476D1CB8F10001A8F10108C3
:10420000F4DC5B462146179A0598ABE62D000000CA
:104210002B000000200000002DE9F041044600259D
:104220001E461746880404D405E039462020B047CE
:104230006D1C641EF9D52846BDE8F0812DE9F041DA
:10424000044600251E469046C80301D5302700E0ED
:104250002027880404D505E041463846B0476D1C48
:10426000641EF9D52846BDE8F081484000210206C9
:104270004FEA40604FEA106001D580F00700491C0A
:10428000C9B20829F3D3704738B504468DF8000049
:104290003223012269460248FEF7C0F9204638BDA4
:1042A000B0050020FDF786F9FEF7F0FEFEF7C6FC2C
:1042B000FEF770FDFEF778FEFEF72CFDFEF7E8FD39
:1042C000FEF748FDFEF73AFEFEF78AFEFEF7A4FE73
:1042D000FEF7C0FE1548FEF7E7FB9FED150AFEF757
:1042E00005FC012213491448FEF72EF91149012259
:1042F000491C1248FEF728F90E490122891C104872
:10430000FEF722F90F48FDF755FD00F0E1F800F047
:1043100007F9084CB4F10204D4ED040A94ED030A41
:1043200000F048F81420FCF785FDF5E79C04002018
:10433000F6287C3F12000020B0050020F005002088
:104340003006002070050020F0B50B30154D20F030
:1043500007010024144A0FE003688B420BD38B4201
:1043600005D95E1A43184768C3E9006700E043684F
:10437000136002C004E0021D10680028ECD1204642
:10438000002802D1286808B10020F0BD064A07487D
:104390001060074A121A22F00702C0E90024012027
:1043A0002860D7E7C8030020C4030020840600204B
:1043B000800C00202DE9F0472DED028BB0EE408AF5
:1043C0004FF07C51B0EEC80A10EE100A9FED290A9A
:1043D00086B0884201DAB0EE408AB0EEE01A11EE03
:1043E000100A884201DAF0EE400ADFF88CA0DFF80C
:1043F0008C809AED000A30EE080A8AED000A98EDEA
:10440000001ABDEEC00A31EE201A10EE100A88ED37
:10441000001A00F045F898ED000ABDEEC00A10EE53
:10442000100A00F067F810EE900AFCF7D9F806467B
:104430000F4618EE100AFCF7D3F804460D46D8F8DC
:104440000000FCF7CDF880468946DAF80000FCF75A
:10445000C7F841EC100B02A953EC102B81E8F000D7
:1044600007A0CDE90089FFF7D7F906B0BDEC028BB4
:10447000BDE8F087000000000000002004000020DC
:10448000783A252E32662020793A252E3266202071
:1044900020252E3266202020252E32660A000000BC
:1044A000282801DC282004E04FF48271884200DBD8
:1044B00008460249096888637047000030050020FB
:1044C0000249AA200968886370470000300500206F
:1044D00010B500210648FDF777FE04210448FDF7DA
:1044E00073FE00F015F8BDE81040FFF7E9BF0000CB
:1044F000300500208C2801DC8C2002E0C82800DB7D
:10450000C820024909684863704700003005002050
:104510000249C82009684863704700003005002040
:1045200010B500F011F8002803D002A0FFF774F9CD
:10453000022010BDC9F1BEADCDF8C2E7BDA8C1A231
:10454000B4EDCEF30A0000002DE9F047DFF87891D2
:10455000002599ED000B51EC100BFCF709F8A9F1BF
:1045600018084746C8F8000001248000FFF7ECFE59
:10457000786006463F680BE009EBC40090ED000B45
:1045800051EC100BFBF7F4FF46F82500641C6D1C82
:10459000BD42F1DBD8F8000046468000FFF7D4FEAC
:1045A0000025B0600BE0D8F80400464650F825001E
:1045B0004001FFF7C9FEB16841F825006D1C306865
:1045C000B0468542EFDBDFF804A100254FEA09067B
:1045D00006EBC40090ED000B51EC100BFCF713F848
:1045E0000AEBC507641C386006EBC40090ED000BB5
:1045F00051EC100BFCF707F8641C6D1C7860022D61
:10460000E6DB06EBC400B14690ED000B51EC100B5D
:10461000FBF7F9FF2C4D641C0C3D286006EBC40031
:1046200090ED000B51EC100BFBF7EDFF68600025DF
:104630004FF0180A4646641C3FE0002737E0316817
:10464000491E8D4232D000EB85004068C000FFF764
:104650007BFEB1680AEB471251F825108850D6E965
:10466000013C002049460DE001EBC40898ED000B29
:104670005CF8258058F8028008EBC008401C88EDE3
:10468000000B641C03EB8508D8F804808045EBDC44
:1046900009EBC400102190ED000BB06801EB47114D
:1046A000641C50F82500084480ED000B7F1C7068E6
:1046B00050F82510B942C2DC6D1C30688542BCDB65
:1046C0000020BDE8F0870000800000207006002078
:1046D00000000000000000000102030406070809B2
:1046E0000000000001020304004040404040404000
:1046F00040404141414141404040404040404040B5
:104700004040404040404040400502020202020258
:1047100002020202020202020220202020202020A7
:1047200020202002020202020202909090909090BB
:104730001010101010101010101010101010101079
:1047400010101010020202020202888888888888ED
:1047500008080808080808080808080808080808D9
:10476000080808080202020240000000E9460008AA
:104770009047000800000020D0030000A00D0008B2
:10478000B84A0008D0030020B02800008C39000887
:1047900021232A431A4804012E32018210033F24A8
:1047A000F473144059085A200869185A0808681305
:1047B000F03F245C0A400AD741406826F7BFCC6C22
:1047C0004C4010614A89084B80422000FF000C4D8C
:1047D000400C81336397A9E43FD2E3B51A2B94D1FF
:1047E0003F16F46251A6CBD63F211408F9A898D6FB
:1047F0003FC779289F5846DB3F0DBF1FA77D4DE27D
:10480000BF6AB0807477BE6BBFF4C859B7C565D4B2
:104810003FE3348631D052C1BF9D98FDD3703EAD89
:10482000BF6DC06BC0B58DD5BFD76453CFFE17B970
:104830003FB5B254492A74EABFB6947F6FCBEED02D
:104840003FFB3648B17137E2BF909955E938C8CE81
:104850003F0D70DE8B71F6BD3FA217A4CFFD8B8E8E
:104860003FCC9011EDB64DD4BF6BB20C92BA74BA76
:104870003F1345CC15738ADABFCAE492B25E0FE5E6
:10488000BF5315852369B3DEBF2D51C5A6F86CE172
:10489000BF43B6C1C39361C2BFA7D0D446D0B3D57E
:1048A0003F7A40D123E3A4A83F6AA9F6C86A63E827
:1048B000BF9A36EBA58CACC2BF11DABCBBDF32D8D5
:1048C000BFC5EA2C0651EFD5BF4C237F1031931A98
:1048D00098B93FA7787D6274EBDABFA89EF5BE2B2E
:1048E00021D4BF7C9A7209B05DBCBFA338AA47D857
:1048F000BFA83F999D03D382FADFBFA9CF6100FF14
:1049000000D952C83FCF19CDA17770D3BFC938EBBA
:10491000F8D456C13FD4017B12F9EAD83FAA835993
:10492000F490E1E63F36E696D20A3EDCBF19767394
:104930004C71B0B1BFF0AF924DC133D3BF0F93787C
:1049400092D7F7DCBF25AE424E884EB5BF6031F23C
:10495000CBC3B6B73FF16EFAEDCA32C33FD04CAC11
:1049600063C70CC23F8A21B560146AE83FD1677201
:10497000F75A4CC73F85E16DEF6481BE3F11C2E538
:10498000A9F55BD6BFF3261AFF999C95BFD36DC3DB
:1049900007FAB4C0BF7B6D7001ECCC723FF766695B
:1049A000E1917CC63F729BFC58B93ED33F2AD6DBCF
:1049B0002C7F3AC03F58612B4FBD41D0BF43D942F5
:1049C0002D5957BFBFA40CA879BFF8DFBF4B2A8D64
:1049D00077CB3ED3BF7E75B05989D4B5BFCB946237
:1049E00089FF42E03FB11F39045499E0BF55338C31
:1049F0003709B0E73F1E04F42D39CFD6BF1BDA00CC
:104A0000B7107C339C38D1BF10B2A85F5418A63FB2
:104A1000477D8ACA230BC33FA1E0DE0C699ACF3FD2
:104A200070A8C6E80CCEB73F5180ACD0D510DDBF22
:104A300011E71BB02F52F13FCCD26FDBCEA9DDBF07
:104A4000C0C679289F58BF3F70287CB60E6EF0BF55
:104A5000C18BDF901D06C0BF4EC7EFAF16C6D23F59
:104A60005BA71D40B73ED43F4DF863620CAFE1BF7A
:104A70002B3ED385376FD0BFCE407E999C986D3F3B
:104A800094AD0528D389CC3FC88598855550F03F13
:104A900003BEF459123EE4BFADE52906A3DDF0BF25
:104AA000C29C87B06D13C4BF028ACBD0FCDADE3F54
:084AB0004BF09FD1CA7BCCBF83
:040000050800018965
:00000001FF
